:020000040800F2
:1000000018050020050100088D2A0008851F00083A
:10001000892A0008C5030008B52E0008000000006A
:10002000000000000000000000000000BD2A0008E1
:10003000C903000800000000912A0008BF2A000838
:100040001F0100081F0100081F0100081F01000810
:100050001F0100081F0100081F0100081F01000800
:100060001F01000829040008330400081F010008CC
:100070001F0100081F0100081F0100081F010008E0
:100080001F0100081F0100081F0100081F010008D0
:100090001F0100081F0100081F0100083D0400089F
:1000A0001F0100081F0100081F0100081F010008B0
:1000B0001F0100081F0100081F0100081F010008A0
:1000C0001F0100081F0100081F0100081F01000890
:1000D0001F0100081F0100081F0100081F01000880
:1000E0001D0400081F0100081F010008DFF810D0E0
:1000F00000F042F80048004785320008AFF3008066
:10010000180500200648804706480047FEE7FEE73E
:10011000FEE7FEE7FEE7FEE7FEE7FEE7FEE7FEE7B7
:100120002D2B0008ED000008D2B201E000F8012BF1
:10013000491EFBD270470022F6E710B513460A4667
:1001400004461946FFF7F0FF204610BD30B50B46B8
:10015000014600202022012409E021FA02F59D42F7
:1001600005D303FA02F5491B04FA02F52844151ECB
:10017000A2F10102F1DC30BD064C074D06E0E0685B
:1001800040F0010394E8070098471034AC42F6D3DE
:10019000FFF7B0FFA43E0008C43E000808B50122E6
:1001A0006946002000F028F99DF8000044280CD092
:1001B0004420009001226946002000F007F9012246
:1001C0000549104600F002F904E0012202491046F8
:1001D00000F012F908BD00001000002010B54248E0
:1001E000007804280FD100203F4908703F49097862
:1001F000481C00EBD0714910A0EB41013B4A117043
:1002000002F038FA6EE039480078002840D13648CC
:100210000078012804D0022813D003282AD123E033
:1002200000203149087032480088143000B230494B
:1002300008800846B0F90000642801DB64200880CB
:1002400019E000202849087029480088143800B2B5
:10025000274908800846B0F9000010F1640F02DC5D
:100260006FF06300088006E000201F4908702049F5
:10027000088000E000BF00BF1D48008810B902F0F0
:10028000E3F92FE01A48B0F9000002F0B1F929E0D3
:1002900016480078012825D113480078012804D099
:1002A00002280BD003281BD111E000200E49087052
:1002B00010480078401C0F49087012E000200A49DD
:1002C00008700C480078401E0A49087009E00020B8
:1002D0000549087001220749104600F077F800E050
:1002E00000BF00BF10BD000014000020110000205E
:1002F00012000020100000201FB500200090019087
:10030000029003902348007818BB002409E004F110
:100310000D01CAB26106080E002102F0F7F9601C57
:10032000C4B2082CF3DB1C48B0F900201BA16846BE
:1003300002F0C2FD6A460121042002F0AFF91AA1C1
:10034000684602F0B9FD6A460221042002F0A6F9CF
:100350001CE010480078012818D1002409E004F1BD
:100360000D01CAB26106080E002102F0CFF9601C2F
:10037000C4B2082CF3DB0E4802780EA1684602F0E6
:100380009BFD6A460121052002F088F9642000F0F7
:100390005DF81FBD11000020120000205365743A63
:1003A000252D34640000000053706565643A000038
:1003B0001000002049443A253033640010B502F0A3
:1003C000C9F910BD00BFFEE770470000FEB5044646
:1003D0000D4616464FF47A7001232246A021CDE93E
:1003E00000560290034800F083FD052000F02EF82F
:1003F000FEBD000018000020FEB504460D4616465E
:100400004FF47A7001232246A121CDE900560290D3
:10041000014800F0BBFBFEBD1800002010B54FF4F2
:10042000004000F061F810BD10B5082000F05CF845
:1004300010BD10B5102000F057F810BD10B52020E9
:1004400000F052F810BD72B600BFFEE770B504466A
:1004500000F0F6F906462546681C10B104480078FD
:10046000054400BF00F0ECF9801BA842FAD370BD30
:100470000800002010B50446B4F5004F05D0082C44
:1004800003D0102C01D0202C26D10A20FFF7DEFF4C
:100490004FF40041114800F0C5F918B90120104986
:1004A000087019E008210F4800F0BCF918B90220C3
:1004B0000B49087010E010210A4800F0B3F918B990
:1004C00003200749087007E02021064800F0AAF938
:1004D00010B904200249087010BD00000008014056
:1004E00014000020000C014010B5044604480068C8
:1004F000204020B1024804602046FFF7BBFF10BD3A
:10050000140401402DE9F8470346002294466EE1A9
:100510004FF0010808FA02F4D1F8008008EA04005C
:10052000A0427DD1DFF8DCA2D1F80480A8EB0A0953
:10053000D0453AD014DCB8F1030F50D009DCB8F143
:10054000000F31D0B8F1010F1CD0B8F1020F49D122
:1005500020E0B8F1110F18D0B8F1120F42D11EE00F
:10056000B9F5881F25D006DCB9F5803F20D0B9F554
:10057000801F37D11AE0B9F5001F18D0B9F5041F54
:1005800030D117E0D1F80CC02DE0D1F80C8008F183
:10059000040C28E0D1F80C8008F1080C23E0D1F815
:1005A0000C8008F10C0C1EE000BF00BF00BF00BFB4
:1005B00000BF00BFD1F80880B8F1000F02D14FF0A2
:1005C000040C0BE0D1F80880B8F1010F03D14FF013
:1005D000080C1C6102E04FF0080C5C6103E04FF076
:1005E000000C00E000BF00BFFF2801D8984601E0E2
:1005F00003F104084646FF2802D84FEA820803E0C8
:10060000A2F108084FEA88084746D6F800804FF064
:100610000F0909FA07F928EA09080CFA07F900E0B6
:1006200088E048EA0908C6F80080D1F8048008F09C
:100630008058B8F1805F7DD100BFDFF8CC81D8F859
:10064000188048F00108DFF8C091C9F81880C84642
:10065000D8F8188008F00108CDF8008000BF00BF6E
:100660004FEAB9384FEA920958F829504FEA827890
:100670004FEA18794FF00F0808FA09F825EA08053B
:10068000DFF88881434502D14FF0000816E0DFF81B
:100690008081434502D14FF001080FE0DFF87481FB
:1006A000434502D14FF0020808E0DFF86C81434572
:1006B00002D14FF0030801E04FF004084FEA8279BD
:1006C0004FEA197908FA09F848EA0505DFF84C817C
:1006D0004FEA920948F82950D1F8048008F48018AC
:1006E000B8F5801F0AD1DFF83881D8F8008048EAD1
:1006F0000008DFF82C91C9F8008009E0DFF82081BC
:10070000D8F8008028EA0008DFF81491C9F80080C2
:10071000D1F8048008F40018B8F5001F10D1DFF8F4
:10072000008108F10408D8F8008048EA0008DFF8E2
:10073000F09000E05AE009F10409C9F800800DE0EA
:10074000DFF8DC8008F10408D8F8008028EA000807
:10075000DFF8CC9009F10409C9F80080D1F80480D1
:1007600008F40038B8F5003F0ED1DFF8B480A8F1E6
:100770000408D8F8008048EA0008DFF8A490A9F13E
:100780000409C9F800800DE0DFF89480A8F104089E
:10079000D8F8008028EA0008DFF88490A9F104095D
:1007A000C9F80080D1F8048008F48038B8F5803F9B
:1007B0000ED1DFF86C80A8F10808D8F8008048EA6C
:1007C0000008DFF85C90A9F10809C9F800800DE085
:1007D000DFF84C80A8F10808D8F8008028EA000863
:1007E000DFF83C90A9F10809C9F80080521CD1F843
:1007F000008028FA02F8B8F1000F7FF489AEBDE856
:10080000F8870000000011100010024000080140AD
:10081000000C01400010014000140140080001409C
:1008200008040140024693680B400BB1012000E030
:10083000002070470AB1016101E00B0403617047B9
:1008400001480068704700000000002070B50446B1
:100850000CB9012070BD94F83D0028B9002084F83F
:100860003C00204600F0F6FB242084F83D00206880
:10087000006820F00100216808602068006840F4EA
:100880000040216808602068006820F4004021686A
:10089000086000F0B9FD05465C496068884206D8EA
:1008A0005B48854201D2012007E0002005E059485D
:1008B000854201D2012000E00020012800D1C9E7D3
:1008C0005548B5FBF0F62068406820F03F00304303
:1008D000216848604D496068884201D8701C07E073
:1008E0004FF4967070434FF47A71B0FBF1F0401CF6
:1008F0002168096A21F03F010843216808624349E1
:100900006068884214D8681E61684900B0FBF1F045
:10091000401CC0F30B00042801D204203DE0681EF7
:1009200061684900B0FBF1F0401CC0F30B0034E0FB
:10093000A06838B9681E616801EB4101B0FBF1F0B5
:10094000401C0AE0681E616801EBC10202EB011164
:10095000B0FBF1F0401C40F48040C0F30B0008B93C
:1009600001201AE0A06848B9681E616801EB4101E6
:10097000B0FBF1F0401CC0F30B000CE0681E616896
:1009800001EBC10202EB0111B0FBF1F0401CC0F31E
:100990000B0040F4804040F400402168C9694CF6E7
:1009A000FF72914308432168C861D4E907010843F5
:1009B0002168096821F0C001084321680860D4E972
:1009C000031008432168896848F2FF3291430843C5
:1009D00021688860D4E9050108432168C96821F0CD
:1009E000FF0108432168C8602068006840F00100EA
:1009F0002168086000202064202084F83D00002049
:100A0000206384F83E0000BF24E70000A0860100B8
:100A100080841E0000093D0040420F002DE9F8438C
:100A20000446894616461F46DDF82080FFF708FF7A
:100A3000054694F83D0020287ED119230122514912
:100A40002046009501F073FC10B10220BDE8F88348
:100A500000BF94F83C00012801D10220F6E70120F4
:100A600084F83C0000BF2068006800F0010028B94D
:100A70002068006840F00100216808602068006874
:100A800020F4006021680860212084F83D001020D7
:100A900084F83E000020206466626785608D2085B2
:100AA0003948E0622B4642464946204601F08CFA1E
:100AB00008B10120CAE700BF00200090206840690B
:100AC000009020688069009000BF00BF44E02A4683
:100AD0004146204601F04CFD50B1206C042805D160
:100AE0002068006840F40070216808600120ADE7CC
:100AF000606A007821680861606A401C6062608DED
:100B0000401E6085208D401E208520684069C0F30E
:100B1000800070B1208D60B1606A00782168086142
:100B2000606A401C6062608D401E6085208D401EA2
:100B300020852A46414600E022E0204601F0C4FB21
:100B400050B1206C042805D12068006840F4007082
:100B500021680860012079E7208D0028B7D120683E
:100B6000006840F4007021680860202084F83D008F
:100B7000002084F83E0000BF84F83C0000BF65E719
:100B8000022063E7020010000000FFFF2DE9FE4F86
:100B900004460F4690469946DDE90CAB0E9E0020B8
:100BA0000290FFF74DFE054694F83D00202872D1D3
:100BB00019230122CA492046009501F0B8FB10B163
:100BC0000220BDE8FE8F00BF94F83C00012801D14F
:100BD0000220F6E7012084F83C0000BF206800688E
:100BE00000F0010028B92068006840F00100216889
:100BF00008602068006820F40060216808602220F6
:100C000084F83D00402084F83E0000202064C4F8B1
:100C100024A0A4F82AB0608D2085B248E0624B463B
:100C2000424639462046CDE9006501F02DFA08B16B
:100C30000120C6E7208D88B900BF00200190206800
:100C40004069019020688069019000BF00BF206862
:100C5000006840F40070216808604BE0208D012896
:100C60001AD12068006820F480602168086072B69C
:100C700000BF0020019020684069019020688069D1
:100C8000019000BF00BF2068006840F40070216838
:100C9000086062B62EE020E1208D022819D120687C
:100CA000006840F400602168086072B600BF002050
:100CB000019020684069019020688069019000BF20
:100CC00000BF2068006820F480602168086062B678
:100CD00010E02068006840F480602168086000BF70
:100CE000002001902068406901902068806901908F
:100CF00000BF00BFE2E0208D03287DD8208D0128B1
:100D000015D12A463146204601F0EDFB08B10120FD
:100D100057E720680069616A0870606A401C606279
:100D2000208D401E2085608D401E6085C6E0208D90
:100D300002282CD1334600226B492046009501F051
:100D4000F6FA08B101203CE772B62068006840F46A
:100D500000702168086020680069616A0870606A34
:100D6000401C6062208D401E2085608D401E608585
:100D700062B620680069616A0870606A401C60623F
:100D8000208D401E2085608D401E608596E0334694
:100D9000002255492046009501F0C9FA08B101200A
:100DA0000FE72068006820F480602168086072B650
:100DB00020680069616A0870606A401C6062208D6A
:100DC000401E2085608D401E6085484800681921BE
:100DD000B0FBF1F04FF47A71B0FBF1F0C0EBC00062
:100DE00000EB8000029000BF0298401E0290029823
:100DF000A8B90020206300E039E0202084F83D00FD
:100E0000002084F83E00206C40F02000206462B690
:100E100000BF002084F83C0000BF0120D1E620681C
:100E20004069C0F380000028DED02068006840F4EC
:100E300000702168086020680069616A0870606A53
:100E4000401C6062208D401E2085608D401E6085A4
:100E500062B620680069616A0870606A401C60625E
:100E6000208D401E2085608D401E608526E02A462C
:100E70003146204601F037FB08B10120A1E6206889
:100E80000069616A0870606A401C6062208D401EC3
:100E90002085608D401E608520684069C0F3800019
:100EA00060B120680069616A0870606A401C606215
:100EB000208D401E2085608D401E6085208D00287D
:100EC0007FF419AF202084F83D00002084F83E0014
:100ED00000BF84F83C0000BF73E6022071E600000A
:100EE000020010000000FFFF040001000C000020C1
:100EF0002DE9FC5F04460F4690469946DDE90CABB0
:100F00000E9EFFF79DFC054694F83D0020287DD1FC
:100F1000192301224D492046009501F008FA10B12D
:100F20000220BDE8FC9F00BF94F83C00012801D1DD
:100F30000220F6E7012084F83C0000BF206800682A
:100F400000F0010028B92068006840F00100216825
:100F500008602068006820F4006021680860212093
:100F600084F83D00402084F83E0000202064C4F84E
:100F700024A0A4F82AB0608D20853548E0624B4655
:100F8000424639462046CDE9006501F02DF908B109
:100F90000120C6E731E02A463146204601F0E8FA52
:100FA00050B1206C042805D12068006840F400701E
:100FB000216808600120B4E7606A00782168086150
:100FC000606A401C6062208D401E2085608D401E3E
:100FD000608520684069C0F3800070B1208D60B1E9
:100FE000606A007821680861606A401C6062208D38
:100FF000401E2085608D401E6085208D0028CAD14E
:101000002A463146204601F05FF900E01CE050B16D
:10101000206C042805D12068006840F40070216825
:10102000086001207DE72068006840F400702168B6
:101030000860202084F83D00002084F83E0000BFB6
:1010400084F83C0000BF6CE702206AE70200100051
:101050000000FFFF10B586B0044600200290039008
:101060000490059016492068884226D100BF154893
:10107000806940F00800134988610846806900F0E3
:101080000800019000BF00BF4FF4406002901220A2
:1010900003900320059002A90B48FFF733FA00BF25
:1010A0000848C06940F480000649C8610846C06924
:1010B00000F48000019000BF00BF06B010BD00002A
:1010C0000058004000100240000C01400348006836
:1010D000034909780844014908607047000000206E
:1010E0000800002010B50848006840F010000649CC
:1010F0000860032000F0A8F8002000F007F800F0D6
:101100002BF8002010BD00000020024070B50446FE
:101110000E4800784FF47A71B1FBF0F00C49096881
:10112000B1FBF0F5284600F0F9FB08B1012070BDD5
:10113000102C07D200222146501E00F047F8054827
:10114000046001E00120F2E70020F0E70800002041
:101150000C0000200400002008B500BF1148806981
:1011600040F001000F4988610846806900F00100E5
:10117000009000BF00BF00BF0846C06940F080502B
:10118000C8610846C06900F08050009000BF00BFF1
:1011900000BF0549486820F0E06040F000704860FA
:1011A00000BF08BD00100240000001400146084693
:1011B000002809DB00F01F0301229A4043099B002D
:1011C00003F1E023C3F8002100BF70472DE9F05F71
:1011D00080460D461646002701F082FE0746394636
:1011E0002A46334601F00700C0F1070ABAF1040F9E
:1011F00002D94FF0040A01E0C0F1070AD14600F11C
:10120000040ABAF1070F02D24FF0000A01E0A0F180
:10121000030AD4464FF0010A0AFA09FAAAF1010AB0
:101220000AEA020A0AFA0CFA4FF0010B0BFA0CFB5D
:10123000ABF1010B0BEA030B4AEA0B0421464046D3
:1012400001F056FEBDE8F09F00BF00F00702064B1C
:1012500019684FF6FF031940044B0B4343EA022180
:10126000014B196000BF70470CED00E00000FA056B
:1012700070B504460D460CB9012070BD5A4800688F
:1012800000F00700A8420ED25748006820F007007F
:101290002843554908600846006800F00700A84246
:1012A00001D00120E9E7207800F0020002281DD1DA
:1012B000207800F00400042805D14C48406840F430
:1012C000E0604A494860207800F00800082805D10D
:1012D0004648406840F4605044494860434840688C
:1012E00020F0F000A168084340494860207800F0F1
:1012F000010078B36068012806D13C48006800F41A
:10130000003090B90120B8E76068022806D137485C
:10131000006800F0007040B90120AEE73348006873
:1013200000F0020008B90120A7E73048406820F02B
:101330000300616808432D494860FFF781FA0646BB
:1013400009E0FFF77DFA801B41F28831884202D91B
:10135000032092E707E02548406800F00C00616830
:10136000B0EB810FEDD12048006800F00700A842E3
:101370000ED91D48006820F0070028431A4908606C
:101380000846006800F00700A84201D0012074E779
:10139000207800F00400042807D11448406820F4A5
:1013A000E060E168084311494860207800F00800D7
:1013B000082808D10D48406820F46050216940EAAF
:1013C000C1000A49486000F03FF808494968C1F384
:1013D0000311074A515CC840064908600648006886
:1013E000FFF794FE002048E7002002400010024072
:1013F000CC3200080C0000200400002001480068E6
:10140000704700000C00002000B5FFF7F7FF04490B
:101410004968C1F30221034A515CC84000BD000085
:1014200000100240DC32000800B5FFF7E7FF044976
:101430004968C1F3C221034A515CC84000BD0000A5
:1014400000100240DC32000870B5002100220024A8
:1014500000230020134D696801F00C05F5B1042D3F
:1014600002D0082D19D101E00F4819E00F4DC1F34A
:101470008346AB5D01F4803555B10A4D6D68C5F307
:1014800040450B4E725D084D5D43B5FBF2F402E042
:10149000084D03FB05F4204602E000BF024800BFF0
:1014A00000BF70BD0010024000127A00BA3200087E
:1014B000CA32000800093D00F8B504460CB9012005
:1014C000F8BD207800F00100002878D0F848406886
:1014D00000F00C0004280CD0F548406800F00C0027
:1014E000082811D1F248406800F48030B0F5803F00
:1014F0000AD1EF48006800F4003000285FD060682F
:1015000000285CD10120DBE700BF6068B0F5803FB8
:1015100006D1E748006840F48030E549086028E0DB
:10152000606858B9E248006820F48030E0490860FB
:101530000846006820F4802008601AE06068B0F572
:10154000A02F0BD1DA48006840F48020D849086009
:101550000846006840F4803008600AE0D44800681B
:1015600020F48030D24908600846006820F48020CA
:10157000086000BF606888B1FFF762F9054606E0C1
:10158000FFF75EF9401B642801D9032098E7C8489B
:10159000006800F400300028F2D010E0FFF750F9A6
:1015A000054606E0FFF74CF9401B642801D90320EB
:1015B00086E7BF48006800F400300028F2D12078A8
:1015C00000F00200022857D1B948406800F00C0032
:1015D00050B1B748406800F00C00082818D1B44852
:1015E000406800F4803098B9B148006800F002000B
:1015F00020B12069012801D0012061E7AC480068D2
:1016000020F0F800616940EAC100A949086033E0B0
:101610002069E8B10120A7490860FFF711F90546E4
:1016200006E0FFF70DF9401B022801D9032047E728
:101630009F48006800F002000028F2D09C48006833
:1016400020F0F800616940EAC1009949086013E0A0
:10165000002098490860FFF7F3F8054606E0FFF719
:10166000EFF8401B022801D9032029E790480068C1
:1016700000F002000028F2D1207800F008000828CD
:101680002DD1A069B8B101208B490860FFF7D8F8C7
:10169000054606E0FFF7D4F8401B022801D90320D5
:1016A0000EE78348406A00F002000028F2D00120D3
:1016B00001F0F0F913E000207F490860FFF7C0F85F
:1016C000054606E0FFF7BCF8401B022801D90320BD
:1016D000F6E67748406A00F002000028F2D1207850
:1016E00000F00400042873D100277148C06900F09D
:1016F000805070B900BF6E48C06940F080506C499E
:10170000C8610846C06900F08050009000BF00BF6B
:1017100001276A48006800F48070B0B96748006823
:1017200040F4807065490860FFF78AF8054606E0D6
:10173000FFF786F8401B642801D90320C0E65F4804
:10174000006800F480700028F2D000BFE068012833
:1017500006D15748006A40F001005549086227E069
:10176000E06858B95248006A20F001005049086208
:101770000846006A20F00400086219E0E0680528C5
:101780000BD14B48006A40F0040049490862084602
:10179000006A40F0010008620AE04548006A20F053
:1017A0000100434908620846006A20F0040008620C
:1017B00000BFE068A0B1FFF743F8054609E0FFF776
:1017C0003FF8401B41F28831884202D9032077E676
:1017D00022E03748006A00F002000028EFD012E053
:1017E000FFF72EF8054608E0FFF72AF8401B41F204
:1017F0008831884201D9032062E62D48006A00F052
:1018000002000028F0D1012F05D12948C06920F03D
:1018100080502749C86100BFE069C8B324484068C8
:1018200000F00C00082860D0E069022848D10020B0
:1018300020490866FFF704F8054606E0FFF700F8C0
:10184000401B022801D903203AE61948006800F03D
:1018500000700028F2D1206AB0F5803F07D114480B
:10186000406820F40030A168084311494860D4E979
:10187000080108430E49496821F4741108430C49D2
:10188000486001200B490866FEF7DAFF054607E0CD
:101890003DE0FEF7D5FF401B022801D903200FE6EB
:1018A0000348006800F000700028F2D02FE000002C
:1018B000001002400000424280044242007000409A
:1018C000002014490866FEF7BBFF054606E0FEF758
:1018D000B7FF401B022801D90320F1E50E4800683C
:1018E00000F000700028F2D111E0E069012800D179
:1018F000E6E50948466806F48031206A814204D151
:1019000006F47011606A814201D00120D8E5002000
:10191000D6E50000000042420010024070B50446C7
:101920002546681EB0F1807F01D301200FE0681EBC
:101930004FF0E02148610F214FF0FF3001F0D8FA5D
:1019400000204FF0E021886107200861002070BD71
:1019500010B50346002200BF93F83C00012801D1D6
:10196000022010BD012083F83C0000BF22F0FF00E0
:10197000CC6840EA040222F440708C6840EA040219
:1019800022F480604C6840EA040222F400600C6893
:1019900040EA040222F480500C6940EA040222F476
:1019A00000504C6940EA040222F48040CC6940EACD
:1019B00004021868426400BF002083F83C0000BFA6
:1019C00000BFCEE730B502460B4600BF92F83C00A0
:1019D000012801D1022030BD012082F83C0000BF67
:1019E000022082F83D00106844681068816824F085
:1019F00070041868044310684460104D1068A842D1
:101A00000BD01068B0F1804F07D00D4D1068A84280
:101A100003D00C4D1068A84205D121F08001586810
:101A2000014310688160012082F83D0000BF002062
:101A300082F83C0000BF00BFCDE70000002C014051
:101A4000000400400008004010B504460CB9012015
:101A500010BD94F83D0028B9002084F83C002046D1
:101A600000F026F8022084F83D00211D206801F0D6
:101A70005FF8012084F8460000BF84F83E00012191
:101A80003F200155402001554120015500BF00BFB6
:101A9000012084F84200432001554420015545208F
:101AA000015500BF012084F83D000020D0E7000070
:101AB00008B5094A016891420DD100BF07498969FB
:101AC00041F40061054A91611146896901F40061A0
:101AD000009100BF00BF08BD002C01400010024073
:101AE0002DE9F04104460D46002700BF94F83C0064
:101AF000012802D10220BDE8F081012084F83C00D9
:101B000000BF022084F83D002068866826F0770632
:101B100026F47F46206886602868502833D00CDC85
:101B2000202850D004DC00284BD0102851D149E0A7
:101B3000302849D040284CD139E060282DD0702879
:101B400007D0B0F5805F03D0B0F5005F41D10DE064
:101B500041E0D5E902136A68206801F034F8206892
:101B6000866846F077062068866034E0D5E902137F
:101B70006A68206801F027F82068806840F4804097
:101B80002168886027E0EA686968206801F0ECF85D
:101B90005021206801F022F81DE0EA686968206899
:101BA00001F0F5F86021206801F018F813E0EA6808
:101BB0006968206801F0D8F84021206801F00EF82B
:101BC00009E000BF00BF00BF2968206801F006F8E7
:101BD00001E0012700BF00BF012084F83D0000BFE5
:101BE000002084F83C0000BF384684E710B586B07A
:101BF0000446002002900390049005900E4920684E
:101C0000884216D100BF0D48806940F004000B499E
:101C100088610846806900F00400019000BF00BFA1
:101C20008815029002200390059002A90448FEF74F
:101C300069FC06B010BD0000002C014000100240FD
:101C4000000801402DE9F04104460D4616460027E4
:101C500000BF94F83C00012802D10220BDE8F081C9
:101C6000012084F83C0000BF36B1042E1BD0082EA2
:101C700031D00C2E5ED145E02946206800F0B8FF37
:101C80002068806940F008002168886120688069C8
:101C900020F0040021688861206880692969084370
:101CA0002168886148E02946206800F0D1FF20685B
:101CB000806940F40060216888612068806920F4B0
:101CC00080602168886120688069296940EA012074
:101CD0002168886130E02946206800F0EDFF206827
:101CE000C06940F008002168C8612068C06920F020
:101CF00004002168C8612068C06929690843216817
:101D0000C86119E02946206801F00AF82068C06916
:101D100040F400602168C8612068C06920F48060D8
:101D20002168C8612068C069296940EA01202168EA
:101D3000C86101E0012700BF00BF00BF002084F898
:101D40003C0000BF384689E710B504460CB90120B5
:101D500010BD94F83D0028B9002084F83C002046CE
:101D600000F025F8022084F83D00211D206800F0D5
:101D7000DFFE012084F8460000BF84F83E00012108
:101D80003F200155402001554120015500BF00BFB3
:101D9000012084F84200432001554420015545208C
:101DA000015500BF012084F83D000020D0E77047B6
:101DB00070B504460D4615B994F83E000BE0042DAD
:101DC00002D13F20005D06E0082D02D14020005DD9
:101DD00001E04120005D012801D0012070BD1DB946
:101DE000022084F83E000EE0042D03D102213F20A2
:101DF000015508E0082D03D102214020015502E0E1
:101E000002214120015501222946206800F0CAFE26
:101E100019492068884201D1012000E0002028B142
:101E20002068406C40F400402168486412492068F2
:101E300088420BD02068B0F1804F07D00F4920684E
:101E4000884203D00E49206888420CD120688068FF
:101E500000F00706062E0CD02068006840F0010054
:101E60002168086005E02068006840F001002168F2
:101E700008600020B2E70000002C01400004004090
:101E80000008004010B504460CB9012010BDA0693F
:101E900000B100E000BF94F8410028B9002084F8A8
:101EA0004000204600F02AF8242084F841002068F1
:101EB000C06820F400502168C860204600F07CFF14
:101EC0002068006920F4904021680861206840691A
:101ED00020F02A00216848612068C06840F4005062
:101EE0002168C86000206064202084F8410084F8E4
:101EF00042000020606300BFC8E7000010B586B054
:101F00000446002002900390049005901A4920682E
:101F100088422ED100BF1948806940F4804017499B
:101F200088610846806900F48040019000BF00BFCE
:101F300000BF0846806940F0040088610846806957
:101F400000F00400019000BF00BF4815029002207D
:101F500003900320059002A90948FEF7D3FA4FF435
:101F60008060029000200390049002A90448FEF7CC
:101F7000C9FA06B010BD0000003801400010024050
:101F80000008014000BFFEE7014608684069C0F351
:101F90008020B0B16FF480600A685061002008634F
:101FA000202081F83D00002081F83E00086C40F0C0
:101FB0000400086400BF002081F83C0000BF01203D
:101FC00070470020FCE700002DE9F84304460D4669
:101FD00017469846E66A082E04D0012E02D016F560
:101FE000803F06D12068006840F480702168086056
:101FF00008E0206B122805D12068006840F480704A
:10200000216808603B4600224FF001112046CDF8C0
:10201000008000F08CF960B12068006800F48070E6
:10202000B0F5807F02D14FF4007020640320BDE83A
:10203000F8832069B0F5804F04D105F0FE002168D7
:10204000086112E005F44070F02141EAE0102168D7
:10205000086143463A460B49204600F0C7F908B1EB
:102060000120E4E7E8B22168086143463A460549A1
:10207000891F204600F0BAF908B10120D7E70020F7
:10208000D5E70000080001002DE9F84304460F469B
:1020900015469946DDE908862068006840F48060AE
:1020A000216808602068006840F48070216808603A
:1020B000434600224FF001112046009600F037F908
:1020C00060B12068006800F48070B0F5807F02D1B4
:1020D0004FF4007020640320BDE8F88307F0FE0091
:1020E00021680861334642463E49204600F07EF9A9
:1020F00008B10120F0E700BF00200090206840698F
:10210000009020688069009000BF00BF32464146C1
:10211000204600F02DFA50B1206C042805D120682B
:10212000006840F40070216808600120D4E7B9F12C
:10213000010F03D1E8B22168086117E0C5F3072059
:102140002168086132464146204600F011FA50B13C
:10215000206C042805D12068006840F400702168D4
:1021600008600120B8E7E8B22168086132464146BC
:10217000204600F0FDF950B1206C042805D12068FC
:10218000006840F40070216808600120A4E720681E
:10219000006840F4807021680860434600224FF0D8
:1021A00001112046009600F0C2F858B1206800687E
:1021B00000F48070B0F5807F02D14FF4007020648D
:1021C000032089E7F8B240F0010021680861334636
:1021D00042460449204600F009F908B101207BE796
:1021E000002079E7020001002DE9F8430446884603
:1021F00015469946DDE908672068006840F480705C
:1022000021680860334600224FF0011120460097F4
:1022100000F08DF860B12068006800F48070B0F5BF
:10222000807F02D14FF4007020640320BDE8F88362
:1022300008F0FE00216808613B46324621492046ED
:1022400000F0D4F808B10120F0E700BF00200090B2
:1022500020684069009020688069009000BF00BF3E
:102260003A463146204600F083F950B1206C0428EC
:1022700005D12068006840F40070216808600120E2
:10228000D4E7B9F1010F03D1E8B22168086117E082
:10229000C5F30720216808613A463146204600F020
:1022A00067F950B1206C042805D12068006840F41B
:1022B0000070216808600120B8E7E8B22168086171
:1022C0000020B3E70200010070B504460D46164633
:1022D00025E02046FFF758FE08B1012070BD681CBC
:1022E000E8B1FEF7ADFA801BA84200D8BDB920685E
:1022F0004069C0F3800090B900202063202084F85A
:102300003D00002084F83E00206C40F02000206456
:1023100000BF002084F83C0000BF0120DEE72068F9
:102320004069C0F380000028D3D00020D6E72DE913
:10233000F04104460D4617461E46DDF8188038E089
:10234000701CA8B3FEF77CFAA0EB0800B04200D8DE
:1023500076BBC5F3074001280AD120684069A9B2BD
:102360000840A9B2884201D101200BE0002009E019
:1023700020688069A9B20840A9B2884201D1012031
:1023800000E00020B84214D100202063202084F80F
:102390003D00002084F83E00206C40F020002064C6
:1023A00000BF002084F83C0000BF0120BDE8F081A0
:1023B000FFE7C5F3074001280AD120684069A9B2A8
:1023C0000840A9B2884201D101200BE0002009E0B9
:1023D00020688069A9B20840A9B2884201D10120D1
:1023E00000E00020B842ABD00020DFE72DE9F0414B
:1023F00004460D4616461F4658E020684069C0F363
:102400008020E8B12068006840F40070216808600E
:102410006FF480602168486100202063202084F8E8
:102420003D00002084F83E00206C40F00400206451
:1024300000BF002084F83C0000BF0120BDE8F0810F
:10244000701C90B3FEF7FCF9C01BB04200D866BB0D
:10245000C5F3074001280AD120684069A9B20840A5
:10246000A9B2884201D101200BE0002009E02068D8
:102470008069A9B20840A9B2884201D1012000E0D8
:10248000002090B900202063202084F83D00002027
:1024900084F83E00206C40F02000206400BF002043
:1024A00084F83C0000BF0120C8E7FFE7C5F3074000
:1024B00001280AD120684069A9B20840A9B288421F
:1024C00001D101200BE0002009E020688069A9B259
:1024D0000840A9B2884201D1012000E00020002874
:1024E0008BD00020AAE770B504460D46164637E0AB
:1024F00020684069C0F30010A0B16FF0100021689F
:10250000486100202063202084F83D00002084F8EA
:102510003E00206C206400BF002084F83C0000BF17
:10252000012070BDFEF78CF9801BA84200D8BDB910
:1025300020684069C0F3801090B9002020632020FB
:1025400084F83D00002084F83E00206C40F020001C
:10255000206400BF002084F83C0000BF0120E0E7B9
:1025600020684069C0F380100028C1D00020D8E75F
:1025700070B504460D46164625E02046FFF704FDDB
:1025800008B1012070BD681CE8B1FEF759F9801B45
:10259000A84200D8BDB920684069C0F3C01090B906
:1025A00000202063202084F83D00002084F83E00B5
:1025B000206C40F02000206400BF002084F83C0024
:1025C00000BF0120DEE720684069C0F3C01000288A
:1025D000D3D00020D6E7000010B5002003490968D9
:1025E000486300210148FFF7E3FB10BD6C000020A9
:1025F00070B50446201E01DB014600E041428DB269
:10260000002C0BDD00224FF480510D48FEF712F92B
:10261000012251030A48FEF70DF90CE0002C0ADAFA
:10262000012211030648FEF705F900224FF400517C
:102630000348FEF7FFF803480068456370BD0000DB
:10264000000C01406C00002010B50020074909680B
:10265000486300224FF480510548FEF7EBF8002252
:102660004FF400510248FEF7E5F810BD6C00002061
:10267000000C01401CB50021084600F0B7F800200E
:1026800000900190002406E008226946012000F035
:1026900089F8601CC4B2802CF6DB1CBD2DE9F0412A
:1026A00006460F46154600247A06110EF206100E55
:1026B00000F09CF80AE0285D2038134A02EB001174
:1026C0000822012000F06EF8601CC4B2285D0028CA
:1026D000F1D17A00521CD1B2F206100E00F086F849
:1026E00000240CE0285D2038074A02EB001000F1BE
:1026F00008010822012000F055F8601CC4B2285DD2
:102700000028EFD1BDE8F081E432000870B504463E
:102710000D4616466A06110EE206100E00F066F827
:102720000B4800EB46111022012000F03BF86A0034
:10273000521CD1B2E206100E00F058F8044800EB2B
:10274000461000F110011022012000F02BF870BD9E
:10275000043C00081CB5AE208DF800008D208DF8DB
:10276000010014208DF80200C8208DF80300A1207C
:102770008DF8040020208DF8050000208DF806005B
:10278000AF208DF8070007226946002000F00AF804
:10279000FFF770FF01220DF10701002000F002F8A1
:1027A0001CBD0000F8B505460E4614461DB140207C
:1027B0000C49087002E000200A490870002004E07B
:1027C000325C084B411C5A54C8B2A042F8DB4FF4AB
:1027D0007A700090601C83B2024A78210248FEF7AA
:1027E0001DF9F8BDFC000020180000207CB505464E
:1027F0000C4600200090019021208DF803008DF8F8
:1028000004507F208DF8050022208DF800008DF8FF
:10281000014007208DF80200062269460020FFF7DC
:10282000C1FF7CBD00B585B00020019002900390EF
:10283000049000BF3E48806940F010003C49886128
:102840000846806900F01000009000BF00BF00BF84
:102850000846806940F0200088610846806900F0E1
:102860002000009000BF00BF00BF0846806940F014
:10287000080088610846806900F00800009000BFE9
:1028800000BF00BF0846806940F004008861084628
:10289000806900F00400009000BF00BF00224FF4E8
:1028A00040512448FDF7C6FF4FF4405001900120ED
:1028B0000290002003900320049001A91D48FDF719
:1028C00021FE4FF4004001901B480290012003902C
:1028D00001A91A48FDF716FE38200190164802900B
:1028E0000120039001A91348FDF70CFE00220221EC
:1028F0000920FEF76BFC0920FEF758FC002202219C
:102900000A20FEF763FC0A20FEF750FC0022022199
:102910001720FEF75BFC1720FEF748FC002202217F
:102920002820FEF753FC2820FEF740FC05B000BD30
:1029300000100240000C014000002110000801407E
:1029400010B50B480B4908600B4848600021094846
:102950008160C1604FF4804101610021416181616A
:10296000C1610162FDF772FF08B1FDF76CFD10BD9A
:102970000058004018000020A086010000B595B066
:10298000002011901290139014900F9010901C2121
:1029900008A8FDF7D0FB20216846FDF7CCFB2A48AC
:1029A0002A49086047204860002128488160632147
:1029B000C1600021016141618161FFF745F808B103
:1029C000FDF741FD4FF48050119011A91F48FFF70A
:1029D00087F808B1FDF737FD1C48FFF7B5F908B1D6
:1029E000FDF731FD00200F9010900FA91748FEF75A
:1029F000E9FF08B1FDF727FD60200890002009904D
:102A00000A900B900C900D900E90002208A90F4890
:102A1000FFF718F908B1FDF716FD002000900190AE
:102A20000290039004904FF400500590002007900E
:102A300069460648FEF78CFF08B1FDF704FD034820
:102A4000FFF7D4F815B000BD002C01406C00002049
:102A500010B50B480B4908604FF4E1304860002185
:102A600008488160C16001610C21416100218161E0
:102A7000C161FFF707FA08B1FDF7E5FC10BD0000E2
:102A800000380140B400002000BFFEE700BFFEE7B1
:102A90007047000008B508490968C9084FF47A7200
:102AA000B1FBF2F14143009100BF00BF00994A1E03
:102AB00000920029F9D108BD0C000020704710B524
:102AC000FEF704FB10BD00B58FB0282105A8FDF767
:102AD00032FB14216846FDF72EFB0120059000040F
:102AE0000690002007900120099002200C90C1035D
:102AF0000D914FF4E0110E9105A8FEF7DDFC08B131
:102B0000FDF7A1FC0F200090022001900020029010
:102B10004FF4806003900020049002216846FEF785
:102B2000A7FB08B1FDF78FFC0FB000BD7047000098
:102B300010B50268184B984208D0B0F1804F05D00C
:102B4000164B984202D0164B984203D122F07002E5
:102B50004B681A43104B984208D0B0F1804F05D013
:102B60000E4B984202D00E4B984203D122F4407291
:102B7000CB681A4322F080034C6943EA04020260E6
:102B80008B68C3620B688362034B984201D10B6967
:102B900003630123436110BD002C01400004004089
:102BA0000008004030B501F01F05012404FA05F3C8
:102BB000046A9C430462046A01F01F0502FA05F5E9
:102BC0002C43046230BD30B50C46816821F47F414E
:102BD00042EA032525432943816030BD0A468168C6
:102BE00021F0700142F00703194381607047000033
:102BF00030B5026A056A25F00105056243688469FB
:102C000024F0700424F003040D682C4322F0020227
:102C10008D682A430D4DA84206D100BF22F008025C
:102C2000CD682A4322F00402084DA84207D123F4BC
:102C3000807323F400734D692B438D692B434360EC
:102C400084614D684563026230BD0000002C014084
:102C500030B5026A056A25F010050562436884698B
:102C600024F4E04424F440740D6844EA052422F07E
:102C700020028D6842EA05120E4DA84207D100BF1E
:102C800022F08002CD6842EA051222F04002094D8E
:102C9000A84209D123F4806323F400634D6943EA19
:102CA00085038D6943EA8503436084614D688563CC
:102CB000026230BD002C014030B5026A056A25F47D
:102CC000807505624368C46924F0700424F003042D
:102CD0000D682C4322F400728D6842EA05220F4DE4
:102CE000A84207D100BF22F40062CD6842EA052263
:102CF00022F48062094DA84209D123F4805323F4C1
:102D000000534D6943EA05138D6943EA0513436097
:102D1000C4614D68C563026230BD0000002C0140F3
:102D200030B5036A056A25F4805505624468C269B6
:102D300022F4E04222F440720D6842EA052223F4B4
:102D400000538D6843EA0533064DA84204D124F4AC
:102D500080444D6944EA85144460C2614D6805644D
:102D6000036230BD002C014030B50B461446026AA8
:102D7000056A25F001050562816921F0F00141EA4B
:102D8000041122F00A021A438161026230BD30B59B
:102D90000B461446026A056A25F010050562816932
:102DA00021F4704141EA043122F0A00242EA031208
:102DB0008161026230BD000070B504462168096976
:102DC00021F44051E2681143226811612269A1682F
:102DD0001143626941EA02052168C96841F20C6247
:102DE000914329432268D1602168496921F44071E7
:102DF000A2691143226851612D4A2168914202D192
:102E0000FEF712FB01E0FEF7FFFA00EBC00101EB59
:102E1000001162689200B1FBF2F100EBC00202EB1C
:102E2000001263689B00B2FBF3F26423B2FBF3F27F
:102E300002EBC20303EB0212A1EB8201322202EB8E
:102E400001116422B1FBF2F101F0F00100EBC002CC
:102E500002EB001263689B00B2FBF3F26423B2FB47
:102E6000F3F201EB021200EBC00101EB0011636809
:102E70009B00B1FBF3F100EBC00303EB00136668AA
:102E8000B600B3FBF6F36426B3FBF6F303EBC3061D
:102E900006EB0313A1EB8301322303EB011164233F
:102EA000B1FBF3F101F00F0111442268916070BD94
:102EB0000038014000BFFEE70FB4084B10B504A96D
:102EC00002AA039800F038F8044602A9002000F096
:102ED000D4F9204610BC5DF814FB00007B320008DA
:102EE00002480068C0F30220704700000CED00E0CB
:102EF00010B5002804DB0A07130E054A135406E038
:102F00000A07140E034A00F00F031B1FD45410BD10
:102F100000E400E018ED00E002E008C8121F08C15C
:102F2000002AFAD170477047002001E001C1121F4A
:102F3000002AFBD1704700002DE9FF4F8BB0884677
:102F40000546002606E025280BD0DDE90D12904746
:102F50006D1C761C28780028F5D10FB03046BDE8EE
:102F6000F08F0024A146A2460122AE4900E00443AE
:102F700015F8013F203B02FA03F00842F7D1287808
:102F80002A2810D06FF02F022878A0F130010929EB
:102F900015D809EB890102EB410144F0020400EB72
:102FA00001096D1CF0E758F8041B5FEA010903D51D
:102FB00044F40054C9F1000944F002046D1C28785F
:102FC0002E2817D115F8010F44F004042A280ED03A
:102FD0006FF02F022878A0F1300109290AD80AEBF6
:102FE0008A0102EB410100EB010A6D1CF2E758F87F
:102FF00004AB6D1C28786C280FD006DC4C2817D049
:1030000068280DD06A2814D104E0742810D07A28DA
:103010000FD10DE044F400140AE044F4801401E000
:1030200044F440146978814202D104F580146D1C87
:103030006D1C2878692865D006DC00288DD06328AF
:1030400027D0642806D15DE06E2808D073282AD0E6
:10305000752877D0DDE90D129047761CE0E0C4F3C7
:103060000250022809D003280DD0D8F800100428F7
:103070000DD00E6008F10408D2E0D8F80010F21765
:10308000C1E90062F6E7D8F800100E80F2E70E7092
:10309000F0E718F8041B8DF8001000208DF80100EF
:1030A000EB46012003E058F804BB4FF0FF30610706
:1030B0004FF0000701D40AE07F1C57450DDA874224
:1030C000FADB1BF807100029F6D106E07F1C8742C7
:1030D000FCDB1BF807100029F8D1DDE90D23A9EB73
:1030E00007008146214600F0B1F83044C61904E0DB
:1030F000DDE90D121BF8010B90477F1EF8D2214627
:10310000484688E058F8040BC4F302514FF00A0B0C
:10311000032900D100B2042900D140B2002802DA0C
:1031200040422D2102E0210505D52B218DF82410E8
:10313000012104E006E0E10710D02021F6E708AF06
:10314000089113E058F8040BC4F302514FF00A0B36
:10315000032900D180B2042900D1C0B20021EEE7DA
:103160005946FCF7F3FF303107F8011D0028F7D16D
:10317000ADEB070000F1200B600702D524F480348A
:1031800001E04FF0010ADA4502DDAAEB0B0000E096
:103190000020824600EB0B0108980144A9EB0100D6
:1031A0000A90E00306D4DDE90D2321460A9800F0D9
:1031B0004DF806444FF0000908E009A911F809008C
:1031C000DDE90D12904709F10109761C089989453E
:1031D000F3DBE0030CD5DDE90D2321460A9800F06E
:1031E00035F8064404E0DDE90D1230209047761CE6
:1031F000BAF10001AAF1010AF5DC05E0DDE90D12E2
:1032000017F8010B9047761CBBF10001ABF1010BE5
:10321000F4DC0A982146DDE90D2300F005F80644A8
:103220006D1C97E6092801002DE9F04104460025B0
:103230001E461746880404D405E039462020B047CE
:103240006D1C641EF9D52846BDE8F0812DE9F041DA
:10325000044600251E469046C80301D5302700E0ED
:103260002027880404D505E041463846B0476D1C48
:10327000641EF9D52846BDE8F0810A68531C0B602E
:1032800010707047FDF72EFF0120FDF7DFF8FFF704
:103290001AFCFFF7C7FAFFF753FBFFF7D9FBFFF75D
:1032A0006DFBFCF77BFFFDF789F8FFF795F903E06D
:1032B000FCF794FFFDF720F8FAE702030405060780
:1032C00008090A0B0C0D0E0F10100102000000007F
:1032D00000000000010203040607080900000000C6
:1032E00001020304000000000000000000000000D4
:1032F00000000000000000F80000000000000033A3
:103300003000000000100C06100C06000000000049
:103310000000000040C07840C0784000043F040432
:103320003F040400007088FC08300000001820FFF3
:10333000211E0000F008F000E018000000211C032E
:103340001E211E0000F00888700000001E212324AA
:103350001927211010160E000000000000000000C8
:1033600000000000000000E0180402000000000758
:103370001820400000020418E0000000004020185F
:1033800007000000404080F0804040000202010F32
:1033900001020200000000F0000000000101011F16
:1033A00001010100000000000000000080B070007A
:1033B000000000000000000000000000000101010A
:1033C0000101010100000000000000000030300099
:1033D0000000000000000000806018040060180673
:1033E0000100000000E010080810E000000F1020AD
:1033F00020100F00001010F8000000000020203FF7
:103400002020000000700808088870000030282480
:103410002221300000300888884830000018202021
:1034200020110E000000C02010F800000007042446
:10343000243F240000F8088888080800001921208B
:1034400020110E0000E0108888180000000F1120E5
:1034500020110E0000380808C83808000000003F9E
:10346000000000000070880808887000001C2221FD
:1034700021221C0000E010080810E00000003122AA
:1034800022110F00000000C0C0000000000000304A
:10349000300000000000008000000000000080609C
:1034A000000000000000804020100800000102041D
:1034B0000810200040404040404040000404040404
:1034C00004040400000810204080000000201008C0
:1034D00004020100007048080808F00000000030F5
:1034E00036010000C030C828E810E0000718272483
:1034F00023140B000000C038E0000000203C230231
:103500000227382008F8888888700000203F202093
:1035100020110E00C03008080808380007182020C5
:103520002010080008F808080810E000203F2020BC
:1035300020100F0008F88888E8081000203F20209D
:103540002320180008F88888E8081000203F200091
:1035500003000000C03008080838000007182020C9
:10356000221E020008F808000008F808203F210188
:1035700001213F20000808F8080800000020203F33
:103580002020000000000808F8080800C0808080A3
:103590007F00000008F888C028180800203F20019C
:1035A0002638200008F8080000000000203F2020F6
:1035B0002020300008F8F800F8F80800203F003F0D
:1035C000003F200008F830C00008F808203F200025
:1035D00007183F00E01008080810E0000F10202036
:1035E00020100F0008F808080808F000203F21010B
:1035F00001010000E01008080810E0000F18242462
:1036000038504F0008F8888888887000203F2000D4
:10361000030C30200070880808083800003820218A
:1036200021221C00180808F8080818000000203F94
:103630002000000008F808000008F808001F2020FB
:1036400020201F000878880000C8380800000738CC
:103650000E010000F80800F80008F800033C07001D
:10366000073C0300081868808068180820302C0385
:10367000032C30200838C800C83808000000203F5C
:103680002000000010080808C8380800203826214B
:1036900020201800000000FE020202000000007F4F
:1036A00040404000000C30C000000000000000015D
:1036B0000638C00000020202FE0000000040404048
:1036C0007F0000000000040202020400000000006D
:1036D00000000000000000000000000080808080EA
:1036E00080808080000202040000000000000000D2
:1036F000000000000000808080800000001924226B
:1037000022223F2008F8008080000000003F1120A6
:1037100020110E000000008080800000000E1120AB
:1037200020201100000000808088F800000E112089
:1037300020103F200000808080800000001F222297
:1037400022221300008080F0888888180020203F03
:10375000202000000000808080808000006B949416
:103760009493600008F8008080800000203F2100D2
:1037700000203F2000809898000000000020203F9B
:1037800020200000000000809898000000C0808089
:10379000807F000008F8000080808000203F240225
:1037A0002D302000000808F8000000000020203F15
:1037B000202000008080808080808000203F2000CA
:1037C0003F20003F8080008080800000203F21005B
:1037D00000203F200000808080800000001F20200B
:1037E00020201F00808000808000000080FFA1203A
:1037F00020110E000000008080808000000E11204B
:1038000020A0FF80808080008080800020203F21D9
:10381000200001000000808080808000003324248C
:1038200024241900008080E0808000000000001F38
:10383000202000008080000000808000001F2020E9
:1038400020103F20808080000080808000010E30AA
:103850000806010080800080008080800F300C030B
:103860000C300F0000808000808080000020312E0E
:103870000E312000808080000080808080818E70EA
:103880001806010000808080808080000021302C9C
:103890002221300000000000807C020200000000B5
:1038A000003F404000000000FF000000000000005A
:1038B000FF0000000002027C800000000040403F4A
:1038C00000000000000601010202040400000000E4
:1038D00000000000000000000080C0404040800068
:1038E000000000000000F0FE0F01000000000107D2
:1038F000FEF0000000003FFFC0000000000000805C
:10390000FF3F00000000000103060C080808060342
:10391000010000000000000000000080C000000066
:103920000000000000000001010101FFFF00000095
:103930000000000000000000000000FFFF00000089
:10394000000000000000000808080C0F0F0C080819
:103950000800000000000000804040404040C0805F
:103960008000000000001E1900000000000000C1DF
:10397000FF3E000000000000804030180C060301EC
:1039800000C0000000000E0D0C0C0C0C0C0C0C0CFC
:103990000E030000000000808040404040C08000D6
:1039A0000000000000000F0F000000000080C17F39
:1039B0003E0000000000C0C000000101010302063B
:1039C000FCF00000000003070408080808080406CB
:1039D00003000000000000000000000000C0C00064
:1039E00000000000000000008060100C03FFFF00DA
:1039F0000000000000302C262120202020FFFF2086
:103A0000202000000000000000000808080F0F0838
:103A10000808000000000000C0C0C0C0C0C0C0C096
:103A2000C0C00000000000FF008040404040C08057
:103A3000000000000000C0C3010000000000000101
:103A4000FFFC00000000030404080808080804073D
:103A500003000000000000000080804040404080E3
:103A6000800000000000E0FC0781C0404040C083AF
:103A70000300000000007FFF830000000000000141
:103A8000FFFC00000000000107060C0808080C06F7
:103A900003000000000000C0C0C0C0C0C0C0C0C063
:103AA000C0C0000000000E030000000000E0180687
:103AB00001000000000000000000C0FC0300000046
:103AC000000000000000000000000F0F00000000D8
:103AD000000000000000000080C040404040C08066
:103AE0000000000000003E7FF1C0C0800000804167
:103AF0007F1E000000F0FC0E0201010103070E1EF4
:103B0000FCF0000000010306040808080808040689
:103B100003010000000000808040404040408000E1
:103B20000000000000FCFF03000000000000000394
:103B3000FEF80000000103070C080808080406E16D
:103B40007F1F000000000707080808080C06030193
:103B50000000000000000000000000000000000065
:103B600000000000000000000000C0E0E0C0000015
:103B70000000000000000000000000010100000043
:103B800000000000000000000000060F0F0600000B
:103B90000000000000000000000000000000000025
:103BA0000000000000000000000000000000000015
:103BB0000000000000000000000000000000000005
:103BC00000000000000000000000000000000000F5
:103BD000000000000080E0F8FEC7C0000003E37FA3
:103BE0001F070100FE02FBFBFBFB02FEFF80BFBFC5
:103BF000BFBF80FF00F0F8FCFCF8F00006071F3F95
:103C00003F1F07060000FE82929292FE92929282DD
:103C1000FE00000080601F00001E1212121E408075
:103C20007F00000080808080808080808080808015
:103C30008080800000000000000000000000000004
:103C40000000000000000808080808080808080824
:103C5000080000001010101010101010101010109C
:103C600010101000000484848484848484848484F8
:103C7000840400002020202020202020202020203C
:103C80002020200000FC040404FC040404FC0404C0
:103C900004FC0000007F2824232020202021222251
:103CA000227F00000002424242C27E42424242C2A1
:103CB0000202000040404040784740404040407F82
:103CC0004040400020202020202021222C202020A5
:103CD00020202000004020100C03000000010204FE
:103CE00018600000000000FE82828282828282FED2
:103CF00000000000000000FF40404040404040FF06
:103D00000000000000001011161010F01010141325
:103D1000100000008181414121110D030D1121414D
:103D20004181810000040404040404FC040404042C
:103D300004040000202020202020203F20202020DC
:103D40002020200020100CF312125292121212F2B4
:103D50000202000001011F11111115195191513F6B
:103D6000111101000000E0F0F8F8F0E0E0F0F8F8E0
:103D7000F0E000000000000103070F1F1F0F070302
:103D800001000000060909E6F80C04020202020222
:103D9000041E0000000000071F302040404040404B
:103DA00020100000000404F49494949F949494F4DC
:103DB000040400004040407F4A4A4A4A4A4A4A7F37
:103DC000404040001060028C004464544D4644540E
:103DD00064C4040004047E0180403E0000FE000034
:103DE0007E80E00000020CC000F80848484808FF48
:103DF00008098A0002027F80403F001E925E201761
:103E00003846F100404042CC0004F49494FF94946E
:103E1000F40400000040201F20484442415F41421A
:103E2000444840000000F888888888FF888888888F
:103E3000F800000000001F080808087F88888888AC
:103E40009F80F0001010D0FF901000FE020202FED2
:103E500000000000040300FF0083601F0000003F1B
:103E600040407800080808F8080800F2121AD61234
:103E700012F202001030100F0808804F20180710AF
:103E8000204F80000000FE22222222222222222213
:103E9000FE0000000000FF424242424242424242D3
:103EA000FF000000C43E00080000002018000000D1
:103EB000182F0008DC3E0008180000200005000054
:103EC000282F000800000000100000000100000082
:0C3ED0000024F4000100000000000000CD
:04000005080000ED02
:00000001FF
