:020000040800F2
:100000009808002005010008413F0008F33000086F
:100010003D3F0008E50900089D470008000000007A
:10002000000000000000000000000000713F000818
:10003000E909000800000000453F0008733F000880
:100040001F0100081F0100081F0100081F01000810
:100050001F0100081F0100081F0100081F01000800
:100060001F010008490A0008530A00081F01000880
:100070001F0100081F0100081F0100081F010008E0
:100080001F0100081F0100081F0100081F010008D0
:100090001F0100081F0100081F0100085D0A000879
:1000A0001F0100081F0100081F0100081F010008B0
:1000B000E53F0008F53F00081D4000081F0100084B
:1000C0001F0100081F0100081F0100081F01000890
:1000D0001F0100081F010008594700081F01000800
:1000E0003D0A00081F0100081F010008DFF810D0BA
:1000F00000F00AFB004800477D590008AFF300807C
:10010000980800200648804706480047FEE7FEE7BB
:10011000FEE7FEE7FEE7FEE7FEE7FEE7FEE7FEE7B7
:10012000E13F0008ED000008202A04DB203A21FA14
:1001300002F00021704721FA02F3D040C2F1200200
:10014000914008431946704740EA01039B0703D0DA
:1001500009E008C9121F08C0042AFAD203E011F806
:10016000013B00F8013B521EF9D27047D2B201E0C8
:1001700000F8012B491EFBD270470022F6E710B5AC
:1001800013460A4604461946FFF7F0FF204610BD05
:10019000F0B480EA0102D40F4200B2EB410F02D268
:1001A0000246084611464A0042D0C30DDDB2C1F3F3
:1001B000C752AD1A202D35DAC1F3160141F4000201
:1001C00004B15242C5F1200602FA06F12A41104458
:1001D000B3EBD05F23D0C4B1012DA0EBC35009DC39
:1001E000F0BC4FF0004202EAC352DBB200F500005F
:1001F00000F0FEB9400000F1807000EBC350A0F1A8
:10020000807040EAD170490009E0490841EAC071B4
:10021000A0EBC35000F50000400800EBC350F0BC59
:1002200000F0DDB96142012202EB4101001BF6E75B
:10023000F0BC704781F00041AAE780F00040A7E7DA
:1002400080EA010210B502F00043400022D04A00CB
:100250001FD0010E01EB1261C0F35600C2F356022B
:1002600040F4000042F40002A0FB022000047F39A9
:10027000140400D0401C50EA124001D44000491E32
:10028000C2B20C0604EBD010401C4008802A02D0F9
:1002900003E0002010BD20F00100002900DA00205A
:1002A000184310BD2DE9FE4F81EA030404F0004419
:1002B00021F0004100944FF0000B23F0004350EA7E
:1002C00001045ED052EA03045BD0C3F30A54C1F3C5
:1002D0000A552C44A4F2F3340194A0FB0254C1F358
:1002E000130141F48011C3F3130343F4801301FBA2
:1002F000024400FB034E840A970A44EA815447EA09
:100300008357A4FB076802958D0A05FB07854FEA12
:10031000932C04FB0C542705029D4FEA065847EA2C
:100320001637B5EB08056EEB070C870E920E47EA01
:10033000811742EA8312A7FB0201B6EB0B0164EBC3
:1003400000042B0D43EA0C335E1844EB1C50DA46D4
:100350005146E7FB0201C5F313044FEA0B3343EAAE
:1003600014534FEA0432019C43EA0603A4F10C043F
:100370000294009CCDE900B400F077F903B0BDE829
:10038000F08F00200146F9E72DE9F04D81EA0304E2
:1003900004F0004B21F0004514464FF0000A23F012
:1003A000004150EA050220D054EA01021DD0C5F3F5
:1003B0000A570246C5F31303C1F31300C1F30A56EB
:1003C00040F4801543F48013A7EB0608101BD646B3
:1003D00008F2FD3873EB050002D308F1010801E0D3
:1003E00092185B41B8F1000F03DA00200146BDE826
:1003F000F08D00204FF48011064684460EE0171B56
:1004000073EB050705D3121B63EB050306434CEAA8
:10041000010C49084FEA300092185B4150EA01078D
:10042000EDD152EA030012D082EA040083EA05010A
:10043000084305D0101BAB4106D20122002306E081
:1004400000224FF0004302E06FF0010253101AEB5C
:1004500006004CEB085110EB0A0041EB0B01BDE824
:10046000F04D00F0F3B8C10F80EAE0700844CA070D
:100470009623002100F0BCB80EB5C10F80EAE070F1
:100480000844CA07002140F233438DE80E000A46B3
:100490000B4600F0EAF803B000BD00F0004220F087
:1004A0000040C10DC0F3160040F400007F2901DABE
:1004B00000207047962903DCC1F19601C84001E095
:1004C00096398840002AF4D04042704720F000401E
:1004D000C10DC0F3160040F400007F2901DA0020AE
:1004E0007047962903DCC1F19601C84070479639E0
:1004F0008840704700F0004230F000400AD0C10D43
:1005000001F56071C0F3160042EA0151C2084007CC
:100510001143704700200146704701F0004330B49A
:1005200021F0004150EA010206D00A0DA2F56072E6
:10053000C1F31301002A02DC30BC00207047440FD5
:1005400044EAC104C100E01830BC00EBC25000F026
:1005500046B80000002801DBC0F10040002901DBA3
:10056000C1F1004181427047002801DBC0F1004029
:10057000002901DBC1F10041884270472DE9F05F9D
:100580000546002092469B46884606468146402402
:100590001BE02846414647462246FFF7C5FD534625
:1005A0005A46C01A914110D311461846224600F00F
:1005B000BDF82D1A67EB01084F46224601200021A5
:1005C00000F0B4F817EB00094E41201EA4F101041D
:1005D000DFDC484631462A464346BDE8F09F002905
:1005E000A8BF7047401C490008BF20F001007047B9
:1005F00010B4B0FA80FC00FA0CF050EA010404BF19
:1006000010BC704749B1CCF1200421FA04F411FA6E
:100610000CF118BF012121430843A3EB0C01CB1DB2
:100620004FEA00614FEA102042BF002010BC704723
:1006300000EBC35010440029A4BF10BC7047401CFD
:10064000490008BF20F0010010BC704710B5141E0F
:1006500073F1000408DA401C41F1000192185B417B
:100660001A4301D120F0010010BD2DE9F04D924652
:100670009B4611B1B1FA81F202E0B0FA80F2203269
:10068000904600F053F804460F4640EA0A0041EA5B
:100690000B0153465A46084313D0114653EA010052
:1006A00019D0C8F140025046FFF73EFD05460E4600
:1006B00050465946424600F039F8084305D001201B
:1006C00004E020463946BDE8F08D0020054346EAA7
:1006D000E0762C4337430A986305E40AA0EB080050
:1006E0000022FD0A44EA47540A3002D500200146A0
:1006F000E9E7010510196941DDE90845001969417B
:10070000BDE8F04DA2E70000064C074D06E0E068AA
:1007100040F0010394E8070098471034AC42F6D348
:10072000FFF7E8FCA46D0008C46D0008202A04DB74
:10073000203A00FA02F1002070479140C2F12003F4
:1007400020FA03F319439040704770B58C1810F8E5
:10075000015B15F0070301D110F8013B2A1106D106
:1007600010F8012B03E010F8016B01F8016B5B1E20
:10077000F9D12B0705D40023521E0DD401F8013BFB
:10078000FAE710F8013BCB1A921C03E013F8015B67
:1007900001F8015B521EF9D5A142D8D3002070BDEB
:1007A00008B501226946002000F036F99DF80000E6
:1007B00044280CD04420009001226946002000F01B
:1007C00015F901220549104600F010F904E0012254
:1007D0000249104600F020F908BD0000100000207A
:1007E00010B54148007804280FD100203E49087018
:1007F0003E490978481C00EBD0714910A0EB41013B
:100800003A4A117003F0B8F86CE0384800780028D4
:100810003ED135480078012804D0022815D003289D
:100820002CD125E00020304908703149C868314991
:10083000FFF7AEFC2E49C860C8682F49FFF794FE49
:1008400002D82D482A49C86019E0002026490870BE
:100850002749C8682749FFF7EDFC2549C860C868E3
:100860002649FFF777FE02D824482149C86006E0F0
:1008700000201D4908701E49C86000E000BF00BF8D
:100880001B49C868FFF709FE60BB03F057F829E071
:1008900016480078012825D113480078012804D093
:1008A00002280BD003281BD111E000200E4908704C
:1008B00013480078401C1249087012E000200A49D1
:1008C00008700F480078401E0D49087009E00020AC
:1008D0000549087001220A49104600F087F800E037
:1008E00000BF00BF10BD0000380000201100002034
:1008F00014000020000070410000F0420000F0C22F
:10090000100000201FB5002000900190029003907D
:100910002748007800282CD1002409E004F10D01BB
:10092000CAB26106080E002103F072F8601CC4B25E
:10093000082CF3DB1F49C868FFF7AFFD04462246C9
:100940001DA1684603F03CFF6A460121042003F024
:1009500027F818490869FFF7A0FD0446224619A1A7
:10096000684603F02DFF6A460221042003F018F8C0
:100970001CE00F480078012818D1002409E004F198
:100980000D01CAB26106080E002103F041F8601C97
:10099000C4B2082CF3DB0E4802780EA1684603F0BF
:1009A0000FFF6A460121052002F0FAFF1FBD00007B
:1009B00011000020140000205365743A252D346482
:1009C0000000000053706565643A252D3464000012
:1009D0001000002049443A253033640010B503F07C
:1009E0003BF810BD00BFFEE770470000FEB50446AF
:1009F0000D4616464FF47A7001232246A021CDE918
:100A000000560290034800F007FE052000F0B2F8FF
:100A1000FEBD000030010020FEB504460D4616461E
:100A20004FF47A7001232246A121CDE900560290AD
:100A3000014800F03FFCFEBD3001002010B54FF42E
:100A4000004000F0E5F810BD10B5082000F0E0F817
:100A500010BD10B5102000F0DBF810BD10B520203F
:100A600000F0D6F810BD72B600BFFEE701460022C6
:100A700091F82100022808D00420886300BF0020DC
:100A800081F8200000BF012070470868006820F04E
:100A90000E000B6818600868006820F001000B6801
:100AA000186091F8403001209840CB6B58600120CD
:100AB00081F8210000BF002081F8200000BF10460F
:100AC000E2E7000070B50446002594F821000228F2
:100AD00003D00420A063012548E02068006820F0CE
:100AE0000E00216808602068006820F0010021687D
:100AF00008601F492068884201D1012026E01C4976
:100B000014312068884201D110201FE01849283193
:100B10002068884201D1801518E015493C312068D1
:100B2000884201D1801411E0114950312068884277
:100B300002D14FF4803009E00D49643120688842C9
:100B400002D14FF4801001E04FF08070084908395D
:100B50004860012084F8210000BF002084F82000B4
:100B600000BF606B10B12046616B8847284670BD9E
:100B70000800024070B5044600F0F6F90646254626
:100B8000681C10B104480078054400BF00F0ECF97F
:100B9000801BA842FAD370BD0800002010B504469F
:100BA000B4F5004F05D0082C03D0102C01D0202C18
:100BB00026D10F20FFF7DEFF4FF40041114800F06F
:100BC000C5F918B901201049087019E008210F482B
:100BD00000F0BCF918B902200B49087010E0102190
:100BE0000A4800F0B3F918B903200749087007E074
:100BF0002021064800F0AAF910B904200249087023
:100C000010BD00000008014038000020000C014029
:100C100010B5044604480068204020B10248046032
:100C20002046FFF7BBFF10BD140401402DE9F84733
:100C30000346002294466EE14FF0010808FA02F4E0
:100C4000D1F8008008EA0400A0427DD1DFF8DCA2E0
:100C5000D1F80480A8EB0A09D0453AD014DCB8F1E9
:100C6000030F50D009DCB8F1000F31D0B8F1010FFB
:100C70001CD0B8F1020F49D120E0B8F1110F18D003
:100C8000B8F1120F42D11EE0B9F5881F25D006DC5D
:100C9000B9F5803F20D0B9F5801F37D11AE0B9F5FA
:100CA000001F18D0B9F5041F30D117E0D1F80CC0DF
:100CB0002DE0D1F80C8008F1040C28E0D1F80C806C
:100CC00008F1080C23E0D1F80C8008F10C0C1EE0B0
:100CD00000BF00BF00BF00BF00BF00BFD1F8088049
:100CE000B8F1000F02D14FF0040C0BE0D1F80880EE
:100CF000B8F1010F03D14FF0080C1C6102E04FF076
:100D0000080C5C6103E04FF0000C00E000BF00BF86
:100D1000FF2801D8984601E003F104084646FF2861
:100D200002D84FEA820803E0A2F108084FEA8808D7
:100D30004746D6F800804FF00F0909FA07F928EA6C
:100D400009080CFA07F900E088E048EA0908C6F843
:100D50000080D1F8048008F08058B8F1805F7DD120
:100D600000BFDFF8CC81D8F8188048F00108DFF820
:100D7000C091C9F81880C846D8F8188008F0010852
:100D8000CDF8008000BF00BF4FEAB9384FEA9209A2
:100D900058F829504FEA82784FEA18794FF00F0837
:100DA00008FA09F825EA0805DFF88881434502D1E9
:100DB0004FF0000816E0DFF88081434502D14FF084
:100DC00001080FE0DFF87481434502D14FF00208BB
:100DD00008E0DFF86C81434502D14FF0030801E0E1
:100DE0004FF004084FEA82794FEA197908FA09F8B6
:100DF00048EA0505DFF84C814FEA920948F8295086
:100E0000D1F8048008F48018B8F5801F0AD1DFF803
:100E10003881D8F8008048EA0008DFF82C91C9F83A
:100E2000008009E0DFF82081D8F8008028EA000877
:100E3000DFF81491C9F80080D1F8048008F4001894
:100E4000B8F5001F10D1DFF8008108F10408D8F8C8
:100E5000008048EA0008DFF8F09000E05AE009F16D
:100E60000409C9F800800DE0DFF8DC8008F104080F
:100E7000D8F8008028EA0008DFF8CC9009F10409CE
:100E8000C9F80080D1F8048008F40038B8F5003FB4
:100E90000ED1DFF8B480A8F10408D8F8008048EA41
:100EA0000008DFF8A490A9F10409C9F800800DE05A
:100EB000DFF89480A8F10408D8F8008028EA000838
:100EC000DFF88490A9F10409C9F80080D1F8048002
:100ED00008F48038B8F5803F0ED1DFF86C80A8F1B7
:100EE0000808D8F8008048EA0008DFF85C90A9F10B
:100EF0000809C9F800800DE0DFF84C80A8F1080867
:100F0000D8F8008028EA0008DFF83C90A9F1080929
:100F1000C9F80080521CD1F8008028FA02F8B8F114
:100F2000000F7FF489AEBDE8F887000000001110C3
:100F30000010024000080140000C01400010014078
:100F40000014014008000140080401400246936873
:100F50000B400BB1012000E0002070470AB1016195
:100F600001E00B040361704701480068704700000E
:100F70000000002070B504460CB9012070BD94F843
:100F80003D0028B9002084F83C00204600F0F6FB24
:100F9000242084F83D002068006820F001002168CA
:100FA00008602068006840F40040216808602068FC
:100FB000006820F400402168086000F0B9FD054693
:100FC0005C496068884206D85B48854201D20120AE
:100FD00007E0002005E05948854201D2012000E0E9
:100FE0000020012800D1C9E75548B5FBF0F620687C
:100FF000406820F03F003043216848604D496068F8
:10100000884201D8701C07E04FF4967070434FF48B
:101010007A71B0FBF1F0401C2168096A21F03F01B0
:1010200008432168086243496068884214D8681EF2
:1010300061684900B0FBF1F0401CC0F30B000428CC
:1010400001D204203DE0681E61684900B0FBF1F068
:10105000401CC0F30B0034E0A06838B9681E61681A
:1010600001EB4101B0FBF1F0401C0AE0681E616831
:1010700001EBC10202EB0111B0FBF1F0401C40F4A6
:101080008040C0F30B0008B901201AE0A06848B9FD
:10109000681E616801EB4101B0FBF1F0401CC0F338
:1010A0000B000CE0681E616801EBC10202EB01114C
:1010B000B0FBF1F0401CC0F30B0040F4804040F462
:1010C00000402168C9694CF6FF72914308432168CA
:1010D000C861D4E9070108432168096821F0C0010B
:1010E000084321680860D4E903100843216889682F
:1010F00048F2FF329143084321688860D4E9050132
:1011000008432168C96821F0FF0108432168C860CD
:101110002068006840F00100216808600020206419
:10112000202084F83D000020206384F83E0000BFAA
:1011300024E70000A086010080841E0000093D0015
:1011400040420F002DE9F8430446894616461F46E3
:10115000DDF82080FFF708FF054694F83D002028C1
:101160007ED11923012251492046009502F095F9BC
:1011700010B10220BDE8F88300BF94F83C000128BC
:1011800001D10220F6E7012084F83C0000BF20686E
:10119000006800F0010028B92068006840F00100F4
:1011A000216808602068006820F4006021680860F9
:1011B000212084F83D00102084F83E0000202064A7
:1011C00066626785608D20853948E0622B4642461D
:1011D0004946204601F0AEFF08B10120CAE700BF32
:1011E000002000902068406900902068806900908D
:1011F00000BF00BF44E02A464146204602F06EFA96
:1012000050B1206C042805D12068006840F40070BB
:10121000216808600120ADE7606A007821680861F4
:10122000606A401C6062608D401E6085208D401E9B
:10123000208520684069C0F3800070B1208D60B1C6
:10124000606A007821680861606A401C6062608D95
:10125000401E6085208D401E20852A46414600E0C4
:1012600022E0204602F0E6F850B1206C042805D1B7
:101270002068006840F4007021680860012079E768
:10128000208D0028B7D12068006840F400702168E4
:101290000860202084F83D00002084F83E0000BF54
:1012A00084F83C0000BF65E7022063E702001000FD
:1012B0000000FFFF2DE9FE4F04460F469046994679
:1012C000DDE90CAB0E9E00200290FFF74DFE0546B7
:1012D00094F83D00202872D119230122CA492046E2
:1012E000009502F0DAF810B10220BDE8FE8F00BFD1
:1012F00094F83C00012801D10220F6E7012084F88F
:101300003C0000BF2068006800F0010028B9206898
:10131000006840F00100216808602068006820F43F
:10132000006021680860222084F83D00402084F895
:101330003E0000202064C4F824A0A4F82AB0608DE8
:101340002085B248E0624B46424639462046CDE908
:10135000006501F04FFF08B10120C6E7208D88B974
:1013600000BF0020019020684069019020688069DA
:10137000019000BF00BF2068006840F40070216841
:1013800008604BE0208D01281AD12068006820F405
:1013900080602168086072B600BF0020019020685C
:1013A0004069019020688069019000BF00BF2068FB
:1013B000006840F400702168086062B62EE020E109
:1013C000208D022819D12068006840F4006021684F
:1013D000086072B600BF002001902068406901904B
:1013E00020688069019000BF00BF2068006820F479
:1013F00080602168086062B610E02068006840F4F0
:1014000080602168086000BF00200190206840696A
:10141000019020688069019000BF00BFE2E0208D4C
:1014200003287DD8208D012815D12A463146204633
:1014300002F00FF908B1012057E720680069616ADE
:101440000870606A401C6062208D401E2085608D9F
:10145000401E6085C6E0208D02282CD13346002234
:101460006B492046009502F018F808B101203CE7CE
:1014700072B62068006840F4007021680860206837
:101480000069616A0870606A401C6062208D401EBD
:101490002085608D401E608562B620680069616AA3
:1014A0000870606A401C6062208D401E2085608D3F
:1014B000401E608596E0334600225549204600953F
:1014C00001F0EBFF08B101200FE72068006820F46D
:1014D00080602168086072B620680069616A0870DF
:1014E000606A401C6062208D401E2085608D401E19
:1014F0006085484800681921B0FBF1F04FF47A711B
:10150000B0FBF1F0C0EBC00000EB8000029000BF28
:101510000298401E02900298A8B90020206300E0C3
:1015200039E0202084F83D00002084F83E00206C43
:1015300040F02000206462B600BF002084F83C0028
:1015400000BF0120D1E620684069C0F38000002878
:10155000DED02068006840F40070216808602068D0
:101560000069616A0870606A401C6062208D401EDC
:101570002085608D401E608562B620680069616AC2
:101580000870606A401C6062208D401E2085608D5E
:10159000401E608526E02A463146204602F059F872
:1015A00008B10120A1E620680069616A0870606ADC
:1015B000401C6062208D401E2085608D401E60852D
:1015C00020684069C0F3800060B120680069616AEA
:1015D0000870606A401C6062208D401E2085608D0E
:1015E000401E6085208D00287FF419AF202084F8EC
:1015F0003D00002084F83E0000BF84F83C0000BF9E
:1016000073E6022071E60000020010000000FFFFF8
:10161000040001000C0000202DE9FC5F04460F4689
:1016200090469946DDE90CAB0E9EFFF79DFC054602
:1016300094F83D0020287DD1192301224D492046F0
:10164000009501F02AFF10B10220BDE8FC9F00BF09
:1016500094F83C00012801D10220F6E7012084F82B
:101660003C0000BF2068006800F0010028B9206835
:10167000006840F00100216808602068006820F4DC
:10168000006021680860212084F83D00402084F833
:101690003E0000202064C4F824A0A4F82AB0608D85
:1016A00020853548E0624B46424639462046CDE922
:1016B000006501F04FFE08B10120C6E731E02A467F
:1016C0003146204602F00AF850B1206C042805D1BA
:1016D0002068006840F40070216808600120B4E7C9
:1016E000606A007821680861606A401C6062208D31
:1016F000401E2085608D401E608520684069C0F3D3
:10170000800070B1208D60B1606A00782168086146
:10171000606A401C6062208D401E2085608D401EE6
:101720006085208D0028CAD12A463146204601F026
:1017300081FE00E01CE050B1206C042805D1206837
:10174000006840F400702168086001207DE720688F
:10175000006840F4007021680860202084F83D0093
:10176000002084F83E0000BF84F83C0000BF6CE716
:1017700002206AE7020010000000FFFF10B586B0EB
:1017800004460020029003900490059016492068BA
:10179000884226D100BF1548806940F008001349EF
:1017A00088610846806900F00800019000BF00BF12
:1017B0004FF440600290122003900320059002A98C
:1017C0000B48FFF733FA00BF0848C06940F48000B7
:1017D0000649C8610846C06900F48000019000BF56
:1017E00000BF06B010BD00000058004000100240CD
:1017F000000C014003480068034909780844014986
:1018000008607047000000200800002010B508485C
:10181000006840F0100006490860032000F0A8F8B6
:10182000002000F007F800F02BF8002010BD0000A9
:101830000020024070B504460E4800784FF47A71DB
:10184000B1FBF0F00C490968B1FBF0F5284600F057
:10185000F9FB08B1012070BD102C07D200222146EF
:10186000501E00F047F80548046001E00120F2E74F
:101870000020F0E7080000200C00002004000020F9
:1018800008B500BF1148806940F001000F49886128
:101890000846806900F00100009000BF00BF00BF53
:1018A0000846C06940F08050C8610846C06900F031
:1018B0008050009000BF00BF00BF0549486820F07D
:1018C000E06040F00070486000BF08BD00100240BA
:1018D0000000014001460846002809DB00F01F0314
:1018E00001229A4043099B0003F1E023C3F8002141
:1018F00000BF70472DE9F05F80460D461646002771
:1019000002F072FF074639462A46334601F00700C7
:10191000C0F1070ABAF1040F02D94FF0040A01E03E
:10192000C0F1070AD14600F1040ABAF1070F02D24A
:101930004FF0000A01E0A0F1030AD4464FF0010A7B
:101940000AFA09FAAAF1010A0AEA020A0AFA0CFAE0
:101950004FF0010B0BFA0CFBABF1010B0BEA030B85
:101960004AEA0B042146404602F046FFBDE8F09FDC
:1019700000BF00F00702064B19684FF6FF0319403D
:10198000044B0B4343EA0221014B196000BF70472F
:101990000CED00E00000FA0570B504460D460CB9E8
:1019A000012070BD5A48006800F00700A8420ED21E
:1019B0005748006820F0070028435549086008464A
:1019C000006800F00700A84201D00120E9E7207874
:1019D00000F0020002281DD1207800F00400042845
:1019E00005D14C48406840F4E0604A49486020789E
:1019F00000F00800082805D14648406840F46050CF
:101A0000444948604348406820F0F000A16808431A
:101A100040494860207800F0010078B360680128F0
:101A200006D13C48006800F4003090B90120B8E7C6
:101A30006068022806D13748006800F0007040B99D
:101A40000120AEE73348006800F0020008B9012029
:101A5000A7E73048406820F00300616808432D493B
:101A60004860FFF781FA064609E0FFF77DFA801B20
:101A700041F28831884202D9032092E707E02548E5
:101A8000406800F00C006168B0EB810FEDD1204898
:101A9000006800F00700A8420ED91D48006820F039
:101AA000070028431A4908600846006800F007004C
:101AB000A84201D0012074E7207800F00400042837
:101AC00007D11448406820F4E060E16808431149F8
:101AD0004860207800F00800082808D10D484068C8
:101AE00020F46050216940EAC1000A49486000F0D2
:101AF0003FF808494968C1F30311074A515CC840DF
:101B00000649086006480068FFF794FE002048E791
:101B10000020024000100240CA5F00080C000020B4
:101B20000400002001480068704700000C000020FD
:101B300000B5FFF7F7FF04494968C1F30221034AE2
:101B4000515CC84000BD000000100240DA5F000890
:101B500000B5FFF7E7FF04494968C1F3C221034A12
:101B6000515CC84000BD000000100240DA5F000870
:101B700070B500210022002400230020134D696865
:101B800001F00C05F5B1042D02D0082D19D101E0AA
:101B90000F4819E00F4DC1F38346AB5D01F480356A
:101BA00055B10A4D6D68C5F340450B4E725D084D49
:101BB0005D43B5FBF2F402E0084D03FB05F420465B
:101BC00002E000BF024800BF00BF70BD001002402D
:101BD00000127A00B85F0008C85F000800093D00E5
:101BE000F8B504460CB90120F8BD207800F00100DA
:101BF000002878D0F848406800F00C0004280CD089
:101C0000F548406800F00C00082811D1F2484068FF
:101C100000F48030B0F5803F0AD1EF48006800F44E
:101C2000003000285FD0606800285CD10120DBE72D
:101C300000BF6068B0F5803F06D1E748006840F417
:101C40008030E549086028E0606858B9E2480068DB
:101C500020F48030E04908600846006820F48020C5
:101C600008601AE06068B0F5A02F0BD1DA48006870
:101C700040F48020D84908600846006840F480306D
:101C800008600AE0D448006820F48030D249086037
:101C90000846006820F48020086000BF606888B1B2
:101CA000FFF762F9054606E0FFF75EF9401B64287E
:101CB00001D9032098E7C848006800F400300028E4
:101CC000F2D010E0FFF750F9054606E0FFF74CF9B7
:101CD000401B642801D9032086E7BF48006800F450
:101CE00000300028F2D1207800F00200022857D1FD
:101CF000B948406800F00C0050B1B748406800F0A7
:101D00000C00082818D1B448406800F4803098B915
:101D1000B148006800F0020020B12069012801D01C
:101D2000012061E7AC48006820F0F800616940EAF2
:101D3000C100A949086033E02069E8B10120A74942
:101D40000860FFF711F9054606E0FFF70DF9401BA3
:101D5000022801D9032047E79F48006800F00200ED
:101D60000028F2D09C48006820F0F800616940EA41
:101D7000C1009949086013E0002098490860FFF706
:101D8000F3F8054606E0FFF7EFF8401B022801D9FB
:101D9000032029E79048006800F002000028F2D1F3
:101DA000207800F0080008282DD1A069B8B10120E2
:101DB0008B490860FFF7D8F8054606E0FFF7D4F82E
:101DC000401B022801D903200EE78348406A00F037
:101DD00002000028F2D0012002F0B6F813E0002043
:101DE0007F490860FFF7C0F8054606E0FFF7BCF83A
:101DF000401B022801D90320F6E67748406A00F02C
:101E000002000028F2D1207800F00400042873D1E9
:101E100000277148C06900F0805070B900BF6E485B
:101E2000C06940F080506C49C8610846C06900F044
:101E30008050009000BF00BF01276A48006800F48E
:101E40008070B0B96748006840F4807065490860E8
:101E5000FFF78AF8054606E0FFF786F8401B64287E
:101E600001D90320C0E65F48006800F480700028B4
:101E7000F2D000BFE068012806D15748006A40F060
:101E800001005549086227E0E06858B95248006AE5
:101E900020F00100504908620846006A20F0040062
:101EA000086219E0E06805280BD14B48006A40F051
:101EB0000400494908620846006A40F001000862CF
:101EC0000AE04548006A20F00100434908620846DC
:101ED000006A20F00400086200BFE068A0B1FFF7CC
:101EE00043F8054609E0FFF73FF8401B41F288310F
:101EF000884202D9032077E622E03748006A00F0E2
:101F000002000028EFD012E0FFF72EF8054608E0A7
:101F1000FFF72AF8401B41F28831884201D903209B
:101F200062E62D48006A00F002000028F0D1012F7F
:101F300005D12948C06920F080502749C86100BFF9
:101F4000E069C8B32448406800F00C00082860D05D
:101F5000E069022848D1002020490866FFF704F80C
:101F6000054606E0FFF700F8401B022801D90320D0
:101F70003AE61948006800F000700028F2D1206AA3
:101F8000B0F5803F07D11448406820F40030A168C4
:101F9000084311494860D4E9080108430E494968DB
:101FA00021F4741108430C49486001200B4908666C
:101FB000FEF7DAFF054607E03DE0FEF7D5FF401BE0
:101FC000022801D903200FE60348006800F00070E2
:101FD0000028F2D02FE00000001002400000424232
:101FE0008004424200700040002014490866FEF759
:101FF000BBFF054606E0FEF7B7FF401B022801D9EC
:102000000320F1E50E48006800F000700028F2D1CE
:1020100011E0E069012800D1E6E50948466806F4C8
:102020008031206A814204D106F47011606A8142D5
:1020300001D00120D8E50020D6E500000000424292
:102040000010024070B504462546681EB0F1807F3E
:1020500001D301200FE0681E4FF0E02148610F21FD
:102060004FF0FF3002F0C8FB00204FF0E021886104
:1020700007200861002070BD7047704710B5034607
:10208000002200BF93F83C00012801D1022010BDBE
:10209000012083F83C0000BF22F0FF00CC6840EA3A
:1020A000040222F440708C6840EA040222F480604A
:1020B0004C6840EA040222F400600C6840EA040222
:1020C00022F480500C6940EA040222F400504C696A
:1020D00040EA040222F48040CC6940EA0402186815
:1020E000426400BF002083F83C0000BF00BFCEE781
:1020F00030B502460B4600BF92F83C00012801D1E2
:10210000022030BD012082F83C0000BF022082F88E
:102110003D00106844681068816824F070041868F5
:10212000044310684460104D1068A8420BD010683A
:10213000B0F1804F07D00D4D1068A84203D00C4D70
:102140001068A84205D121F0800158680143106849
:102150008160012082F83D0000BF002082F83C0031
:1021600000BF00BFCDE70000002C0140000400408C
:102170000008004010B504460CB9012010BD94F8C9
:102180003D0028B9002084F83C00204600F026F8E5
:10219000022084F83D00211D206801F047FF012046
:1021A00084F8460000BF84F83E0001213F2001551D
:1021B000402001554120015500BF00BF012084F897
:1021C000420043200155442001554520015500BFE0
:1021D000012084F83D000020D0E7000010B586B053
:1021E0000446002002900390049005903C4920682A
:1021F00088420DD100BF3B48806940F400603949F6
:1022000088610846806900F40060019000BF65E0C5
:102210002068B0F1804F16D100BF3248C06940F04D
:1022200001003049C8610846C06900F00100019012
:1022300000BF00BF002202211C20FFF75BFB1C2017
:10224000FFF748FB4AE028492068884216D100BFC2
:102250002448C06940F002002249C8610846C069AC
:1022600000F00200019000BF00BF002211461D20B7
:10227000FFF740FB1D20FFF72DFB2FE01B492068D7
:1022800088422BD100BF1748C06940F004001549AF
:10229000C8610846C06900F00400019000BF00BF9B
:1022A00000BF0846806940F00800886108468069E0
:1022B00000F00800019000BF00BF40200290002005
:1022C0000390049002A90A48FEF7B0FC0022022104
:1022D0001E20FFF70FFB1E20FFF7FCFA06B010BD13
:1022E000002C0140001002400004004000080040A3
:1022F000000C0140014691F83D00012801D0012069
:102300007047022081F83D000868C06840F0010075
:102310000B68D860124B086898420BD00868B0F17F
:10232000804F07D00F4B0868984203D00E4B0868C7
:1023300098420CD10868806800F00702062A0CD089
:102340000868006840F001000B68186005E0086844
:10235000006840F001000B6818600020D0E7000022
:10236000002C0140000400400008004001460868BD
:10237000C06820F001000A68D06000BF0868006AE9
:1023800041F21112104050B90868006A92101040D2
:1023900028B90868006820F001000A68106000BFD2
:1023A000012081F83D00002070472DE9F0410446EE
:1023B0000D46002700BF94F83C00012802D10220FE
:1023C000BDE8F081012084F83C0000BF022084F8C1
:1023D0003D002068866826F0770626F47F46206850
:1023E00086602868502833D00CDC202850D004DCCC
:1023F00000284BD0102851D149E0302849D040283E
:102400004CD139E060282DD0702807D0B0F5805F1E
:1024100003D0B0F5005F41D10DE041E0D5E90213F2
:102420006A68206801F04DFE2068866846F07706ED
:102430002068866034E0D5E902136A68206801F0FC
:1024400040FE2068806840F480402168886027E072
:10245000EA686968206801F005FF5021206801F0F2
:102460003BFE1DE0EA686968206801F043FF6021D7
:10247000206801F031FE13E0EA686968206801F025
:10248000F1FE4021206801F027FE09E000BF00BFF7
:1024900000BF2968206801F01FFE01E0012700BF8E
:1024A00000BF012084F83D0000BF002084F83C00FC
:1024B00000BF384684E70000044A0168914203D116
:1024C0000021034A12685162704700000008004072
:1024D0005C0200202DE9F04104460D461646002717
:1024E00000BF94F83C00012802D10220BDE8F08131
:1024F000012084F83C0000BF96B9EB68D5E90012D2
:10250000206801F0C3FE2068806920F00C0021687B
:10251000886120688069A96808432168886141E072
:10252000042E13D1EB68D5E90012206801F0F6FE05
:102530002068806920F44060216888612068806993
:10254000A96840EA0120216888612BE0082E12D199
:10255000EB68D5E90012206801F0FDFE2068C06933
:1025600020F00C002168C8612068C069A968084390
:102570002168C86116E00C2E13D1EB68D5E9001272
:10258000206801F004FF2068C06920F440602168E1
:10259000C8612068C069A96840EA01202168C86153
:1025A00000E0012700BF002084F83C0000BF38464F
:1025B0009CE710B504460CB9012010BD94F83D000D
:1025C00028B9002084F83C00204600F025F80220BD
:1025D00084F83D00211D206801F028FD012084F8C9
:1025E000460000BF84F83E0001213F2001554020F5
:1025F00001554120015500BF00BF012084F8420071
:1026000043200155442001554520015500BF0120BC
:1026100084F83D000020D0E7704700002DE9F0432A
:1026200004460D46002615B994F83E000BE0042D33
:1026300002D13F20005D06E0082D02D14020005D60
:1026400001E04120005D804615B994F842000BE09E
:10265000042D02D14320005D06E0082D02D1442064
:10266000005D01E04520005D8146B8F1010F02D117
:10267000B9F1010F02D00120BDE8F0831DB902209D
:1026800084F83E000EE0042D03D102213F200155C5
:1026900008E0082D03D102214020015502E002216B
:1026A000412001551DB9022084F842000EE0042D9E
:1026B00003D102214320015508E0082D03D1022156
:1026C0004420015502E002214520015535B1042D79
:1026D0000BD0082D10D00C2D1CD114E02068C06840
:1026E00040F002002168C86016E02068C06840F031
:1026F00004002168C8600FE02068C06840F008004E
:102700002168C86008E02068C06840F010002168B7
:10271000C86001E0012600BF00BF06BB01222946B8
:10272000206801F0BDFC1249206888420BD0206867
:10273000B0F1804F07D00F492068884203D00E497E
:10274000206888420CD12068806800F00707062FB7
:102750000CD02068006840F001002168086005E0A6
:102760002068006840F0010021680860304683E777
:10277000002C0140000400400008004010B5044651
:1027800020680069C0F34000D8B12068C068C0F379
:102790004000B0B16FF0020021680861012020778D
:1027A0002068806900F0030018B12046FFF784FE1E
:1027B00005E0204600F0DAF8204600F08EF900200F
:1027C000207720680069C0F38000D8B12068C06815
:1027D000C0F38000B0B16FF00400216808610220EE
:1027E00020772068806900F4407018B12046FFF718
:1027F00063FE05E0204600F0B9F8204600F06DF9D0
:102800000020207720680069C0F3C000D8B120689C
:10281000C068C0F3C000B0B16FF008002168086163
:10282000042020772068C06900F0030018B120461A
:10283000FFF742FE05E0204600F098F8204600F041
:102840004CF90020207720680069C0F30010D8B14F
:102850002068C068C0F30010B0B16FF010002168AC
:102860000861082020772068C06900F4407018B122
:102870002046FFF721FE05E0204600F077F82046CD
:1028800000F02BF9002020772068006900F001009B
:1028900058B12068C06800F0010030B16FF001004D
:1028A00021680861204600F083F920680069C0F3C0
:1028B000C01058B12068C068C0F3C01030B16FF0CC
:1028C0008000216808612046FFF7D6FB2068006978
:1028D000C0F3801058B12068C068C0F3801030B1D8
:1028E0006FF0400021680861204600F075F920680B
:1028F0000069C0F3401058B12068C068C0F34010B0
:1029000030B16FF02000216808612046FFF7B5FB69
:1029100010BD000010B586B0044600200290039060
:10292000049005900E492068884216D100BF0D48DA
:10293000806940F004000B4988610846806900F016
:102940000400019000BF00BF881502900220039090
:10295000059002A90448FEF769F906B010BD000011
:10296000002C0140001002400008014070472DE992
:10297000F04104460D461646002700BF94F83C007F
:10298000012802D10220BDE8F081012084F83C003A
:1029900000BF36B1042E1BD0082E31D00C2E5ED1D4
:1029A00045E02946206801F0A1FB2068806940F0DD
:1029B0000800216888612068806920F0040021688F
:1029C000886120688069296908432168886148E036
:1029D0002946206801F0BAFB2068806940F4006055
:1029E000216888612068806920F48060216888619E
:1029F00020688069296940EA01202168886130E007
:102A00002946206801F0D6FB2068C06940F0080024
:102A10002168C8612068C06920F004002168C8618D
:102A20002068C069296908432168C86119E02946FE
:102A3000206801F0F3FB2068C06940F40060216861
:102A4000C8612068C06920F480602168C86120687E
:102A5000C069296940EA01202168C86101E00127B5
:102A600000BF00BF00BF002084F83C0000BF384614
:102A700089E710B504460CB9012010BD94F83D005B
:102A800028B9002084F83C00204600F025F80220F8
:102A900084F83D00211D206801F0C8FA012084F867
:102AA000460000BF84F83E0001213F200155402030
:102AB00001554120015500BF00BF012084F84200AC
:102AC00043200155442001554520015500BF0120F8
:102AD00084F83D000020D0E77047704770B5044689
:102AE0000D4615B994F83E000BE0042D02D13F20AD
:102AF000005D06E0082D02D14020005D01E041208C
:102B0000005D012801D0012070BD1DB9022084F8AC
:102B10003E000EE0042D03D102213F20015508E0C4
:102B2000082D03D102214020015502E0022141205D
:102B3000015501222946206801F0B2FA194920689E
:102B4000884201D1012000E0002028B12068406CBB
:102B500040F40040216848641249206888420BD044
:102B60002068B0F1804F07D00F492068884203D019
:102B70000E49206888420CD12068806800F0070662
:102B8000062E0CD02068006840F001002168086023
:102B900005E02068006840F001002168086000201E
:102BA000B2E70000002C0140000400400008004093
:102BB00010B504462068B0F1804F0AD10549C868B5
:102BC000FDF76BFC28B100F023FE00F0BBFD00F028
:102BD00083FE10BD1400002070477047704700004E
:102BE0002DE9F84F0446206805682068C66820680B
:102BF00047694FF00009CA4605F00F09B9F1000F07
:102C00000AD105F0200038B106F0200020B120469E
:102C100001F02BFCBDE8F88FB9F1000F7BD007F075
:102C2000010018B906F49070002874D005F0010076
:102C300030B106F4807018B1606C40F0010060643F
:102C400005F0040030B107F0010018B1606C40F0ED
:102C50000200606405F0020030B107F0010018B115
:102C6000606C40F00400606405F0080048B106F0B4
:102C7000200010B907F0010018B1606C40F00800A6
:102C80006064606C002845D005F0200028B106F093
:102C9000200010B1204601F0E8FB20684069C0F335
:102CA000801A606C00F0080010B9BAF1000F2CD047
:102CB000204601F094FB2068406900F0400000B31A
:102CC00000BF00BF2168143151E8001F21F040000F
:102CD0002168143141E80002002AF3D100BFE06B03
:102CE00050B17748E16B4863E06BFDF7EBFE88B1CC
:102CF000E06B416B88470DE02046FFF76FFF09E06E
:102D000009E02046FFF76AFF04E02046FFF766FF70
:102D1000002060647EE7206B012877D105F0100069
:102D2000002873D006F010000028FAD000BF002061
:102D3000009020680068009020684068009000BF04
:102D400000BF2068406900F0400000285FD0E06BC1
:102D5000006840681FFA80F8B8F1000F55D0A08DC8
:102D6000404552DDA4F82E80E06B8069202843D0D6
:102D700000BF00BF21680C3151E8001F21F48070B2
:102D800021680C3141E80002002AF3D100BF00BFE6
:102D900000BF2168143151E8001F21F001002168B3
:102DA000143141E80002002AF3D100BF00BF00BF88
:102DB0002168143151E8001F21F0400021681431CE
:102DC00041E80002002AF3D100BF202084F842002D
:102DD0000020206300BF00BF21680C3151E8001FB4
:102DE00021F0100021680C3141E80002002AF3D1E3
:102DF00000BFE06BFDF73AFE02206063A08DE28D1C
:102E0000801A81B22046FFF7E8FE03E742E0A08D7A
:102E1000E18D401A1FFA80F8E08DD0B3B8F1000FB1
:102E200037D000BF00BF21680C3151E8001F21F4EA
:102E3000907021680C3141E80002002AF3D100BFF4
:102E400000BF00BF2168143151E8001F21F00100CC
:102E50002168143141E80002002AF3D100BF20208C
:102E600084F842000020206300BF00BF21680C31BD
:102E700051E8001F21F0100021680C3141E80002E8
:102E8000002AF3D100BF0220606341462046FFF7CD
:102E9000A4FEBFE605F0800030B106F0800018B156
:102EA000204601F0DFFBB5E605F0400030B106F04A
:102EB000400018B1204601F0C8FAABE600BFA9E611
:102EC000CB43000810B504460CB9012010BDA06921
:102ED00000B100E000BF94F8410028B9002084F858
:102EE0004000204600F02AF8242084F841002068A1
:102EF000C06820F400502168C860204601F034FB0F
:102F00002068006920F490402168086120684069C9
:102F100020F02A00216848612068C06840F4005011
:102F20002168C86000206064202084F8410084F893
:102F300042000020606300BFC8E7000010B586B003
:102F400004460020029003900490059037492068C1
:102F500088422FD100BF3648806940F48040344910
:102F600088610846806900F48040019000BF00BF7E
:102F700000BF0846806940F0040088610846806907
:102F800000F00400019000BF00BF4815029002202D
:102F900003900320059002A92648FDF747FE4FF451
:102FA0008060029000200390049002A92148FDF760
:102FB0003DFE39E020492068884235D100BF1C48D9
:102FC000C06940F400301A49C8610846C06900F47D
:102FD0000030019000BF00BF00BF0846806940F08C
:102FE000040088610846806900F00400019000BF79
:102FF00000BF04200290022003900320059002A944
:103000000C48FDF713FE0820029000200390049066
:1030100002A90848FDF70AFE002211462620FEF705
:1030200069FC2620FEF756FC06B010BD00380140B2
:1030300000100240000801400044004070472DE9A4
:10304000F84F04460E46174699464FF0000A94F88A
:10305000410020284AD106B117B90120BDE8F88FF8
:1030600000206064212084F84100FDF77DFF824646
:10307000A784E784A068B0F5805F04D1206910B907
:103080000025B04602E035464FF000081BE05346ED
:10309000002280212046CDF8009001F013FB08B1FA
:1030A0000320DBE745B9B8F80000C0F30800216849
:1030B000486008F1020803E02878216848606D1C28
:1030C000E08C401EE084E08C0028E0D153460022D2
:1030D00040212046CDF8009001F0F4FA08B1032019
:1030E000BCE7202084F841000020B7E70220B5E7C4
:1030F000704700BFFEE7014608684069C0F38020C2
:10310000B0B16FF480600A6850610020086320202D
:1031100081F83D00002081F83E00086C40F004007A
:10312000086400BF002081F83C0000BF0120704708
:103130000020FCE72DE9F84304460D461746984663
:10314000E66A082E04D0012E02D016F5803F06D183
:103150002068006840F480702168086008E0206BF7
:10316000122805D12068006840F48070216808604A
:103170003B4600224FF001112046CDF8008000F0C0
:103180008CF960B12068006800F48070B0F5807F31
:1031900002D14FF4007020640320BDE8F883206959
:1031A000B0F5804F04D105F0FE002168086112E0FF
:1031B00005F44070F02141EAE010216808614346BF
:1031C0003A460B49204600F0C7F908B10120E4E770
:1031D000E8B22168086143463A460549891F2046FE
:1031E00000F0BAF908B10120D7E70020D5E70000C8
:1031F000080001002DE9F84304460F46154699469C
:10320000DDE908862068006840F480602168086075
:103210002068006840F480702168086043460022FE
:103220004FF001112046009600F037F960B1206898
:10323000006800F48070B0F5807F02D14FF4007018
:1032400020640320BDE8F88307F0FE0021680861D0
:10325000334642463E49204600F07EF908B101203F
:10326000F0E700BF002000902068406900902068CF
:103270008069009000BF00BF32464146204600F002
:103280002DFA50B1206C042805D12068006840F464
:103290000070216808600120D4E7B9F1010F03D163
:1032A000E8B22168086117E0C5F3072021680861CA
:1032B00032464146204600F011FA50B1206C0428F5
:1032C00005D12068006840F4007021680860012082
:1032D000B8E7E8B22168086132464146204600F06E
:1032E000FDF950B1206C042805D12068006840F435
:1032F0000070216808600120A4E72068006840F49D
:10330000807021680860434600224FF0011120467A
:10331000009600F0C2F858B12068006800F4807090
:10332000B0F5807F02D14FF400702064032089E75C
:10333000F8B240F001002168086133464246044972
:10334000204600F009F908B101207BE7002079E769
:10335000020001002DE9F8430446884615469946C7
:10336000DDE908672068006840F480702168086023
:10337000334600224FF001112046009700F08DF8EF
:1033800060B12068006800F48070B0F5807F02D1E1
:103390004FF4007020640320BDE8F88308F0FE00BD
:1033A000216808613B4632462149204600F0D4F8A6
:1033B00008B10120F0E700BF0020009020684069BC
:1033C000009020688069009000BF00BF3A463146F7
:1033D000204600F083F950B1206C042805D1206804
:1033E000006840F40070216808600120D4E7B9F15A
:1033F000010F03D1E8B22168086117E0C5F3072087
:10340000216808613A463146204600F067F950B11C
:10341000206C042805D12068006840F40070216801
:1034200008600120B8E7E8B2216808610020B3E72E
:103430000200010070B504460D46164625E0204600
:10344000FFF759FE08B1012070BD681CE8B1FDF717
:103450008BFD801BA84200D8BDB920684069C0F32D
:10346000800090B900202063202084F83D000020D7
:1034700084F83E00206C40F02000206400BF002053
:1034800084F83C0000BF0120DEE720684069C0F3FB
:1034900080000028D3D00020D6E72DE9F041044673
:1034A0000D4617461E46DDF8188038E0701CA8B39C
:1034B000FDF75AFDA0EB0800B04200D876BBC5F37B
:1034C000074001280AD120684069A9B20840A9B282
:1034D000884201D101200BE0002009E020688069CA
:1034E000A9B20840A9B2884201D1012000E0002021
:1034F000B84214D100202063202084F83D00002031
:1035000084F83E00206C40F02000206400BF0020C2
:1035100084F83C0000BF0120BDE8F081FFE7C5F35F
:10352000074001280AD120684069A9B20840A9B221
:10353000884201D101200BE0002009E02068806969
:10354000A9B20840A9B2884201D1012000E00020C0
:10355000B842ABD00020DFE72DE9F04104460D462C
:1035600016461F4658E020684069C0F38020E8B145
:103570002068006840F40070216808606FF4806083
:103580002168486100202063202084F83D0000204D
:1035900084F83E00206C40F00400206400BF00204E
:1035A00084F83C0000BF0120BDE8F081701C90B39E
:1035B000FDF7DAFCC01BB04200D866BBC5F307407C
:1035C00001280AD120684069A9B20840A9B28842FE
:1035D00001D101200BE0002009E020688069A9B238
:1035E0000840A9B2884201D1012000E0002090B932
:1035F00000202063202084F83D00002084F83E0055
:10360000206C40F02000206400BF002084F83C00C3
:1036100000BF0120C8E7FFE7C5F3074001280AD132
:1036200020684069A9B20840A9B2884201D10120AE
:103630000BE0002009E020688069A9B20840A9B227
:10364000884201D1012000E0002000288BD000201A
:10365000AAE770B504460D46164637E02068406973
:10366000C0F30010A0B16FF0100021684861002085
:103670002063202084F83D00002084F83E00206C68
:10368000206400BF002084F83C0000BF012070BD12
:10369000FDF76AFC801BA84200D8BDB920684069CC
:1036A000C0F3801090B900202063202084F83D00F2
:1036B000002084F83E00206C40F02000206400BF11
:1036C000002084F83C0000BF0120E0E7206840694A
:1036D000C0F380100028C1D00020D8E770B50446A0
:1036E0000D46164625E02046FFF705FD08B10120EE
:1036F00070BD681CE8B1FDF737FC801BA84200D8FC
:10370000BDB920684069C0F3C01090B900202063A3
:10371000202084F83D00002084F83E00206C40F01A
:103720002000206400BF002084F83C0000BF01207E
:10373000DEE720684069C0F3C0100028D3D0002025
:10374000D6E700002DE9F0472F49C868FCF7A5FE31
:10375000041E01DB214600E061420846FCF783FEBF
:10376000054629490869FCF798FE041E01DB21463D
:1037700000E061420846FCF776FE064631462846E0
:10378000FCF758FD204948610A4691695069FCF7E9
:1037900051FD07461C4A5169D069FCF7F9FC1A49EA
:1037A000C86188683946FCF74BFD8046164AD169E6
:1037B0005068FCF745FD8146134A51691068FCF7D3
:1037C0003FFD82464946FCF7E3FC04464146FCF7D0
:1037D000DFFC0D490862086A0C49FCF7C5FE03D8F6
:1037E0000A480949086208E00749086A0021FCF70D
:1037F000B1FE02D80020044908620348406902492A
:103800008861BDE8F0870000140000200000C84275
:103810002DE9F05F1E49C868FCF73FFE18B900208B
:103820001B49086132E01B480068D0F834A00AEB5D
:103830004A0101EBCA00FCF71FFE8046164A174BEF
:10384000FCF730FD06460022154BFCF79DFD0446B3
:10385000FCF763FE83465846FCF74CFE06463246AC
:103860000B4600200F49FCF78FFD0446FCF755FE80
:1038700007490861C8680021FCF76CFE05D20448BE
:10388000006980F000400249086100BFBDE8F09F78
:10389000140000205C020020CDCCCCCCCC4C3540B8
:1038A00080842E4100004E4010B500200749096871
:1038B000486300210548FFF711F90548FEF71AFD96
:1038C00000210448FEF7AAFE10BD0000840100207C
:1038D000CC0100205C02002010B51549C868FCF737
:1038E000DCFD00280BDD00224FF480511148FDF76C
:1038F00035FB012251030F48FDF730FB10E00C4966
:10390000C868FCF7CAFD00280ADA01221103094839
:10391000FDF724FB00224FF400510648FDF71EFB83
:103920000349086AFCF7D2FD03490968486310BDE2
:1039300014000020000C01408401002010B500207C
:103940000A490861C86148618861086208490968D4
:10395000486300224FF480510648FDF7FFFA002229
:103960004FF400510348FDF7F9FA10BD1400002090
:1039700084010020000C01401CB50021084600F025
:10398000B7F8002000900190002406E00822694664
:10399000012000F089F8601CC4B2802CF6DB1CBD4D
:1039A0002DE9F04106460F46154600247A06110E11
:1039B000F206100E00F09CF80AE0285D2038134A49
:1039C00002EB00110822012000F06EF8601CC4B266
:1039D000285D0028F1D17A00521CD1B2F206100EF7
:1039E00000F086F800240CE0285D2038074A02EB3E
:1039F000001000F108010822012000F055F8601CB9
:103A0000C4B2285D0028EFD1BDE8F081E25F000874
:103A100070B504460D4616466A06110EE206100EF3
:103A200000F066F80B4800EB46111022012000F070
:103A30003BF86A00521CD1B2E206100E00F058F8B2
:103A4000044800EB461000F110011022012000F0A4
:103A50002BF870BD026900081CB5AE208DF800007F
:103A60008D208DF8010014208DF80200C8208DF8FB
:103A70000300A1208DF8040020208DF8050000200F
:103A80008DF80600AF208DF8070007226946002058
:103A900000F00AF8FFF770FF01220DF10701002086
:103AA00000F002F81CBD0000F8B505460E461446AD
:103AB0001DB140200C49087002E000200A4908703E
:103AC000002004E0325C084B411C5A54C8B2A042AA
:103AD000F8DB4FF47A700090601C83B2024A7821C0
:103AE0000248FDF72FFBF8BD340300203001002011
:103AF0007CB505460C4600200090019021208DF8F1
:103B000003008DF804507F208DF8050022208DF8E9
:103B100000008DF8014007208DF80200062269465A
:103B20000020FFF7C1FF7CBD00B585B000200190EB
:103B300002900390049000BF3E48806940F010005E
:103B40003C4988610846806900F01000009000BF81
:103B500000BF00BF0846806940F020008861084629
:103B6000806900F02000009000BF00BF00BF084641
:103B7000806940F0040088610846806900F0040014
:103B8000009000BF00BF00BF0846806940F00800F9
:103B900088610846806900F00800009000BF00BFFF
:103BA00000224FF440512448FDF7D8F94FF440501B
:103BB000019001200290002003900320049001A9AD
:103BC0001D48FDF733F84FF4004001901B48029068
:103BD0000120039001A91A48FDF728F83820019028
:103BE000164802900120039001A91348FDF71EF822
:103BF000002201210920FDF77DFE0920FDF76AFE64
:103C0000002201210A20FDF775FE0A20FDF762FE61
:103C1000002201211720FDF76DFE1720FDF75AFE47
:103C2000002201212820FDF765FE2820FDF752FE25
:103C300005B000BD00100240000C01400000211042
:103C40000008014010B50B480B4908600B4848605C
:103C5000002109488160C1604FF480410161002169
:103C600041618161C1610162FDF784F908B1FCF72E
:103C7000FAFE10BD0058004030010020A08601006F
:103C800000B595B0002011901290139014900F90F1
:103C900010901C2108A8FCF770FA20216846FCF758
:103CA0006CFA2A482A4908604720486000212848C1
:103CB00081606321C1600021016141618161FEF782
:103CC00059FA08B1FCF7CFFE4FF48050119011A9BA
:103CD0001F48FEF76AFB08B1FCF7C5FE1C48FEF75B
:103CE000C8FE08B1FCF7BFFE00200F9010900FA98E
:103CF0001748FEF7FDF908B1FCF7B5FE6020089003
:103D0000002009900A900B900C900D900E900022CC
:103D100008A90F48FEF72BFE08B1FCF7A4FE00200F
:103D2000009001900290039004904FF40050059091
:103D30000020079069460648FEF7A0F908B1FCF795
:103D400092FE0348FEF7E6FD15B000BD002C0140D1
:103D50008401002000B587B00020039004900590F6
:103D60000690019002904FF080401449086041F69F
:103D70001F40486000211148816040F2F311C1608A
:103D8000002101618161FEF7F5F908B1FCF76BFED6
:103D90004FF48050039003A90848FEF706FB08B1D2
:103DA000FCF761FE00200190029001A90348FEF794
:103DB0009FF908B1FCF757FE07B000BDCC01002009
:103DC00000B587B000200390049005900690019004
:103DD000029014481449086040F60F6048600021C2
:103DE000114881602221C160002101618161FEF7DB
:103DF000C1F908B1FCF737FE4FF48050039003A9D6
:103E00000948FEF7D2FA08B1FCF72DFE0020019018
:103E1000029001A90448FEF76BF908B1FCF723FEF4
:103E200007B000BD000400401402002000B58BB0B4
:103E300000200790089009900A9005900690019044
:103E40000290039004901F481F4908604720486073
:103E500000211D4881604FF6FF71C16000210161A2
:103E60008161FEF787F908B1FCF7FDFD4FF4805042
:103E7000079007A91448FEF798FA08B1FCF7F3FD7C
:103E80001148FEF796FB08B1FCF7EDFD0020059008
:103E9000069005A90C48FEF72BF908B1FCF7E3FDE5
:103EA0000020019001200290002003900490002245
:103EB00001A90548FEF70EFB08B1FCF7D4FD0BB0D5
:103EC00000BD0000000800405C02002010B50B4857
:103ED0000B4908604FF4E1304860002108488160D8
:103EE000C16001610C21416100218161C161FEF766
:103EF000E9FF08B1FCF7B7FD10BD00000038014034
:103F0000A402002010B50B480B4908604FF4E130C3
:103F10004860002108488160C16001610C21416155
:103F200000218161C161FEF7CDFF08B1FCF79BFD67
:103F300010BD000000440040EC02002000BFFEE77E
:103F400000BFFEE77047000008B508490968C908C6
:103F50004FF47A72B1FBF2F14143009100BF00BF10
:103F600000994A1E00920029F9D108BD0C000020DA
:103F7000704710B5FDF73EFC10BD00B58FB028218D
:103F800005A8FCF7FAF814216846FCF7F6F80120BA
:103F9000059000040690002007900120099002205F
:103FA0000C90C1030D914FF4E0110E9105A8FDF79F
:103FB00017FE08B1FCF757FD0F200090022001907A
:103FC000002002904FF480600390002004900221B2
:103FD0006846FDF7E1FC08B1FCF745FD0FB000BDF8
:103FE0007047000010B50248FEF7C8FB10BD000086
:103FF000CC01002010B508480068006900F00100FD
:1040000030B16FF0010004490968086101F068FDF2
:104010000148FEF7B3FB10BD1402002010B50248A2
:10402000FEF7ACFB10BD00005C02002010B502687A
:10403000184B984208D0B0F1804F05D0164B9842EB
:1040400002D0164B984203D122F070024B681A43FB
:10405000104B984208D0B0F1804F05D00E4B9842DB
:1040600002D00E4B984203D122F44072CB681A431F
:1040700022F080034C6943EA040202608B68C36249
:104080000B688362034B984201D10B6903630123E0
:10409000436110BD002C01400004004000080040B6
:1040A00030B501F01F05012404FA05F3046A9C43AE
:1040B0000462046A01F01F0502FA05F52C4304624C
:1040C00030BD30B50C46816821F47F4142EA0325BA
:1040D00025432943816030BD0A46816821F0700183
:1040E00042F00703194381607047000030B5026A4F
:1040F000056A25F0010505624368846924F07004AF
:1041000024F003040D682C4322F002028D682A4338
:104110000D4DA84206D100BF22F00802CD682A4307
:1041200022F00402084DA84207D123F4807323F43F
:1041300000734D692B438D692B43436084614D6847
:104140004563026230BD0000002C014030B5026AB8
:10415000056A25F0100505624368846924F4E0448B
:1041600024F440740D6844EA052422F020028D688E
:1041700042EA05120E4DA84207D100BF22F080028C
:10418000CD6842EA051222F04002094DA84209D149
:1041900023F4806323F400634D6943EA85038D694A
:1041A00043EA8503436084614D688563026230BDE4
:1041B000002C014030B5026A056A25F4807505625D
:1041C0004368C46924F0700424F003040D682C4390
:1041D00022F400728D6842EA05220F4DA84207D1F1
:1041E00000BF22F40062CD6842EA052222F4806218
:1041F000094DA84209D123F4805323F400534D699B
:1042000043EA05138D6943EA05134360C4614D68B1
:10421000C563026230BD0000002C014030B5036A66
:10422000056A25F4805505624468C26922F4E042BB
:1042300022F440720D6842EA052223F400538D688F
:1042400043EA0533064DA84204D124F480444D6965
:1042500044EA85144460C2614D680564036230BD60
:10426000002C014030B50B461446026A056A25F061
:1042700001050562816921F0F00141EA041122F093
:104280000A021A438161026230BD000070B50C461B
:104290001546026A066A26F0010606628169124E18
:1042A000B04208D0B0F1804F05D0104EB04202D0DD
:1042B0000F4EB04201D1012600E000261EB121F0D0
:1042C0000301294301E041F0010121F0F001F02652
:1042D00006EA0316314322F00A0204F00A063243CA
:1042E0008161026270BD0000002C014000040040AA
:1042F0000008004030B50B461446026A056A25F0F6
:1043000010050562816921F4704141EA043122F00F
:10431000A00242EA03128161026230BD70B50C4610
:104320001546026A066A26F010060662816921F4C3
:10433000407141EA052121F470414FF4704606EACC
:104340000336314322F0A002A02606EA04163243C7
:104350008161026270BD70B50C461546026A066A3C
:1043600026F480760662C16921F00301294321F019
:10437000F001F02606EA0316314322F400724FF4EE
:10438000007606EA04263243C161026270BD70B550
:104390000C461546026A066A26F480560662C16912
:1043A00021F4407141EA052121F470414FF4704637
:1043B00006EA0336314322F400524FF4005606EA6F
:1043C00004363243C161026270BD70B505466C6A45
:1043D0000020E085E0842046FEF700FC70BD00BFB1
:1043E00000BF02680C3252E8002F22F4907102687C
:1043F0000C3242E80013002BF3D100BF00BF00BF16
:104400000268143252E8002F22F0010102681432CF
:1044100042E80013002BF3D100BF016B01290ED13C
:1044200000BF00BF02680C3252E8002F22F01001DA
:1044300002680C3242E80013002BF3D100BF2021A8
:1044400080F8421000210163704710B504462068CF
:10445000C06820F040002168C860202084F8410036
:104460002046FEF745FE002010BDF8B5044694F83E
:104470004200222875D1A068B0F5805F0CD1206978
:1044800050B90025A66A20684068C0F30800308053
:10449000A06A801CA06215E0A56A0026A068B0F59D
:1044A000805F03D0A06828B9206918B920684068E7
:1044B000287004E02068406800F07F002870A06A3F
:1044C000401CA062E08D401E80B2E085002846D1ED
:1044D0002068C06820F020002168C8602068C0689B
:1044E00020F480702168C8602068406920F00100D5
:1044F00021684861202084F8420000206063206B1E
:10450000012826D10020206300BF00BF21680C31A4
:1045100051E8001F21F0100021680C3141E8000231
:10452000002AF3D100BF2068006800F010001028B6
:104530000AD100BF00200090206800680090206829
:104540004068009000BF00BFA18D2046FEF745FBEC
:1045500002E02046FEF772FD0020F8BD01E00020D9
:10456000FBE70220F9E7000070B5044621680969FD
:1045700021F44051E2681143226811612269A16867
:104580001143626941EA02052168C96841F20C627F
:10459000914329432268D1602168496921F440711F
:1045A000A2691143226851612D4A2168914202D1CA
:1045B000FDF7CEFA01E0FDF7BBFA00EBC00101EB1D
:1045C000001162689200B1FBF2F100EBC00202EB55
:1045D000001263689B00B2FBF3F26423B2FBF3F2B8
:1045E00002EBC20303EB0212A1EB8201322202EBC7
:1045F00001116422B1FBF2F101F0F00100EBC00205
:1046000002EB001263689B00B2FBF3F26423B2FB7F
:10461000F3F201EB021200EBC00101EB0011636841
:104620009B00B1FBF3F100EBC00303EB00136668E2
:10463000B600B3FBF6F36426B3FBF6F303EBC30655
:1046400006EB0313A1EB8301322303EB0111642377
:10465000B1FBF3F101F00F0111442268916070BDCC
:1046600000380140014691F84100212828D188688E
:10467000B0F5805F0BD1086948B90A6A1088C0F3A9
:1046800008000B685860086A801C086205E00B6A25
:10469000581C086218780B685860C88C401E80B29D
:1046A000C88458B90868C06820F080000B68D860DA
:1046B0000868C06840F040000B68D8600020704770
:1046C0000220FCE72DE9F04104460D4617469846C6
:1046D000069E34E0701C88B32EB1FCF745FCA0EBBD
:1046E0000800B0422BD900BF00BF21680C3151E84F
:1046F000001F21F4D07021680C3141E80002002A2B
:10470000F3D100BF00BF00BF2168143151E8001F82
:1047100021F001002168143141E80002002AF3D1A0
:1047200000BF202084F8410084F8420000BF002030
:1047300084F8400000BF0320BDE8F081FFE7206857
:1047400000682840A84201D1012000E00020B842C2
:10475000C0D00020F0E7000010B50F4800680068E6
:10476000C0F3401030B16FF020000B4909680860B9
:1047700001F0BEF9084800680068C0F3C01030B10D
:104780006FF0800004490968086001F0B9F9024837
:10479000FEF726FA10BD0000EC02002000BFFEE785
:1047A0000FB4054B10B503A9044A029800F048F86D
:1047B00010BC5DF814FB0000615900082C010020BA
:1047C0000FB4084B10B504A902AA039800F038F8FA
:1047D000044602A9002000F05EFA204610BC5DF8F5
:1047E00014FB0000974C000802480068C0F3022048
:1047F000704700000CED00E010B5002804DB0A074C
:10480000130E054A135406E00A07140E034A00F07B
:104810000F031B1FD45410BD00E400E018ED00E0AE
:1048200002E008C8121F08C1002AFAD17047704779
:10483000002001E001C1121F002AFBD170470000D7
:104840002DE9FF4F8DB00F460546002606E02528CE
:104850000BD0DDE90F1290476D1C761C28780028DC
:10486000F5D111B03046BDE8F08F0024A246A14634
:104870000122E94900E0044315F8013F203B02FA18
:1048800003F00842F7D128782A2810D06FF02F02C1
:104890002878A0F13001092914D80AEB8A0102EB2B
:1048A000410144F0020400EB010A6D1CF0E701CF66
:1048B0005FEA000A03D544F40054CAF1000A44F048
:1048C00002046D1C28782E2817D115F8010F44F02A
:1048D00004042A280ED06FF02F022878A0F13001AE
:1048E00009290AD809EB890102EB410100EB010912
:1048F0006D1CF2E757F8049B6D1C28786C280FD0CC
:1049000006DC4C2817D068280DD06A2814D104E0A2
:10491000742810D07A280FD10DE044F400140AE076
:1049200044F4801401E044F440146978814202D1D7
:1049300004F580146D1C6D1C28786E281ED00CDCCC
:10494000632830D004DC00288BD0582811D19FE098
:10495000642867D069280CD164E073282DD004DC6A
:104960006F2872D0702804D194E075286ED0782812
:104970006DD0DDE90F129047761C4BE1C4F3025075
:10498000022806D0032809D0042801CF09D00660E8
:1049900040E101CFF117C0E900613BE101CF0680A2
:1049A00038E1067036E117F8040B8DF8000000209E
:1049B0008DF80100EB46012003E057F804BB4FF0EF
:1049C000FF3061074FF0000102D40DE008F1010152
:1049D000884649450FDA8045F8DB1BF808100029A6
:1049E000F4D108E008F1010188468142FADB1BF8A6
:1049F00008100029F6D1DDE90F23AAEB0800814653
:104A0000214600F031F9304400EB080604E0DDE90E
:104A10000F121BF8010B9047B8F10108F7D221469D
:104A20004846F2E00A21C4F302524FF0000B08910D
:104A3000022A04D001CFC117032A09D00AE0FF1DC2
:104A400027F00707F7E8020108E02CE01EE01FE06E
:104A500000B2C117042A01D140B2C117021E71F180
:104A6000000206DA0023D0EB030063EB01012D22E4
:104A700002E0220504D52B228DF82420012203E038
:104A8000E20701D02022F7E7904653E00A210BE02D
:104A9000102109E010214FF0000B44F004044FF006
:104AA0000809089103E008214FF0000B0891C4F3B6
:104AB0000252022A04D001CF0021032A06D006E0C8
:104AC000FF1D27F00707F7E8020103E080B2042A80
:104AD00000D1C0B24FF0000822072BD52A78702AE7
:104AE00007D0DDF820C08CF0100C5CEA0B0C05D070
:104AF0000EE040228DF82420012208E050EA010354
:104B000006D030238DF824308DF8252002229046DF
:104B1000089B83F0080353EA0B030BD150EA010210
:104B200001D1620706D530228DF824204FF001080C
:104B3000A9F101092A78582A04D038A20B9208AAB0
:104B40000A920BE03AA2F9E75B46089AFBF716FDDA
:104B50000B9B9B5C0A9A521E0A92137050EA010248
:104B6000F2D10A98ADEB000000F1200B600702D5EE
:104B700024F4803401E04FF00109D94502DDA9EBAE
:104B80000B0000E0002000EB0B0141440890AAEB71
:104B9000010AE00306D4DDE90F232146504600F068
:104BA00063F806444FF0000908E009A911F809006C
:104BB000DDE90F12904709F10109761CC145F4DBCC
:104BC000E0030CD5DDE90F232146504600F04CF8F8
:104BD000064404E0DDE90F1230209047761C089966
:104BE000481E08900029F5DC08E00A980A99007828
:104BF000491C0A91DDE90F129047761CBBF10001B8
:104C0000ABF1010BF1DC21465046DDE90F2300F04A
:104C100019F806446D1C21E60928010030313233B1
:104C200034353637383961626364656600000000E8
:104C300030313233343536373839414243444546D2
:104C4000000000002DE9F041044600251E461746ED
:104C5000880404D405E039462020B0476D1C641E4A
:104C6000F9D52846BDE8F0812DE9F041044600253C
:104C70001E469046C80301D5302700E0202788044F
:104C800004D505E041463846B0476D1C641EF9D591
:104C90002846BDE8F0810A68531C0B60107070470D
:104CA0002DE9F04180460C4615461E4600270A2095
:104CB0000A490870334607222946204601F0D2F8F7
:104CC000012801D0032706E044F6206001F0D6F861
:104CD000012800D003273846BDE8F0814F000020AE
:104CE0002DE9F04104460D46164600270D48008880
:104CF000032813DB0B4801880B48006800F0E0FE36
:104D000060B9094800680078207006480088801E55
:104D1000308005480068401C286000E005273846C0
:104D2000BDE8F08144000020400000202DE9F04162
:104D300004460D4616464FF000081648007818BB8A
:104D4000681E15490860012014490880124800684F
:104D500004700846008830440880084601880E48E0
:104D6000006800F0ADFE07460C490888411C0B4A5C
:104D700011800B4909680F5401200A49087001216C
:104D8000002000F0E1FE01E04FF005084046BDE8DC
:104D9000F08100003D000020480000204C00002071
:104DA000400000203C00002010B50021012000F050
:104DB000CBFE00200249087001F040F810BD000051
:104DC0003D00002010B50021084600F0BDFE00F0B7
:104DD000E5FE10BD10B5002406480078012806D174
:104DE00005480068804700200249087000E006245A
:104DF000204610BD62000020680000202DE9F05F11
:104E000006460D464FF0000B2888052848D17078DB
:104E10004FEA0029B07840EA090909F101001FFAB8
:104E200080F9F078040230790443012C35DBB4F5C5
:104E3000FA6F32DA374600202880012007F8010B8C
:104E40002888401C288004F0070040B12046E11764
:104E500004EB5171C910491C01F0FF0805E0204620
:104E6000E11704EB5171C1F3C70807F8018B2888DB
:104E7000401C2880002322464946384600F064FC46
:104E80008246BAF1000F04D0504600F0E3FD83469D
:104E900008E028884044288004E04FF0030B01E03C
:104EA0004FF0030B5846BDE8F09F2DE9F05F064632
:104EB0000D464FF0000B2888052847D170784FEA3F
:104EC0000029B07840EA090909F101001FFA80F9C8
:104ED000F078040230790443012C34DBB4F5FA6F26
:104EE00031DA374600202880022007F8010B288895
:104EF000401C288004F0070040B12046E11704EB75
:104F00005171C910491C01F0FF0805E02046E11766
:104F100004EB5171C1F3C70807F8018B2888401CC6
:104F2000288022464946384600F082FC8246BAF183
:104F3000000F04D0504600F08DFD834608E028881D
:104F40004044288004E04FF0030B01E04FF0030BD6
:104F50005846BDE8F09F2DE9F04705460C464FF056
:104F6000000A2088052837D168784FEA0028A878F9
:104F700040EA080808F101001FFA80F8E878060204
:104F80002E79012E25DB7D2E23DC2F46002020806C
:104F9000032007F8010B2088401C20807006000EBB
:104FA00007F8010B2088401C208000233246414630
:104FB000384600F083FC8146B9F1000F04D0484622
:104FC00000F048FD824609E0208800EB4600208082
:104FD00004E04FF0030A01E04FF0030A5046BDE839
:104FE000F0872DE9F04705460C464FF0000A20886F
:104FF000052837D168784FEA0028A87840EA0808E1
:1050000008F101001FFA80F8E878060228790643C3
:10501000012E24DB7D2E22DA2F4600202080042062
:1050200007F8010B2088401C20807006000E07F84E
:10503000010B2088401C208032464146384600F053
:105040006FFC8146B9F1000F04D0484600F002FD24
:10505000824609E0208800EB4600208004E04FF003
:10506000030A01E04FF0030A5046BDE8F0872DE93E
:10507000FC5F04460D460020009028880A285DDB6E
:1050800060784FEA002AA07840EA0A0A0AF1010093
:105090001FFA80FAE07806022079064360794FEA29
:1050A000002BA07940EA0B0B0BF101001FFA80FBEB
:1050B000E0790702207A0743607A0190012E3BDBFA
:1050C0007D2E39DC012F37DB792F35DC7900019813
:1050D000814231D101233A46594604F10A0000F0D9
:1050E000EDFB8146B9F1000F1ED1A04600202880BB
:1050F000172008F8010B2888401C28807006000E35
:1051000008F8010B2888401C2880002332465146AD
:10511000404600F0D3FB8146B9F1000F04D1288846
:10512000022101FB06002880B9F1000F06D0484695
:1051300000F090FC009001E0032000900098BDE892
:10514000FC9F000070B505460C46064802880649DB
:10515000681CFAF7F9FF03480088401C20800020F3
:1051600070BD0000500000204C0300202DE9F843E2
:1051700004460F464FF000083888052829D160788A
:105180000502A0780543681C85B22079F0B9E07863
:10519000FF2801D0E078C8B900208DF80100E07840
:1051A000FF2803D101208DF8000002E000208DF8D7
:1051B000000001231A462946684600F0C5FA064653
:1051C0004EB1304600F046FC804604E04FF0030844
:1051D00001E04FF003084046BDE8F8832DE9F041B7
:1051E00004460F464FF000083888052812D1607831
:1051F0000502A0780543681C85B201231A4629469A
:10520000E01C00F05BFB064636B1304600F022FCA5
:10521000804601E04FF003084046BDE8F0812DE9EB
:10522000F05F05460E464FF0000B3088052839DD4B
:1052300068780702A8780743781C87B2E8780402E8
:105240002879044395F805A004F0070040B12046F2
:10525000E11704EB5171C910491C01F0FF0805E08A
:105260002046E11704EB5171C1F3C708012C16DB8E
:10527000B4F5F66F13DCD04511D10123224639462F
:10528000A81D00F061FA8146B9F1000F04D048462C
:1052900000F0E0FB834607E00520308004E04FF09B
:1052A000030B01E04FF0030B5846BDE8F09F2DE9DA
:1052B000F04704460E464FF0000A3088062828DBE7
:1052C00060780702A0780743781C87B2E07805026F
:1052D0002079054394F80590012D17DB782D15DC16
:1052E0006806000E484511D101232A463946A01D03
:1052F00000F0E4FA8046B8F1000F04D0404600F018
:10530000A9FB824607E00520308004E04FF0030A45
:1053100001E04FF0030A5046BDE8F0872DE9F04761
:1053200005460C4616461F46DDF820904FF0000853
:105330001CB1012C01DBF72C02DD4FF0020859E013
:105340002E48047015B1012D42D120E02C482D4982
:1053500008602D482D4908602D482E4908602E48C8
:105360002E49086000202E4908602E482E4908600A
:105370002E482F4908602F482F4908604B463A466F
:1053800031461E48007800F007F9804623E02B489C
:105390001C4908602A481D4908602A481D490860C0
:1053A00029481E49086000201D49086027481E49F9
:1053B000086027481E49086026481F4908604B4678
:1053C0003A4631460D480078FFF76AFC804602E015
:1053D0004FF0020800BF00BFB8F1000F0AD100F083
:1053E00025FD10B94FF0030804E01B4805700120AB
:1053F0001A4908704046BDE8F087000060000020B0
:105400001D57000868000020395700086C00002074
:105410009556000864000020E9550008700000203F
:1054200074000020855E0008780000204D5F0008B1
:105430007C0000200D5F000880000020A94D0008BE
:10544000C54D00082D4D0008E14C0008C55B000863
:10545000195D0008ED5C000861000020620000207A
:1054600038B500254148007808B1062038BD6846A7
:1054700000F0CAFC012877D19DF8000030B1012866
:1054800005D0022818D003286DD16BE06BE0384AB4
:1054900038493948394B1B68984705465DB9364845
:1054A000007837490978884202D03348007810B92B
:1054B000022000F0C3FC56E02E4800680078314915
:1054C0000870012030490870002417E02F4810F8B8
:1054D000340000B914E02D4810F834002949097847
:1054E00088420AD1294800EBC4002149426821487A
:1054F000006890472449087002E0641C102CE5DB2A
:1055000000BF1D48007858B31F480078C8B100207C
:10551000174908801B48007840F080011448028831
:105520000088401C124B18801248006881541648AD
:105530000278184601880088401C18800D480068D1
:10554000425413480078012800D100BF084802885F
:10555000084801680A4800780E4B1B6898470546C2
:1055600001E001E000BF00BF00207FE762000020F3
:10557000120100200C01002010010020700000200A
:105580006000002011010020140100208C00002088
:1055900061000020640000202DE9F04781460E469E
:1055A00014461F464FF000083B460822214630466D
:1055B00000F058FC012802D04FF003080FE0B4F5CA
:1055C000964F01D9232503E060000649B1FBF0F5B1
:1055D000A8B200F053FC012801D04FF00308404668
:1055E000BDE8F087A07F17002DE9F04705460E467D
:1055F00017464FF00009C8461A480088042812DBF5
:1056000018480188184800F083FA60B916480078F5
:10561000287014480088C01E38801348401C306031
:105620004FF0010901E04FF005080E4801880E48CF
:1056300000F06EFA044621460CA0FFF7B1F80FA067
:10564000FFF7AEF8002406E00748015D0FA0FFF762
:10565000A7F8601CC4B2034800888442F4DB4046CB
:10566000BDE8F0875E0000206C03002063726320B9
:10567000726573756C743A2025640A00526563651F
:1056800069766520646174613A0A000025303278D9
:10569000200000002DE9F04105460E4617464FF068
:1056A000000819480078012829D1701E17490860A0
:1056B00001201749088015480068057008460088D1
:1056C00038440880084601881048006800F020FA35
:1056D00004460F490888411C0D4B19800D490C5494
:1056E000221219460888411C19800A490A540120CF
:1056F000094908700121002000F026FA01E04FF06E
:1057000005084046BDE8F081550000205800002003
:105710005C0000206C0300205400002010B5002025
:10572000044908700021012000F00EFA00F03EFA52
:1057300010BD00005500002010B50021084600F003
:1057400003FA00F02BFA10BD2DE9F05F06468A46F9
:1057500014469B46AAF1010087B20025A946A84637
:1057600038190A2802DD0120BDE8F09FBBF1010FC6
:1057700024D1601EC11700EB5171C910491C01F002
:10578000FF0817E016F8019B00250CE049FA05F028
:1057900000F001023846791C8FB21F490A54601E7E
:1057A00084B2681CC5B20CB1082DEFDBA8F1010072
:1057B00000F0FF08B8F1000FE4D127E0601EC11728
:1057C00000EB5171C910491C01F0FF081BE04FF0BC
:1057D000000900250EE01048C05D28B10120A84056
:1057E00040EA090000F0FF09601E84B2781C87B20D
:1057F000681CC5B20CB1082DEDDB06F8019BA8F1C1
:10580000010000F0FF08B8F1000FE0D103A0FEF79F
:10581000C7FF0020A8E700006C04002072656365E4
:1058200069766520636F696C7320646174610A0036
:10583000F0B503460D46681E81B2002400260027FD
:1058400088180A2801DD0120F0BD501E4FEAE07CD7
:1058500000EB5C7C4FEAEC0C0CF1010C0CF0FF0748
:1058600016E0002600240CE01348405C18B101202B
:10587000A0403043C6B2501E82B2481C81B2601CA8
:10588000C4B20AB1082CEFDB03F8016B781EC7B273
:10589000002FE6D100210BE00748405C08B9012049
:1058A00000E00020DFF810C00CF80100481C81B2B5
:1058B0000A29F1DB0020C7E77604002070B5044612
:1058C0000D46681E81B288180A2801DD012070BDCE
:1058D000012B0FD10BE06078267840EA06200F4EAE
:1058E00026F81100A41C481C81B2501E82B2002A66
:1058F000F1DC11E00EE0094830F81100001204F864
:10590000010B064810F8110004F8010B481C81B285
:10591000501E82B2002AEEDC0020D8E716010020DB
:1059200010B503460C46601E81B288180A2801DDB6
:10593000012010BD0EE0094830F81100001203F8F4
:10594000010B064810F8110003F8010B481C81B246
:10595000501E82B2002AEEDC0020EAE7800400201C
:1059600013B50C464FF47A73012269460248FDF7DD
:1059700066FB00981CBD0000A402002008B5FBF7E0
:1059800045FF4FF4FA70FBF7F5F8FEF7F6FAFEF76D
:10599000CBF8FEF757F9FEF799FAFEF771F9FEF723
:1059A00045FAFEF7D7F9FEF7ADFAFEF709FAFAF76E
:1059B000F7FEFBF713F8FDF777FF00204FF4E13314
:1059C00002460090154801780020FFF7A7FCFFF77A
:1059D00001FA13A0FEF7E4FE00251EE0681C85B264
:1059E0000A2D11DB002513A0FEF7DAFE002406E0E5
:1059F0001548015D15A0FEF7D3FE601CC4B20A2C49
:105A0000F6DB13A0FEF7CCFEFAF7EAFEFAF77AFF10
:105A1000FFF726FD6420FBF7ADF8DFE7100000205C
:105A200067656172206D6F746F7220737461727438
:105A3000210A00007072696E746620636F696C2DB4
:105A40005265670A000000006C04002025642000F5
:105A50000A000000014621B1012904D0072906D11E
:105A600003E0002005E0022003E0062001E004201E
:105A700000BF00BF70470146092903DC01F1300077
:105A8000C0B270470A2905DB0F2903DC01F137009A
:105A9000C0B2F6E700BF3020F3E70146302905DB4E
:105AA000392903DCA1F13000C0B27047412905DB80
:105AB000462903DCA1F13700C0B2F6E7FF20F4E786
:105AC00010B50246002003E012F8014B2318D8B2AB
:105AD0000B1EA1F10104A1B2F6D14342D8B210BD10
