:020000040800F2
:100000006005002005010008AD34000861280008E3
:10001000A9340008C1070008FD39000800000000ED
:10002000000000000000000000000000DD340008B7
:10003000C507000800000000B1340008DF340008E4
:100040001F0100081F0100081F0100081F01000810
:100050001F0100081F0100081F0100081F01000800
:100060001F010008250800082F0800081F010008CC
:100070001F0100081F0100081F0100081F010008E0
:100080001F0100081F0100081F0100081F010008D0
:100090001F0100081F0100081F010008390800089F
:1000A0001F0100081F0100081F0100081F010008B0
:1000B0001F0100081F010008513500081F0100083A
:1000C0001F0100081F0100081F0100081F01000890
:1000D0001F0100081F0100081F0100081F01000880
:1000E000190800081F0100081F010008DFF810D0E0
:1000F00000F026FA00480047CD3D0008AFF300802D
:10010000600500200648804706480047FEE7FEE7F6
:10011000FEE7FEE7FEE7FEE7FEE7FEE7FEE7FEE7B7
:100120004D350008ED000008202A04DB203A21FAB2
:1001300002F00021704721FA02F3D040C2F1200200
:100140009140084319467047D2B201E000F8012BF4
:10015000491EFBD270470022F6E710B513460A4647
:1001600004461946FFF7F0FF204610BD2DE9FE4F6B
:1001700081EA030404F0004421F0004100944FF0B0
:10018000000B23F0004350EA01045ED052EA03045E
:100190005BD0C3F30A54C1F30A552C44A4F2F334E0
:1001A0000194A0FB0254C1F3130141F48011C3F385
:1001B000130343F4801301FB024400FB034E840A43
:1001C000970A44EA815447EA8357A4FB07680295DB
:1001D0008D0A05FB07854FEA932C04FB0C54270579
:1001E000029D4FEA065847EA1637B5EB08056EEB55
:1001F000070C870E920E47EA811742EA8312A7FB8B
:100200000201B6EB0B0164EB00042B0D43EA0C3347
:100210005E1844EB1C50DA465146E7FB0201C5F379
:1002200013044FEA0B3343EA14534FEA0432019CA0
:1002300043EA0603A4F10C040294009CCDE900B447
:1002400000F030F903B0BDE8F08F00200146F9E777
:100250002DE9F04D81EA030404F0004B21F0004544
:1002600014464FF0000A23F0004150EA050220D066
:1002700054EA01021DD0C5F30A570246C5F3130321
:10028000C1F31300C1F30A5640F4801543F4801300
:10029000A7EB0608101BD64608F2FD3873EB0500E5
:1002A00002D308F1010801E092185B41B8F1000F98
:1002B00003DA00200146BDE8F08D00204FF48011E4
:1002C000064684460EE0171B73EB050705D3121B89
:1002D00063EB050306434CEA010C49084FEA300082
:1002E00092185B4150EA0107EDD152EA030012D0A7
:1002F00082EA040083EA0501084305D0101BAB41E4
:1003000006D20122002306E000224FF0004302E063
:100310006FF0010253101AEB06004CEB085110EB82
:100320000A0041EB0B01BDE8F04D00F0ACB80EB592
:10033000C10F80EAE0700844CA07002140F233434D
:100340008DE80E000A460B4600F0ACF803B000BD85
:1003500070B5C1F30A5201F000450024C1F3130146
:1003600040F2FF3341F480119A4201DA002070BD5F
:1003700040F233439A42A2F2334203DC5242FFF787
:10038000D3FE00E090402C43F1D0404270BD00F01D
:10039000004230F000400AD0C10D01F56071C0F399
:1003A000160042EA0151C20840071143704700207D
:1003B0000146704701F0004330B421F0004150EA9B
:1003C000010206D00A0DA2F56072C1F31301002AE2
:1003D00002DC30BC00207047440F44EAC104C10075
:1003E000E01830BC00EBC25000F016B830B50B4638
:1003F000014600202022012409E021FA02F59D4255
:1004000005D303FA02F5491B04FA02F52844151E28
:10041000A2F10102F1DC30BD0029A8BF7047401CE9
:10042000490008BF20F00100704710B4B0FA80FC0A
:1004300000FA0CF050EA010404BF10BC704749B147
:10044000CCF1200421FA04F411FA0CF118BF0121B7
:1004500021430843A3EB0C01CB1D4FEA00614FEA97
:10046000102042BF002010BC704700EBC350104466
:100470000029A4BF10BC7047401C490008BF20F0F1
:10048000010010BC704710B5141E73F1000408DAA7
:10049000401C41F1000192185B411A4301D120F048
:1004A000010010BD2DE9F04D92469B4611B1B1FA05
:1004B00081F202E0B0FA80F22032904600F052F869
:1004C00004460F4640EA0A0041EA0B0153465A46E9
:1004D000084313D0114653EA010019D0C8F1400275
:1004E0005046FFF721FE05460E4650465946424605
:1004F00000F038F8084305D0012004E020463946D2
:10050000BDE8F08D0020054346EAE0762C433743F2
:100510000A986305E40AA0EB08000022FD0A44EAF9
:1005200047540A3002D500200146E9E701051019B9
:100530006941DDE9084500196941BDE8F04DA2E7D0
:10054000064C074D06E0E06840F0010394E8070020
:1005500098471034AC42F6D3FFF7CCFDF0490008C1
:10056000104A0008202A04DB203A00FA02F1002099
:1005700070479140C2F1200320FA03F319439040E1
:100580007047000008B501226946002000F032F9EA
:100590009DF8000044280CD04420009001226946B8
:1005A000002000F011F901220549104600F00CF975
:1005B00004E001220249104600F01CF908BD0000C9
:1005C0001000002010B54248007804280FD1002008
:1005D0003F4908703F490978481C00EBD071491029
:1005E000A0EB41013B4A117002F004FD6EE0394876
:1005F0000078002840D136480078012804D002282D
:1006000013D003282AD123E0002031490870324852
:100610000088193000B2304908800846B0F900005F
:10062000642801DB6420088019E000202849087054
:1006300029480088193800B2274908800846B0F9CF
:10064000000010F1640F02DC6FF06300088006E028
:1006500000201F4908702049088000E000BF00BF4B
:100660001D48008810B902F0AFFC2FE01A48B0F91D
:10067000000002F07DFC29E016480078012825D111
:1006800013480078012804D002280BD003281BD17E
:1006900011E000200E49087010480078401C0F49F6
:1006A000087012E000200A4908700C480078401ECB
:1006B0000A49087009E0002005490870012207492D
:1006C000104600F081F800E000BF00BF10BD000040
:1006D0001600002011000020120000201000002051
:1006E0001FB50020009001900290039026480078EA
:1006F00040BB002409E004F10D01CAB26106080EF6
:10070000002102F0C3FC601CC4B2082CF3DB1F48BC
:10071000B0F900201EA1684603F072F96A46012173
:10072000042002F07BFC02F0C5FB1C48B0F900205D
:100730001BA1684603F064F96A460221042002F016
:100740006DFC1CE010480078012818D1002409E055
:1007500004F10D01CAB26106080E002102F096FCF8
:10076000601CC4B2082CF3DB1048027810A1684664
:1007700003F046F96A460121052002F04FFC64208F
:1007800000F062F81FBD00001100002012000020E0
:100790005365743A252D34640000000014000020D5
:1007A00053706565643A252D346400001000002004
:1007B00049443A253033640010B502F08BFC10BD7B
:1007C00000BFFEE770470000FEB504460D46164622
:1007D0004FF47A7001232246A021CDE90056029001
:1007E000034800F083FD052000F02EF8FEBD000058
:1007F00018000020FEB504460D4616464FF47A70E8
:1008000001232246A121CDE900560290014800F0C3
:10081000BBFBFEBD1800002010B54FF4004000F0F7
:1008200061F810BD10B5082000F05CF810BD10B5DF
:10083000102000F057F810BD10B5202000F052F83D
:1008400010BD72B600BFFEE770B5044600F0F6F9C1
:1008500006462546681C10B104480078054400BFD0
:1008600000F0ECF9801BA842FAD370BD080000200C
:1008700010B50446B4F5004F05D0082C03D0102C59
:1008800001D0202C26D10F20FFF7DEFF4FF40041CE
:10089000114800F0C5F918B901201049087019E095
:1008A00008210F4800F0BCF918B902200B49087064
:1008B00010E010210A4800F0B3F918B903200749E5
:1008C000087007E02021064800F0AAF910B90420BA
:1008D0000249087010BD0000000801401600002009
:1008E000000C014010B5044604480068204020B1C7
:1008F000024804602046FFF7BBFF10BD140401400E
:100900002DE9F8470346002294466EE14FF00108B6
:1009100008FA02F4D1F8008008EA0400A0427DD170
:10092000DFF8DCA2D1F80480A8EB0A09D0453AD060
:1009300014DCB8F1030F50D009DCB8F1000F31D04E
:10094000B8F1010F1CD0B8F1020F49D120E0B8F185
:10095000110F18D0B8F1120F42D11EE0B9F5881F5F
:1009600025D006DCB9F5803F20D0B9F5801F37D1FE
:100970001AE0B9F5001F18D0B9F5041F30D117E0FF
:10098000D1F80CC02DE0D1F80C8008F1040C28E05F
:10099000D1F80C8008F1080C23E0D1F80C8008F1A4
:1009A0000C0C1EE000BF00BF00BF00BF00BF00BFB7
:1009B000D1F80880B8F1000F02D14FF0040C0BE021
:1009C000D1F80880B8F1010F03D14FF0080C1C6179
:1009D00002E04FF0080C5C6103E04FF0000C00E017
:1009E00000BF00BFFF2801D8984601E003F10408CA
:1009F0004646FF2802D84FEA820803E0A2F1080821
:100A00004FEA88084746D6F800804FF00F0909FAE8
:100A100007F928EA09080CFA07F900E088E048EA33
:100A20000908C6F80080D1F8048008F08058B8F1B1
:100A3000805F7DD100BFDFF8CC81D8F8188048F006
:100A40000108DFF8C091C9F81880C846D8F81880A6
:100A500008F00108CDF8008000BF00BF4FEAB938A8
:100A60004FEA920958F829504FEA82784FEA1879EC
:100A70004FF00F0808FA09F825EA0805DFF8888121
:100A8000434502D14FF0000816E0DFF8808143456E
:100A900002D14FF001080FE0DFF87481434502D125
:100AA0004FF0020808E0DFF86C81434502D14FF0B7
:100AB000030801E04FF004084FEA82794FEA197900
:100AC00008FA09F848EA0505DFF84C814FEA92096F
:100AD00048F82950D1F8048008F48018B8F5801F30
:100AE0000AD1DFF83881D8F8008048EA0008DFF83A
:100AF0002C91C9F8008009E0DFF82081D8F8008047
:100B000028EA0008DFF81491C9F80080D1F80480C1
:100B100008F40018B8F5001F10D1DFF8008108F1C3
:100B20000408D8F8008048EA0008DFF8F09000E0F8
:100B30005AE009F10409C9F800800DE0DFF8DC8013
:100B400008F10408D8F8008028EA0008DFF8CC9003
:100B500009F10409C9F80080D1F8048008F40038CC
:100B6000B8F5003F0ED1DFF8B480A8F10408D8F83A
:100B7000008048EA0008DFF8A490A9F10409C9F848
:100B800000800DE0DFF89480A8F10408D8F8008018
:100B900028EA0008DFF88490A9F10409C9F8008068
:100BA000D1F8048008F48038B8F5803F0ED1DFF822
:100BB0006C80A8F10808D8F8008048EA0008DFF83F
:100BC0005C90A9F10809C9F800800DE0DFF84C80BD
:100BD000A8F10808D8F8008028EA0008DFF83C905F
:100BE000A9F10809C9F80080521CD1F8008028FA40
:100BF00002F8B8F1000F7FF489AEBDE8F887000075
:100C0000000011100010024000080140000C0140DB
:100C10000010014000140140080001400804014098
:100C2000024693680B400BB1012000E000207047A2
:100C30000AB1016101E00B040361704701480068DB
:100C4000704700000000002070B504460CB9012078
:100C500070BD94F83D0028B9002084F83C0020467F
:100C600000F0F6FB242084F83D002068006820F0A6
:100C70000100216808602068006840F40040216895
:100C800008602068006820F400402168086000F0D7
:100C9000B9FD05465C496068884206D85B488542D4
:100CA00001D2012007E0002005E05948854201D229
:100CB000012000E00020012800D1C9E75548B5FB1C
:100CC000F0F62068406820F03F003043216848601B
:100CD0004D496068884201D8701C07E04FF4967057
:100CE00070434FF47A71B0FBF1F0401C2168096A3F
:100CF00021F03F0108432168086243496068884247
:100D000014D8681E61684900B0FBF1F0401CC0F3C4
:100D10000B00042801D204203DE0681E61684900F0
:100D2000B0FBF1F0401CC0F30B0034E0A06838B910
:100D3000681E616801EB4101B0FBF1F0401C0AE064
:100D4000681E616801EBC10202EB0111B0FBF1F01A
:100D5000401C40F48040C0F30B0008B901201AE0A9
:100D6000A06848B9681E616801EB4101B0FBF1F071
:100D7000401CC0F30B000CE0681E616801EBC1026F
:100D800002EB0111B0FBF1F0401CC0F30B0040F48A
:100D9000804040F400402168C9694CF6FF729143DD
:100DA00008432168C861D4E907010843216809683C
:100DB00021F0C001084321680860D4E9031008430A
:100DC0002168896848F2FF329143084321688860AE
:100DD000D4E9050108432168C96821F0FF010843EF
:100DE0002168C8602068006840F001002168086040
:100DF00000202064202084F83D000020206384F837
:100E00003E0000BF24E70000A086010080841E0091
:100E100000093D0040420F002DE9F8430446894691
:100E200016461F46DDF82080FFF708FF054694F8B8
:100E30003D0020287ED119230122514920460095EA
:100E400001F0E3FE10B10220BDE8F88300BF94F882
:100E50003C00012801D10220F6E7012084F83C0083
:100E600000BF2068006800F0010028B92068006811
:100E700040F00100216808602068006820F40060EC
:100E800021680860212084F83D00102084F83E008D
:100E90000020206466626785608D20853948E062A5
:100EA0002B4642464946204601F0FCFC08B1012091
:100EB000CAE700BF002000902068406900902068C9
:100EC0008069009000BF00BF44E02A4641462046AA
:100ED00001F0BCFF50B1206C042805D120680068E7
:100EE00040F40070216808600120ADE7606A007876
:100EF00021680861606A401C6062608D401E6085E8
:100F0000208D401E208520684069C0F3800070B1AC
:100F1000208D60B1606A007821680861606A401CB9
:100F20006062608D401E6085208D401E20852A46AF
:100F3000414600E022E0204601F034FE50B1206C32
:100F4000042805D12068006840F40070216808601A
:100F5000012079E7208D0028B7D12068006840F48F
:100F6000007021680860202084F83D00002084F88B
:100F70003E0000BF84F83C0000BF65E7022063E745
:100F8000020010000000FFFF2DE9FE4F04460F464F
:100F900090469946DDE90CAB0E9E00200290FFF7CB
:100FA0004DFE054694F83D00202872D119230122F8
:100FB000CA492046009501F028FE10B10220BDE884
:100FC000FE8F00BF94F83C00012801D10220F6E713
:100FD000012084F83C0000BF2068006800F0010098
:100FE00028B92068006840F0010021680860206886
:100FF000006820F4006021680860222084F83D0029
:10100000402084F83E0000202064C4F824A0A4F806
:101010002AB0608D2085B248E0624B464246394690
:101020002046CDE9006501F09DFC08B10120C6E72E
:10103000208D88B900BF0020019020684069019090
:1010400020688069019000BF00BF2068006840F4FC
:101050000070216808604BE0208D01281AD12068BB
:10106000006820F480602168086072B600BF00202C
:10107000019020684069019020688069019000BF5C
:1010800000BF2068006840F400702168086062B604
:101090002EE020E1208D022819D12068006840F45C
:1010A00000602168086072B600BF002001902068CF
:1010B0004069019020688069019000BF00BF2068EE
:1010C000006820F480602168086062B610E0206843
:1010D000006840F480602168086000BF0020019033
:1010E00020684069019020688069019000BF00BFBE
:1010F000E2E0208D03287DD8208D012815D12A46D5
:101100003146204601F05DFE08B1012057E7206816
:101110000069616A0870606A401C6062208D401E30
:101120002085608D401E6085C6E0208D02282CD170
:10113000334600226B492046009501F066FD08B158
:1011400001203CE772B62068006840F40070216816
:10115000086020680069616A0870606A401C60620B
:10116000208D401E2085608D401E608562B62068FF
:101170000069616A0870606A401C6062208D401ED0
:101180002085608D401E608596E0334600225549DB
:101190002046009501F039FD08B101200FE72068D5
:1011A000006820F480602168086072B620680069D9
:1011B000616A0870606A401C6062208D401E208554
:1011C000608D401E6085484800681921B0FBF1F031
:1011D0004FF47A71B0FBF1F0C0EBC00000EB80007F
:1011E000029000BF0298401E02900298A8B9002009
:1011F000206300E039E0202084F83D00002084F8DE
:101200003E00206C40F02000206462B600BF002049
:1012100084F83C0000BF0120D1E620684069C0F39B
:1012200080000028DED02068006840F4007021684B
:10123000086020680069616A0870606A401C60622A
:10124000208D401E2085608D401E608562B620681E
:101250000069616A0870606A401C6062208D401EEF
:101260002085608D401E608526E02A463146204656
:1012700001F0A7FD08B10120A1E620680069616ABC
:101280000870606A401C6062208D401E2085608D61
:10129000401E608520684069C0F3800060B120680E
:1012A0000069616A0870606A401C6062208D401E9F
:1012B0002085608D401E6085208D00287FF419AF49
:1012C000202084F83D00002084F83E0000BF84F810
:1012D0003C0000BF73E6022071E60000020010002F
:1012E0000000FFFF040001000C0000202DE9FC5F5E
:1012F00004460F4690469946DDE90CAB0E9EFFF77B
:101300009DFC054694F83D0020287DD1192301223B
:101310004D492046009501F078FC10B10220BDE84F
:10132000FC9F00BF94F83C00012801D10220F6E7A1
:10133000012084F83C0000BF2068006800F0010034
:1013400028B92068006840F0010021680860206822
:10135000006820F4006021680860212084F83D00C6
:10136000402084F83E0000202064C4F824A0A4F8A3
:101370002AB0608D20853548E0624B4642463946AA
:101380002046CDE9006501F09DFB08B10120C6E7CC
:1013900031E02A463146204601F058FD50B1206C1C
:1013A000042805D12068006840F4007021680860B6
:1013B0000120B4E7606A007821680861606A401C17
:1013C0006062208D401E2085608D401E60852068F3
:1013D0004069C0F3800070B1208D60B1606A007810
:1013E00021680861606A401C6062208D401E208573
:1013F000608D401E6085208D0028CAD12A46314666
:10140000204601F0CFFB00E01CE050B1206C042826
:1014100005D12068006840F4007021680860012050
:101420007DE72068006840F4007021680860202093
:1014300084F83D00002084F83E0000BF84F83C00A2
:1014400000BF6CE702206AE7020010000000FFFF07
:1014500010B586B0044600200290039004900590D9
:1014600016492068884226D100BF1548806940F09F
:101470000800134988610846806900F0080001905F
:1014800000BF00BF4FF44060029012200390032081
:10149000059002A90B48FFF733FA00BF0848C0695E
:1014A00040F480000649C8610846C06900F4800025
:1014B000019000BF00BF06B010BD00000058004002
:1014C00000100240000C01400348006803490978FD
:1014D000084401490860704700000020080000200F
:1014E00010B50848006840F0100006490860032065
:1014F00000F0A8F8002000F007F800F02BF800201A
:1015000010BD00000020024070B504460E4800786F
:101510004FF47A71B1FBF0F00C490968B1FBF0F5BA
:10152000284600F0F9FB08B1012070BD102C07D24D
:1015300000222146501E00F047F80548046001E0F3
:101540000120F2E70020F0E7080000200C00002056
:101550000400002008B500BF1148806940F0010078
:101560000F4988610846806900F00100009000BFC3
:1015700000BF00BF0846C06940F08050C8610846FF
:10158000C06900F08050009000BF00BF00BF054957
:10159000486820F0E06040F00070486000BF08BD7F
:1015A000001002400000014001460846002809DB07
:1015B00000F01F0301229A4043099B0003F1E0233E
:1015C000C3F8002100BF70472DE9F05F80460D464B
:1015D0001646002702F028FA074639462A463346BF
:1015E00001F00700C0F1070ABAF1040F02D94FF069
:1015F000040A01E0C0F1070AD14600F1040ABAF179
:10160000070F02D24FF0000A01E0A0F1030AD4460E
:101610004FF0010A0AFA09FAAAF1010A0AEA020AD3
:101620000AFA0CFA4FF0010B0BFA0CFBABF1010BB1
:101630000BEA030B4AEA0B042146404602F0FCF990
:10164000BDE8F09F00BF00F00702064B19684FF697
:10165000FF031940044B0B4343EA0221014B19607D
:1016600000BF70470CED00E00000FA0570B50446BD
:101670000D460CB9012070BD5A48006800F0070003
:10168000A8420ED25748006820F007002843554969
:1016900008600846006800F00700A84201D0012059
:1016A000E9E7207800F0020002281DD1207800F040
:1016B0000400042805D14C48406840F4E0604A49E1
:1016C0004860207800F00800082805D146484068A6
:1016D00040F46050444948604348406820F0F000BE
:1016E000A168084340494860207800F0010078B3C1
:1016F0006068012806D13C48006800F4003090B9C9
:101700000120B8E76068022806D13748006800F079
:10171000007040B90120AEE73348006800F00200D5
:1017200008B90120A7E73048406820F0030061684D
:1017300008432D494860FFF781FA064609E0FFF7A4
:101740007DFA801B41F28831884202D9032092E75A
:1017500007E02548406800F00C006168B0EB810F9D
:10176000EDD12048006800F00700A8420ED91D48BE
:10177000006820F0070028431A49086008460068FE
:1017800000F00700A84201D0012074E7207800F0A3
:101790000400042807D11448406820F4E060E168A0
:1017A000084311494860207800F00800082808D153
:1017B0000D48406820F46050216940EAC1000A49A0
:1017C000486000F03FF808494968C1F30311074A2F
:1017D000515CC8400649086006480068FFF794FE5F
:1017E000002048E70020024000100240183E000898
:1017F0000C00002004000020014800687047000031
:101800000C00002000B5FFF7F7FF04494968C1F359
:101810000221034A515CC84000BD00000010024094
:10182000283E000800B5FFF7E7FF04494968C1F307
:10183000C221034A515CC84000BD000000100240B4
:10184000283E000870B5002100220024002300205B
:10185000134D696801F00C05F5B1042D02D0082D77
:1018600019D101E00F4819E00F4DC1F38346AB5D7C
:1018700001F4803555B10A4D6D68C5F340450B4EF6
:10188000725D084D5D43B5FBF2F402E0084D03FBC9
:1018900005F4204602E000BF024800BF00BF70BD53
:1018A0000010024000127A00063E0008163E0008B2
:1018B00000093D00F8B504460CB90120F8BD2078B8
:1018C00000F00100002878D0F848406800F00C00D3
:1018D00004280CD0F548406800F00C00082811D10D
:1018E000F248406800F48030B0F5803F0AD1EF48FC
:1018F000006800F4003000285FD0606800285CD1E8
:101900000120DBE700BF6068B0F5803F06D1E74803
:10191000006840F48030E549086028E0606858B904
:10192000E248006820F48030E0490860084600681A
:1019300020F4802008601AE06068B0F5A02F0BD179
:10194000DA48006840F48020D849086008460068FA
:1019500040F4803008600AE0D448006820F4803009
:10196000D24908600846006820F48020086000BF63
:10197000606888B1FFF762F9054606E0FFF75EF997
:10198000401B642801D9032098E7C848006800F488
:1019900000300028F2D010E0FFF750F9054606E0CD
:1019A000FFF74CF9401B642801D9032086E7BF48A4
:1019B000006800F400300028F2D1207800F0020026
:1019C000022857D1B948406800F00C0050B1B74820
:1019D000406800F00C00082818D1B448406800F4B2
:1019E000803098B9B148006800F0020020B1206949
:1019F000012801D0012061E7AC48006820F0F80020
:101A0000616940EAC100A949086033E02069E8B192
:101A10000120A7490860FFF711F9054606E0FFF726
:101A20000DF9401B022801D9032047E79F480068B1
:101A300000F002000028F2D09C48006820F0F80076
:101A4000616940EAC1009949086013E000209849A3
:101A50000860FFF7F3F8054606E0FFF7EFF8401BD4
:101A6000022801D9032029E79048006800F002000D
:101A70000028F2D1207800F0080008282DD1A069B4
:101A8000B8B101208B490860FFF7D8F8054606E099
:101A9000FFF7D4F8401B022801D903200EE7834842
:101AA000406A00F002000028F2D0012001F002FD9F
:101AB00013E000207F490860FFF7C0F8054606E004
:101AC000FFF7BCF8401B022801D90320F6E677484F
:101AD000406A00F002000028F2D1207800F00400F3
:101AE000042873D100277148C06900F0805070B994
:101AF00000BF6E48C06940F080506C49C86108461C
:101B0000C06900F08050009000BF00BF01276A4804
:101B1000006800F48070B0B96748006840F48070D5
:101B200065490860FFF78AF8054606E0FFF786F882
:101B3000401B642801D90320C0E65F48006800F418
:101B400080700028F2D000BFE068012806D1574815
:101B5000006A40F001005549086227E0E06858B982
:101B60005248006A20F00100504908620846006AA5
:101B700020F00400086219E0E06805280BD14B480A
:101B8000006A40F00400494908620846006A40F0D3
:101B9000010008620AE04548006A20F0010043495C
:101BA00008620846006A20F00400086200BFE0688E
:101BB000A0B1FFF743F8054609E0FFF73FF8401BE7
:101BC00041F28831884202D9032077E622E0374883
:101BD000006A00F002000028EFD012E0FFF72EF8B4
:101BE000054608E0FFF72AF8401B41F28831884299
:101BF00001D9032062E62D48006A00F002000028A7
:101C0000F0D1012F05D12948C06920F08050274923
:101C1000C86100BFE069C8B32448406800F00C0008
:101C2000082860D0E069022848D1002020490866D1
:101C3000FFF704F8054606E0FFF700F8401B02280E
:101C400001D903203AE61948006800F00070002826
:101C5000F2D1206AB0F5803F07D11448406820F4E3
:101C60000030A168084311494860D4E908010843DD
:101C70000E49496821F4741108430C494860012059
:101C80000B490866FEF7DAFF054607E03DE0FEF780
:101C9000D5FF401B022801D903200FE60348006846
:101CA00000F000700028F2D02FE000000010024089
:101CB000000042428004424200700040002014496B
:101CC0000866FEF7BBFF054606E0FEF7B7FF401BC0
:101CD000022801D90320F1E50E48006800F00070E9
:101CE0000028F2D111E0E069012800D1E6E50948B9
:101CF000466806F48031206A814204D106F47011EE
:101D0000606A814201D00120D8E50020D6E50000BC
:101D1000000042420010024070B504462546681E8D
:101D2000B0F1807F01D301200FE0681E4FF0E02169
:101D300048610F214FF0FF3001F07EFE00204FF090
:101D4000E021886107200861002070BD704770475E
:101D500010B50346002200BF93F83C00012801D1D2
:101D6000022010BD012083F83C0000BF22F0FF00DC
:101D7000CC6840EA040222F440708C6840EA040215
:101D800022F480604C6840EA040222F400600C688F
:101D900040EA040222F480500C6940EA040222F472
:101DA00000504C6940EA040222F48040CC6940EAC9
:101DB00004021868426400BF002083F83C0000BFA2
:101DC00000BFCEE730B502460B4600BF92F83C009C
:101DD000012801D1022030BD012082F83C0000BF63
:101DE000022082F83D00106844681068816824F081
:101DF00070041868044310684460104D1068A842CD
:101E00000BD01068B0F1804F07D00D4D1068A8427C
:101E100003D00C4D1068A84205D121F0800158680C
:101E2000014310688160012082F83D0000BF00205E
:101E300082F83C0000BF00BFCDE70000002C01404D
:101E4000000400400008004010B504460CB9012011
:101E500010BD94F83D0028B9002084F83C002046CD
:101E600000F026F8022084F83D00211D206801F0D2
:101E700077FB012084F8460000BF84F83E00012172
:101E80003F200155402001554120015500BF00BFB2
:101E9000012084F84200432001554420015545208B
:101EA000015500BF012084F83D000020D0E700006C
:101EB00010B586B00446002002900390049005906F
:101EC0002149206888420DD100BF2048806940F434
:101ED00000601E4988610846806900F40060019036
:101EE00000BF2FE01A49206888422BD100BF174855
:101EF000C06940F004001549C8610846C06900F097
:101F00000400019000BF00BF00BF0846806940F098
:101F1000080088610846806900F00800019000BF51
:101F200000BF4020029000200390049002A90948BD
:101F3000FEF7E6FC002201211E20FFF745FB1E20D4
:101F4000FFF732FB06B010BD002C0140001002402C
:101F500000080040000C01402DE9F04104460D4608
:101F6000002700BF94F83C00012802D10220BDE800
:101F7000F081012084F83C0000BF022084F83D007D
:101F80002068866826F0770626F47F4620688660FB
:101F90002868502833D00CDC202850D004DC0028DE
:101FA0004BD0102851D149E0302849D040284CD19D
:101FB00039E060282DD0702807D0B0F5805F03D0BD
:101FC000B0F5005F41D10DE041E0D5E902136A6848
:101FD000206801F010FB2068866846F077062068CC
:101FE000866034E0D5E902136A68206801F003FBDB
:101FF0002068806840F480402168886027E0EA68B3
:102000006968206801F0C8FB5021206801F0FEFAE1
:102010001DE0EA686968206801F006FC602120681C
:1020200001F0F4FA13E0EA686968206801F0B4FB93
:102030004021206801F0EAFA09E000BF00BF00BFBC
:102040002968206801F0E2FA01E0012700BF00BF23
:10205000012084F83D0000BF002084F83C0000BF50
:10206000384684E7044A0168914203D10021034ABB
:10207000126851627047000000080040B400002060
:102080002DE9F04104460D461646002700BF94F89E
:102090003C00012802D10220BDE8F081012084F833
:1020A0003C0000BF96B9EB68D5E90012206801F04A
:1020B00087FB2068806920F00C0021688861206817
:1020C0008069A96808432168886141E0042E13D122
:1020D000EB68D5E90012206801F0BAFB206880693E
:1020E00020F440602168886120688069A96840EA1E
:1020F0000120216888612BE0082E12D1EB68D5E918
:102100000012206801F0C1FB2068C06920F00C00BB
:102110002168C8612068C069A96808432168C8614E
:1021200016E00C2E13D1EB68D5E90012206801F0FF
:10213000C8FB2068C06920F440602168C86120683D
:10214000C069A96840EA01202168C86100E0012750
:1021500000BF002084F83C0000BF38469CE710B563
:1021600004460CB9012010BD94F83D0028B90020A8
:1021700084F83C00204600F025F8022084F83D0059
:10218000211D206801F0ECF9012084F8460000BF11
:1021900084F83E0001213F20015540200155412097
:1021A000015500BF00BF012084F8420043200155C3
:1021B000442001554520015500BF012084F83D0011
:1021C0000020D0E7704700002DE9F04304460D469B
:1021D000002615B994F83E000BE0042D02D13F20F3
:1021E000005D06E0082D02D14020005D01E04120A5
:1021F000005D804615B994F842000BE0042D02D131
:102200004320005D06E0082D02D14420005D01E07E
:102210004520005D8146B8F1010F02D1B9F1010FEF
:1022200002D00120BDE8F0831DB9022084F83E00F1
:102230000EE0042D03D102213F20015508E0082DB6
:1022400003D102214020015502E002214120015525
:102250001DB9022084F842000EE0042D03D10221B2
:102260004320015508E0082D03D1022144200155E7
:1022700002E002214520015535B1042D0BD0082D77
:1022800010D00C2D1CD114E02068C06840F0020072
:102290002168C86016E02068C06840F0040021682A
:1022A000C8600FE02068C06840F008002168C8607E
:1022B00008E02068C06840F010002168C86001E0B4
:1022C000012600BF00BF06BB01222946206801F09D
:1022D00081F91249206888420BD02068B0F1804F04
:1022E00007D00F492068884203D00E4920688842F1
:1022F0000CD12068806800F00707062F0CD02068FA
:10230000006840F001002168086005E0206800686E
:1023100040F0010021680860304683E7002C01404E
:10232000000400400008004010B504462068006921
:10233000C0F34000D8B12068C068C0F34000B0B11D
:102340006FF0020021680861012020772068806911
:1023500000F0030018B12046FFF784FE05E0204698
:1023600000F0DAF8204600F08EF90020207720688F
:102370000069C0F38000D8B12068C068C0F3800055
:10238000B0B16FF004002168086102202077206856
:10239000806900F4407018B12046FFF763FE05E045
:1023A000204600F0B9F8204600F06DF900202077B3
:1023B00020680069C0F3C000D8B12068C068C0F3CD
:1023C000C000B0B16FF008002168086104202077D8
:1023D0002068C06900F0030018B12046FFF742FEF4
:1023E00005E0204600F098F8204600F04CF9002067
:1023F000207720680069C0F30010D8B12068C06859
:10240000C0F30010B0B16FF010002168086108201F
:1024100020772068C06900F4407018B12046FFF7AB
:1024200021FE05E0204600F077F8204600F02BF969
:10243000002020772068006900F0010058B1206872
:10244000C06800F0010030B16FF001002168086140
:10245000204600F083F920680069C0F3C01058B12D
:102460002068C068C0F3C01030B16FF080002168F0
:1024700008612046FFF76AFC20680069C0F38010FD
:1024800058B12068C068C0F3801030B16FF04000D0
:1024900021680861204600F062F920680069C0F3F5
:1024A000401058B12068C068C0F3401030B16FF0E0
:1024B0002000216808612046FFF749FC10BD00009C
:1024C00010B586B004460020029003900490059059
:1024D0000E492068884216D100BF0D48806940F03F
:1024E00004000B4988610846806900F004000190EF
:1024F00000BF00BF8815029002200390059002A93A
:102500000448FEF7FDF906B010BD0000002C0140A4
:10251000001002400008014070472DE9F0410446D8
:102520000D461646002700BF94F83C00012802D152
:102530000220BDE8F081012084F83C0000BF36B1E4
:10254000042E1BD0082E31D00C2E5ED145E029463A
:10255000206801F065F82068806940F00800216873
:1025600088612068806920F0040021688861206803
:102570008069296908432168886148E02946206804
:1025800001F07EF82068806940F40060216888616D
:102590002068806920F480602168886120688069F3
:1025A000296940EA01202168886130E029462068D5
:1025B00001F09AF82068C06940F008002168C861FD
:1025C0002068C06920F004002168C8612068C069E3
:1025D000296908432168C86119E02946206801F08B
:1025E000B7F82068C06940F400602168C8612068BD
:1025F000C06920F480602168C8612068C0692969C9
:1026000040EA01202168C86101E0012700BF00BF46
:1026100000BF002084F83C0000BF384689E710B5B1
:1026200004460CB9012010BD94F83D0028B90020E3
:1026300084F83C00204600F025F8022084F83D0094
:10264000211D206800F08CFF012084F8460000BFA7
:1026500084F83E0001213F200155402001554120D2
:10266000015500BF00BF012084F8420043200155FE
:10267000442001554520015500BF012084F83D004C
:102680000020D0E77047704770B504460D4615B975
:1026900094F83E000BE0042D02D13F20005D06E0DF
:1026A000082D02D14020005D01E04120005D01289D
:1026B00001D0012070BD1DB9022084F83E000EE05B
:1026C000042D03D102213F20015508E0082D03D13C
:1026D00002214020015502E0022141200155012242
:1026E0002946206800F076FF19492068884201D108
:1026F000012000E0002028B12068406C40F4004038
:10270000216848641249206888420BD02068B0F1E3
:10271000804F07D00F492068884203D00E492068B7
:1027200088420CD12068806800F00706062E0CD085
:102730002068006840F001002168086005E020681A
:10274000006840F00100216808600020B2E7000046
:10275000002C014000040040000800407047704712
:1027600010B504460CB9012010BDA06900B100E00D
:1027700000BF94F8410028B9002084F840002046AA
:1027800000F02AF8242084F841002068C06820F472
:1027900000502168C860204601F0B2F82068006946
:1027A00020F49040216808612068406920F02A00E8
:1027B000216848612068C06840F400502168C86002
:1027C00000206064202084F8410084F8420000204A
:1027D000606300BFC8E7000010B586B00446002063
:1027E00002900390049005901A49206888422ED1E7
:1027F00000BF1948806940F4804017498861084645
:10280000806900F48040019000BF00BF00BF08460F
:10281000806940F0040088610846806900F0040087
:10282000019000BF00BF48150290022003900320D2
:10283000059002A90948FEF763F84FF48060029002
:1028400000200390049002A90448FEF759F806B04E
:1028500010BD000000380140001002400008014097
:1028600000BFFEE7014608684069C0F38020B0B1B0
:102870006FF480600A68506100200863202081F8AE
:102880003D00002081F83E00086C40F00400086420
:1028900000BF002081F83C0000BF012070470020ED
:1028A000FCE700002DE9F84304460D46174698461C
:1028B000E66A082E04D0012E02D016F5803F06D11C
:1028C0002068006840F480702168086008E0206B90
:1028D000122805D12068006840F4807021680860E3
:1028E0003B4600224FF001112046CDF8008000F059
:1028F0008CF960B12068006800F48070B0F5807FCA
:1029000002D14FF4007020640320BDE8F8832069F1
:10291000B0F5804F04D105F0FE002168086112E097
:1029200005F44070F02141EAE01021680861434657
:102930003A460B49204600F0C7F908B10120E4E708
:10294000E8B22168086143463A460549891F204696
:1029500000F0BAF908B10120D7E70020D5E7000060
:10296000080001002DE9F84304460F461546994634
:10297000DDE908862068006840F48060216808600E
:102980002068006840F48070216808604346002297
:102990004FF001112046009600F037F960B1206831
:1029A000006800F48070B0F5807F02D14FF40070B1
:1029B00020640320BDE8F88307F0FE002168086169
:1029C000334642463E49204600F07EF908B10120D8
:1029D000F0E700BF00200090206840690090206868
:1029E0008069009000BF00BF32464146204600F09B
:1029F0002DFA50B1206C042805D12068006840F4FD
:102A00000070216808600120D4E7B9F1010F03D1FB
:102A1000E8B22168086117E0C5F307202168086162
:102A200032464146204600F011FA50B1206C04288D
:102A300005D12068006840F400702168086001201A
:102A4000B8E7E8B22168086132464146204600F006
:102A5000FDF950B1206C042805D12068006840F4CD
:102A60000070216808600120A4E72068006840F435
:102A7000807021680860434600224FF00111204613
:102A8000009600F0C2F858B12068006800F4807029
:102A9000B0F5807F02D14FF400702064032089E7F5
:102AA000F8B240F00100216808613346424604490B
:102AB000204600F009F908B101207BE7002079E702
:102AC000020001002DE9F843044688461546994660
:102AD000DDE908672068006840F4807021680860BC
:102AE000334600224FF001112046009700F08DF888
:102AF00060B12068006800F48070B0F5807F02D17A
:102B00004FF4007020640320BDE8F88308F0FE0055
:102B1000216808613B4632462149204600F0D4F83E
:102B200008B10120F0E700BF002000902068406954
:102B3000009020688069009000BF00BF3A4631468F
:102B4000204600F083F950B1206C042805D120689C
:102B5000006840F40070216808600120D4E7B9F1F2
:102B6000010F03D1E8B22168086117E0C5F307201F
:102B7000216808613A463146204600F067F950B1B5
:102B8000206C042805D12068006840F4007021689A
:102B900008600120B8E7E8B2216808610020B3E7C7
:102BA0000200010070B504460D46164625E0204699
:102BB000FFF758FE08B1012070BD681CE8B1FEF7B0
:102BC0003DF8801BA84200D8BDB920684069C0F319
:102BD000800090B900202063202084F83D00002070
:102BE00084F83E00206C40F02000206400BF0020EC
:102BF00084F83C0000BF0120DEE720684069C0F394
:102C000080000028D3D00020D6E72DE9F04104460B
:102C10000D4617461E46DDF8188038E0701CA8B334
:102C2000FEF70CF8A0EB0800B04200D876BBC5F365
:102C3000074001280AD120684069A9B20840A9B21A
:102C4000884201D101200BE0002009E02068806962
:102C5000A9B20840A9B2884201D1012000E00020B9
:102C6000B84214D100202063202084F83D000020C9
:102C700084F83E00206C40F02000206400BF00205B
:102C800084F83C0000BF0120BDE8F081FFE7C5F3F8
:102C9000074001280AD120684069A9B20840A9B2BA
:102CA000884201D101200BE0002009E02068806902
:102CB000A9B20840A9B2884201D1012000E0002059
:102CC000B842ABD00020DFE72DE9F04104460D46C5
:102CD00016461F4658E020684069C0F38020E8B1DE
:102CE0002068006840F40070216808606FF480601C
:102CF0002168486100202063202084F83D000020E6
:102D000084F83E00206C40F00400206400BF0020E6
:102D100084F83C0000BF0120BDE8F081701C90B336
:102D2000FDF78CFFC01BB04200D866BBC5F307405F
:102D300001280AD120684069A9B20840A9B2884296
:102D400001D101200BE0002009E020688069A9B2D0
:102D50000840A9B2884201D1012000E0002090B9CA
:102D600000202063202084F83D00002084F83E00ED
:102D7000206C40F02000206400BF002084F83C005C
:102D800000BF0120C8E7FFE7C5F3074001280AD1CB
:102D900020684069A9B20840A9B2884201D1012047
:102DA0000BE0002009E020688069A9B20840A9B2C0
:102DB000884201D1012000E0002000288BD00020B3
:102DC000AAE770B504460D46164637E0206840690C
:102DD000C0F30010A0B16FF010002168486100201E
:102DE0002063202084F83D00002084F83E00206C01
:102DF000206400BF002084F83C0000BF012070BDAB
:102E0000FDF71CFF801BA84200D8BDB920684069AF
:102E1000C0F3801090B900202063202084F83D008A
:102E2000002084F83E00206C40F02000206400BFA9
:102E3000002084F83C0000BF0120E0E720684069E2
:102E4000C0F380100028C1D00020D8E770B5044638
:102E50000D46164625E02046FFF704FD08B1012087
:102E600070BD681CE8B1FDF7E9FE801BA84200D8E0
:102E7000BDB920684069C0F3C01090B9002020633C
:102E8000202084F83D00002084F83E00206C40F0B3
:102E90002000206400BF002084F83C0000BF012017
:102EA000DEE720684069C0F3C0100028D3D00020BE
:102EB000D6E700002DE9F05F1D48008818B9002012
:102EC0001C49088032E01C480068D0F834A00AEBA6
:102ED0004A0101EBCA00FDF72AFA8046174A184B4F
:102EE000FDF744F906460022164BFDF7B1F90446FA
:102EF000FDF760FA83465846FDF749FA0646324622
:102F00000B4600201049FDF7A3F90446FDF720FA0F
:102F100000B2084908800648B0F90000002804DA29
:102F200008460088404200B2088000BFBDE8F09F1C
:102F30001200002014000020B4000020CDCCCCCC26
:102F4000CC4C354080842E4100004E4010B500200E
:102F500005490968486300210348FFF795FB0021F4
:102F60000248FFF731F910BD6C000020B4000020CA
:102F700070B50446201E01DB014600E041428DB2DF
:102F8000002C0BDD00224FF480510D48FDF750FE60
:102F9000012251030A48FDF74BFE0CE0002C0ADA2F
:102FA000012211030648FDF743FE00224FF40051B1
:102FB0000348FDF73DFE03480068456370BD00000F
:102FC000000C01406C00002010B500200749096882
:102FD000486300224FF480510548FDF729FE002286
:102FE0004FF400510248FDF723FE10BD6C00002095
:102FF000000C01401CB50021084600F0B7F8002085
:1030000000900190002406E008226946012000F0AB
:1030100089F8601CC4B2802CF6DB1CBD2DE9F041A0
:1030200006460F46154600247A06110EF206100ECB
:1030300000F09CF80AE0285D2038134A02EB0011EA
:103040000822012000F06EF8601CC4B2285D002840
:10305000F1D17A00521CD1B2F206100E00F086F8BF
:1030600000240CE0285D2038074A02EB001000F134
:1030700008010822012000F055F8601CC4B2285D48
:103080000028EFD1BDE8F081303E000870B504465D
:103090000D4616466A06110EE206100E00F066F89E
:1030A0000B4800EB46111022012000F03BF86A00AB
:1030B000521CD1B2E206100E00F058F8044800EBA2
:1030C000461000F110011022012000F02BF870BD15
:1030D000504700081CB5AE208DF800008D208DF8FB
:1030E000010014208DF80200C8208DF80300A120F3
:1030F0008DF8040020208DF8050000208DF80600D2
:10310000AF208DF8070007226946002000F00AF87A
:10311000FFF770FF01220DF10701002000F002F817
:103120001CBD0000F8B505460E4614461DB14020F2
:103130000C49087002E000200A490870002004E0F1
:10314000325C084B411C5A54C8B2A042F8DB4FF421
:103150007A700090601C83B2024A78210248FDF721
:103160005BFEF8BD44010020180000207CB5054638
:103170000C4600200090019021208DF803008DF86E
:1031800004507F208DF8050022208DF800008DF876
:10319000014007208DF80200062269460020FFF753
:1031A000C1FF7CBD00B585B0002001900290039066
:1031B000049000BF3E48806940F010003C4988619F
:1031C0000846806900F01000009000BF00BF00BFFB
:1031D0000846806940F0200088610846806900F058
:1031E0002000009000BF00BF00BF0846806940F08B
:1031F000080088610846806900F00800009000BF60
:1032000000BF00BF0846806940F00400886108469E
:10321000806900F00400009000BF00BF00224FF45E
:1032200040512448FDF704FD4FF440500190012027
:103230000290002003900320049001A91D48FDF78F
:103240005FFB4FF4004001901B4802900120039067
:1032500001A91A48FDF754FB382001901648029046
:103260000120039001A91348FDF74AFB0022022127
:103270000920FEF7A9F90920FEF796F9002202219C
:103280000A20FEF7A1F90A20FEF78EF9002202219A
:103290001720FEF799F91720FEF786F90022022180
:1032A0002820FEF791F92820FEF77EF905B000BD31
:1032B00000100240000C01400000211000080140F5
:1032C00010B50B480B4908600B48486000210948BD
:1032D0008160C1604FF480410161002141618161E1
:1032E000C1610162FDF7B0FC08B1FDF7AAFA10BD9B
:1032F0000058004018000020A086010000B595B0DD
:10330000002011901290139014900F9010901C2197
:1033100008A8FCF720FF20216846FCF71CFF2A487C
:103320002A490860472048600021284881606321BD
:10333000C1600021016141618161FEF785FD08B135
:10334000FDF77FFA4FF48050119011A91F48FEF746
:1033500003FE08B1FDF775FA1C48FFF760F908B1E4
:10336000FDF76FFA00200F9010900FA91748FEF795
:1033700029FD08B1FDF765FA60200890002009904A
:103380000A900B900C900D900E90002208A90F4807
:10339000FFF7C3F808B1FDF754FA00200090019040
:1033A0000290039004904FF4005005900020079085
:1033B00069460648FEF7CCFC08B1FDF742FA03481F
:1033C000FFF77EF815B000BD002C01406C00002016
:1033D00000B58BB000200790089009900A900590E6
:1033E000069001900290039004901F481F490860C6
:1033F0004720486000211D4881604FF6FF71C16081
:10340000002101618161FEF71FFD08B1FDF719FA86
:103410004FF48050079007A91448FEF79DFD08B1AE
:10342000FDF70FFA1148FEF79AFE08B1FDF709FA09
:1034300000200590069005A90C48FEF7C3FC08B1D2
:10344000FDF7FFF900200190012002900020039079
:103450000490002201A90548FEF712FE08B1FDF70D
:10346000F0F90BB000BD000000080040B4000020DF
:1034700010B50B480B4908604FF4E130486000215B
:1034800008488160C16001610C21416100218161B6
:10349000C161FFF765F908B1FDF7D3F910BD000070
:1034A00000380140FC00002000BFFEE700BFFEE73F
:1034B0007047000008B508490968C9084FF47A72D6
:1034C000B1FBF2F14143009100BF00BF00994A1ED9
:1034D00000920029F9D108BD0C000020704710B5FA
:1034E000FDF7F2FF10BD00B58FB0282105A8FCF74D
:1034F00032FE14216846FCF72EFE012005900004E0
:103500000690002007900120099002200C90C10332
:103510000D914FF4E0110E9105A8FEF7CBF908B11B
:10352000FDF78FF90F2000900220019000200290FB
:103530004FF4806003900020049002216846FEF75B
:1035400095F808B1FDF77DF90FB000BD7047000098
:1035500010B50248FEF7E8FE10BD0000B4000020E0
:1035600010B50268184B984208D0B0F1804F05D0D2
:10357000164B984202D0164B984203D122F07002AB
:103580004B681A43104B984208D0B0F1804F05D0D9
:103590000E4B984202D00E4B984203D122F4407257
:1035A000CB681A4322F080034C6943EA04020260AC
:1035B0008B68C3620B688362034B984201D10B692D
:1035C00003630123436110BD002C0140000400404F
:1035D0000008004030B501F01F05012404FA05F38E
:1035E000046A9C430462046A01F01F0502FA05F5AF
:1035F0002C43046230BD30B50C46816821F47F4114
:1036000042EA032525432943816030BD0A4681688B
:1036100021F0700142F007031943816070470000F8
:1036200030B5026A056A25F00105056243688469C0
:1036300024F0700424F003040D682C4322F00202ED
:103640008D682A430D4DA84206D100BF22F0080222
:10365000CD682A4322F00402084DA84207D123F482
:10366000807323F400734D692B438D692B434360B2
:1036700084614D684563026230BD0000002C01404A
:1036800030B5026A056A25F0100505624368846951
:1036900024F4E04424F440740D6844EA052422F044
:1036A00020028D6842EA05120E4DA84207D100BFE4
:1036B00022F08002CD6842EA051222F04002094D54
:1036C000A84209D123F4806323F400634D6943EADF
:1036D00085038D6943EA8503436084614D68856392
:1036E000026230BD002C014030B5026A056A25F443
:1036F000807505624368C46924F0700424F00304F3
:103700000D682C4322F400728D6842EA05220F4DA9
:10371000A84207D100BF22F40062CD6842EA052228
:1037200022F48062094DA84209D123F4805323F486
:1037300000534D6943EA05138D6943EA051343605D
:10374000C4614D68C563026230BD0000002C0140B9
:1037500030B5036A056A25F4805505624468C2697C
:1037600022F4E04222F440720D6842EA052223F47A
:1037700000538D6843EA0533064DA84204D124F472
:1037800080444D6944EA85144460C2614D68056413
:10379000036230BD002C014030B50B461446026A6E
:1037A000056A25F001050562816921F0F00141EA11
:1037B000041122F00A021A438161026230BD000046
:1037C00070B50C461546026A066A26F001060662C6
:1037D0008169124EB04208D0B0F1804F05D0104E32
:1037E000B04202D00F4EB04201D1012600E00026C7
:1037F0001EB121F00301294301E041F0010121F054
:10380000F001F02606EA0316314322F00A0204F022
:103810000A0632438161026270BD0000002C014043
:10382000000400400008004030B50B461446026A10
:10383000056A25F010050562816921F4704141EAAD
:10384000043122F0A00242EA03128161026230BD1B
:1038500070B50C461546026A066A26F01006066226
:10386000816921F4407141EA052121F470414FF44E
:10387000704606EA0336314322F0A002A02606EA8B
:10388000041632438161026270BD70B50C46154664
:10389000026A066A26F480760662C16921F0030195
:1038A000294321F0F001F02606EA0316314322F401
:1038B00000724FF4007606EA04263243C1610262C8
:1038C00070BD70B50C461546026A066A26F480562D
:1038D0000662C16921F4407141EA052121F4704179
:1038E0004FF4704606EA0336314322F400524FF497
:1038F000005606EA04363243C161026270BD000020
:1039000070B504462168096921F44051E268114309
:10391000226811612269A1681143626941EA0205C6
:103920002168C96841F20C62914329432268D16041
:103930002168496921F44071A269114322685161EB
:103940002D4A2168914202D1FDF76CFF01E0FDF79D
:1039500059FF00EBC00101EB001162689200B1FB5E
:10396000F2F100EBC00202EB001263689B00B2FBB5
:10397000F3F26423B2FBF3F202EBC20303EB021295
:10398000A1EB8201322202EB01116422B1FBF2F1C0
:1039900001F0F00100EBC00202EB001263689B0033
:1039A000B2FBF3F26423B2FBF3F201EB021200EB81
:1039B000C00101EB001163689B00B1FBF3F100EB68
:1039C000C00303EB00136668B600B3FBF6F364268E
:1039D000B3FBF6F303EBC30606EB0313A1EB830182
:1039E000322303EB01116423B1FBF3F101F00F016A
:1039F00011442268916070BD0038014000BFFEE7AD
:103A00000FB4084B10B504A902AA039800F038F8C7
:103A1000044602A9002000F0D4F9204610BC5DF84D
:103A200014FB0000C33D000802480068C0F30220F8
:103A3000704700000CED00E010B5002804DB0A0719
:103A4000130E054A135406E00A07140E034A00F049
:103A50000F031B1FD45410BD00E400E018ED00E07C
:103A600002E008C8121F08C1002AFAD17047704747
:103A7000002001E001C1121F002AFBD170470000A5
:103A80002DE9FF4F8BB088460546002606E0252825
:103A90000BD0DDE90D1290476D1C761C28780028AC
:103AA000F5D10FB03046BDE8F08F0024A146A24604
:103AB0000122AE4900E0044315F8013F203B02FA21
:103AC00003F00842F7D128782A2810D06FF02F028F
:103AD0002878A0F13001092915D809EB890102EBFA
:103AE000410144F0020400EB01096D1CF0E758F8B5
:103AF000041B5FEA010903D544F40054C9F100092D
:103B000044F002046D1C28782E2817D115F8010FF7
:103B100044F004042A280ED06FF02F022878A0F178
:103B2000300109290AD80AEB8A0102EB410100EBB6
:103B3000010A6D1CF2E758F804AB6D1C28786C285C
:103B40000FD006DC4C2817D068280DD06A2814D175
:103B500004E0742810D07A280FD10DE044F400144A
:103B60000AE044F4801401E044F44014697881428E
:103B700002D104F580146D1C6D1C2878692865D06D
:103B800006DC00288DD0632827D0642806D15DE0AC
:103B90006E2808D073282AD0752877D0DDE90D1259
:103BA0009047761CE0E0C4F30250022809D00328B5
:103BB0000DD0D8F8001004280DD00E6008F10408CC
:103BC000D2E0D8F80010F217C1E90062F6E7D8F8A1
:103BD00000100E80F2E70E70F0E718F8041B8DF865
:103BE000001000208DF80100EB46012003E058F89A
:103BF00004BB4FF0FF3061074FF0000701D40AE02B
:103C00007F1C57450DDA8742FADB1BF807100029A5
:103C1000F6D106E07F1C8742FCDB1BF80710002969
:103C2000F8D1DDE90D23A9EB07008146214600F01C
:103C3000B1F83044C61904E0DDE90D121BF8010BA0
:103C400090477F1EF8D22146484688E058F8040B7A
:103C5000C4F302514FF00A0B032900D100B204292A
:103C600000D140B2002802DA40422D2102E02105B5
:103C700005D52B218DF82410012104E006E0E10791
:103C800010D02021F6E708AF089113E058F8040B94
:103C9000C4F302514FF00A0B032900D180B204296A
:103CA00000D1C0B20021EEE75946FCF79FFB30314E
:103CB00007F8011D0028F7D1ADEB070000F1200B3C
:103CC000600702D524F4803401E04FF0010ADA45A0
:103CD00002DDAAEB0B0000E00020824600EB0B01A6
:103CE00008980144A9EB01000A90E00306D4DDE93D
:103CF0000D2321460A9800F04DF806444FF00009C4
:103D000008E009A911F80900DDE90D12904709F151
:103D10000109761C08998945F3DBE0030CD5DDE940
:103D20000D2321460A9800F035F8064404E0DDE949
:103D30000D1230209047761CBAF10001AAF1010A59
:103D4000F5DC05E0DDE90D1217F8010B9047761C54
:103D5000BBF10001ABF1010BF4DC0A982146DDE96F
:103D60000D2300F005F806446D1C97E609280100B4
:103D70002DE9F041044600251E461746880404D468
:103D800005E039462020B0476D1C641EF9D5284651
:103D9000BDE8F0812DE9F041044600251E4690461D
:103DA000C80301D5302700E02027880404D505E0AA
:103DB00041463846B0476D1C641EF9D52846BDE81B
:103DC000F0810A68531C0B6010707047FDF788FB88
:103DD0000120FCF739FDFFF786FBFFF7E3F9FFF75A
:103DE0006FFAFFF745FBFFF789FAFFF7F1FAFCF7E7
:103DF000C9FBFCF7E1FCFFF7A9F803E0FCF7E2FBE5
:103E0000FCF76EFCFAE702030405060708090A0B33
:103E10000C0D0E0F10100102000000000000000049
:103E20000102030406070809000000000102030460
:103E30000000000000000000000000000000000082
:103E4000000000F800000000000000333000000017
:103E500000100C06100C060000000000000000001E
:103E600040C07840C0784000043F04043F04040090
:103E7000007088FC08300000001820FF211E0000A0
:103E8000F008F000E018000000211C031E211E00B5
:103E900000F00888700000001E212324192721103B
:103EA00010160E00000000000000000000000000DE
:103EB000000000E018040200000000071820400085
:103EC00000020418E0000000004020180700000075
:103ED000404080F0804040000202010F01020200D9
:103EE000000000F0000000000101011F01010100BD
:103EF000000000000000000080B070000000000022
:103F000000000000000000000001010101010101AA
:103F10000000000000000000003030000000000041
:103F20000000000080601804006018060100000016
:103F300000E010080810E000000F102020100F0013
:103F4000001010F8000000000020203F202000009A
:103F500000700808088870000030282422213000F2
:103F600000300888884830000018202020110E00FA
:103F70000000C02010F8000000070424243F2400A3
:103F800000F80888880808000019212020110E0078
:103F900000E0108888180000000F112020110E008A
:103FA00000380808C83808000000003F0000000082
:103FB0000070880808887000001C222121221C0043
:103FC00000E010080810E0000000312222110F006C
:103FD000000000C0C0000000000000303000000001
:103FE0000000008000000000000080600000000071
:103FF000000080402010080000010204081020008A
:1040000040404040404040000404040404040400D4
:104010000008102040800000002010080402010069
:10402000007048080808F000000000303601000069
:10403000C030C828E810E0000718272423140B001C
:104040000000C038E0000000203C23020227382096
:1040500008F8888888700000203F202020110E007A
:10406000C030080808083800071820202010080071
:1040700008F808080810E000203F202020100F005A
:1040800008F88888E8081000203F20202320180026
:1040900008F88888E8081000203F2000030000008E
:1040A000C03008080838000007182020221E02002F
:1040B00008F808000008F808203F210101213F20EE
:1040C000000808F8080800000020203F2020000019
:1040D00000000808F8080800C08080807F00000009
:1040E00008F888C028180800203F20012638200042
:1040F00008F8080000000000203F202020203000A9
:1041000008F8F800F8F80800203F003F003F2000C2
:1041100008F830C00008F808203F200007183F00CA
:10412000E01008080810E0000F10202020100F00F9
:1041300008F808080808F000203F210101010000EC
:10414000E01008080810E0000F18242438504F0031
:1041500008F8888888887000203F2000030C3020F1
:1041600000708808080838000038202121221C002F
:10417000180808F8080818000000203F2000000078
:1041800008F808000008F808001F202020201F0061
:104190000878880000C83808000007380E010000C1
:1041A000F80800F80008F800033C0700073C03008B
:1041B000081868808068180820302C03032C3020F1
:1041C0000838C800C83808000000203F2000000060
:1041D00010080808C83808002038262120201800B8
:1041E000000000FE020202000000007F404040008C
:1041F000000C30C000000000000000010638C000C4
:1042000000020202FE000000004040407F0000006B
:104210000000040202020400000000000000000090
:10422000000000000000000080808080808080808E
:104230000002020400000000000000000000000076
:1042400000008080808000000019242222223F206C
:1042500008F8008080000000003F112020110E00AF
:104260000000008080800000000E1120202011003E
:10427000000000808088F800000E112020103F20F0
:104280000000808080800000001F22222222130074
:10429000008080F0888888180020203F20200000BF
:1042A0000000808080808000006B94949493600074
:1042B00008F8008080800000203F210000203F207F
:1042C00000809898000000000020203F202000007F
:1042D000000000809898000000C08080807F00006F
:1042E00008F8000080808000203F24022D3020004C
:1042F000000808F8000000000020203F20200000F7
:104300008080808080808000203F20003F20003F10
:104310008080008080800000203F210000203F201E
:104320000000808080800000001F202020201F00CF
:10433000808000808000000080FFA12020110E00FE
:104340000000008080808000000E112020A0FF80EF
:10435000808080008080800020203F21200001009C
:1043600000008080808080000033242424241900F1
:10437000008080E0808000000000001F20200000FE
:104380008080000000808000001F202020103F203F
:10439000808080000080808000010E3008060100CF
:1043A00080800080008080800F300C030C300F0074
:1043B00000808000808080000020312E0E3120009F
:1043C000808080000080808080818E7018060100CF
:1043D00000808080808080000021302C22213000ED
:1043E00000000000807C020200000000003F40400E
:1043F00000000000FF00000000000000FF000000BF
:104400000002027C800000000040403F00000000ED
:104410000006010102020404000000000000000088
:10442000000000000080C04040408000000000000C
:104430000000F0FE0F01000000000107FEF0000088
:1044400000003FFFC000000000000080FF3F0000B0
:104450000000000103060C08080806030100000024
:104460000000000000000080C0000000000000000C
:1044700000000001010101FFFF000000000000003A
:1044800000000000000000FFFF000000000000002E
:104490000000000808080C0F0F0C080808000000B6
:1044A00000000000804040404040C080800000008C
:1044B00000001E1900000000000000C1FF3E0000C7
:1044C00000000000804030180C06030100C000000E
:1044D00000000E0D0C0C0C0C0C0C0C0C0E03000050
:1044E000000000808040404040C08000000000008C
:1044F00000000F0F000000000080C17F3E000000A0
:104500000000C0C00000010101030206FCF0000031
:104510000000030704080808080804060300000058
:10452000000000000000000000C0C000000000000B
:10453000000000008060100C03FFFF00000000007E
:1045400000302C262120202020FFFF2020200000EA
:104550000000000000000808080F0F08080800000D
:1045600000000000C0C0C0C0C0C0C0C0C0C00000CB
:10457000000000FF008040404040C080000000007C
:104580000000C0C30100000000000001FFFC0000AB
:1045900000000304040808080808040703000000DA
:1045A000000000000080804040404080800000000B
:1045B0000000E0FC0781C0404040C08303000000D1
:1045C00000007FFF8300000000000001FFFC0000EE
:1045D0000000000107060C0808080C060300000094
:1045E000000000C0C0C0C0C0C0C0C0C0C0C000008B
:1045F00000000E030000000000E0180601000000AB
:10460000000000000000C0FC0300000000000000EB
:104610000000000000000F0F00000000000000007C
:104620000000000080C040404040C080000000000A
:1046300000003E7FF1C0C080000080417F1E00006E
:1046400000F0FC0E0201010103070E1EFCF0000049
:104650000001030604080808080804060301000016
:10466000000000808040404040408000000000008A
:1046700000FCFF030000000000000003FEF8000043
:10468000000103070C080808080406E17F1F00006A
:1046900000000707080808080C06030100000000D6
:1046A000000000000000000000000000000000000A
:1046B000000000000000C0E0E0C0000000000000BA
:1046C00000000000000000010100000000000000E8
:1046D000000000000000060F0F06000000000000B0
:1046E00000000000000000000000000000000000CA
:1046F00000000000000000000000000000000000BA
:1047000000000000000000000000000000000000A9
:104710000000000000000000000000000000000099
:104720000080E0F8FEC7C0000003E37F1F07010020
:10473000FE02FBFBFBFB02FEFF80BFBFBFBF80FF93
:1047400000F0F8FCFCF8F00006071F3F3F1F0706CB
:104750000000FE82929292FE92929282FE000000EF
:1047600080601F00001E1212121E40807F00000099
:1047700080808080808080808080808080808000B9
:104780000000000000000000000000000000000029
:1047900000000808080808080808080808000000C1
:1047A0001010101010101010101010101010100019
:1047B0000004848484848484848484848404000045
:1047C0002020202020202020202020202020200009
:1047D00000FC040404FC040404FC040404FC0000C5
:1047E000007F28242320202020212222227F000055
:1047F0000002424242C27E42424242C202020000E3
:1048000040404040784740404040407F404040006A
:1048100020202020202021222C20202020202000A9
:10482000004020100C03000000010204186000008A
:10483000000000FE82828282828282FE00000000EE
:10484000000000FF40404040404040FF00000000AA
:1048500000001011161010F01010141310000000BA
:104860008181414121110D030D11214141818100BF
:1048700000040404040404FC04040404040400000C
:10488000202020202020203F202020202020200029
:1048900020100CF312125292121212F202020000B5
:1048A00001011F11111115195191513F11110100F1
:1048B0000000E0F0F8F8F0E0E0F0F8F8F0E00000D8
:1048C0000000000103070F1F1F0F07030100000076
:1048D000060909E6F80C040202020202041E0000A6
:1048E000000000071F3020404040404020100000E2
:1048F000000404F49494949F949494F404040000A9
:104900004040407F4A4A4A4A4A4A4A7F4040400023
:104910001060028C004464544D46445464C4040046
:1049200004047E0180403E0000FE00007E80E00026
:1049300000020CC000F80848484808FF08098A002F
:1049400002027F80403F001E925E20173846F10031
:10495000404042CC0004F49494FF9494F40400008A
:104960000040201F20484442415F414244484000EB
:104970000000F888888888FF88888888F800000008
:1049800000001F080808087F888888889F80F0003A
:104990001010D0FF901000FE020202FE0000000086
:1049A000040300FF0083601F0000003F40407800C8
:1049B000080808F8080800F2121AD61212F20200CB
:1049C0001030100F0808804F20180710204F80006B
:1049D0000000FE222222222222222222FE000000A9
:1049E0000000FF424242424242424242FF00000077
:1049F000104A00080000002018000000603A00087B
:104A0000284A00081800002048050000703A0008F5
:104A10000000000010000000010000000024F4006D
:084A200001000000000000008D
:04000005080000ED02
:00000001FF
